:020000040800F2
:10000000C806002089010008C30F0008110F00086E
:10001000C10F00088F02000849120008000000000C
:10002000000000000000000000000000C70F0008F2
:100030009102000800000000C50F0008C90F000869
:10004000A3010008A3010008A3010008A301000800
:10005000A3010008A3010008A3010008A3010008F0
:10006000A3010008A3010008A3010008A3010008E0
:10007000A3010008A3010008A3010008A3010008D0
:10008000A3010008A3010008A3010008A3010008C0
:10009000A3010008A3010008A3010008A3010008B0
:1000A000A3010008A3010008A3010008A3010008A0
:1000B000A3010008A3010008A3010008A301000890
:1000C000A3010008A3010008A3010008A301000880
:1000D000A3010008A30100083D120008A3010008C5
:1000E000A3010008A3010008A301000800F002F822
:1000F00000F03AF80AA090E8000C82448344AAF188
:100100000107DA4501D100F02FF8AFF2090EBAE885
:100110000F0013F0010F18BFFB1A43F0010318473B
:10012000B4110000D4110000103A24BF78C878C17F
:10013000FAD8520724BF30C830C144BF04680C60ED
:10014000704700000023002400250026103A28BF35
:1001500078C1FBD8520728BF30C148BF0B60704739
:100160001FB51FBD10B510BD00F058F81146FFF7C0
:10017000F7FF01F07BF800F076F803B4FFF7F2FF29
:1001800003BC00F07DF8000009488047094800479B
:10019000FEE7FEE7FEE7FEE7FEE7FEE7FEE7FEE737
:1001A000FEE7FEE704480549054A064B7047000094
:1001B0002B100008ED000008C8000020C806002031
:1001C000C8020020C80200204FF0000200B513460C
:1001D00094469646203922BFA0E80C50A0E80C5067
:1001E000B1F12001BFF4F7AF090728BFA0E80C5018
:1001F00048BF0CC05DF804EB890028BF40F8042B11
:1002000008BF704748BF20F8022B11F0804F18BF7D
:1002100000F8012B7047704770477047754600F033
:100220002BF8AE4605006946534620F00700854688
:1002300018B020B5FFF7B6FFBDE820404FF000062C
:100240004FF000074FF000084FF0000B21F00701BE
:10025000AC46ACE8C009ACE8C009ACE8C009ACE801
:10026000C0098D46704710B50446AFF300802046A4
:10027000BDE81040FFF781BF0048704768000020CC
:1002800001491820ABBEFEE7260002007047FEE7DA
:10029000704772B6FEE710B590F8211000220229CF
:1002A00005D00421816380F82020012010BD016861
:1002B0000B6823F00E030B6001680B6823F0010349
:1002C0000B6090F84030C46B012101FA03F36360C6
:1002D00080F8211080F82020104610BD10B590F84D
:1002E00021100024022903D00421816301243DE070
:1002F00001680A6822F00E020A6001680A6822F0AA
:1003000001020A601A4A0168914201D1012121E0EB
:10031000174A1432914201D110211BE0144A2832AD
:10032000914201D1891515E0114A3C32914201D127
:1003300089140FE00E4A5032914202D14FF48031BD
:1003400008E00B4A6432914202D14FF4801101E07F
:100350004FF08071064A083A5160012180F821105F
:10036000002180F82010416B01B18847204610BD64
:10037000080002402DE9F84FDFF8B8910024A9F1F8
:10038000040B23460F2709F1040AABF1040EC9E060
:100390000125A5402A40AA427DD1674ED1F804C06C
:1003A000ACEB0608B44532D014DCBCF1030F3AD0F4
:1003B00009DCBCF1000F2AD0BCF1010F1CD0BCF14C
:1003C000020F31D11DE0BCF1110F17D0BCF1120F9B
:1003D0002AD119E0B8F5881F19D006DCB8F5803F9E
:1003E00015D0B8F5801F1FD111E0B8F5001F0ED051
:1003F000B8F5041F18D10AE0CB6815E0CB681B1DC7
:1004000012E0CB6808330FE0CB680C330CE08B684C
:100410002BB1012B4FF0080303D0456104E0042306
:1004200002E0056100E00023FF2A01D8064601E052
:1004300000F104064FEA840501D9A5F12005D6F89C
:10044000008007FA05FC28EA0C0803FA05F548EADB
:100450000508C6F800804D68ED0062D5374DAE69DD
:1004600046F00106AE61AD6924F0030605F0010512
:100470000095334D06EB050CDCF80850A607360F47
:1004800007FA06F825EA0805DFF8B880404503D1E9
:100490004FF0000817E044E0DFF8AC80404502D19F
:1004A0004FF001080FE0DFF8A480404502D14FF083
:1004B000020808E0DFF89880404502D14FF00308B9
:1004C00001E04FF0040808FA06F848EA0508CCF8FD
:1004D00008804D68D9F80060ED024D4601D51643FD
:1004E00000E096432E604D68DAF80060AD02554694
:1004F00001D5164300E096432E604D68DBF800609E
:10050000AD035D4601D5164300E096432E604D686D
:10051000DEF80060ED03754601D5164300E0964312
:100520002E60641C0D682A46E5407FF431AFBDE8BB
:10053000F88F000008040140000011100010024074
:100540000000014000080140000C01400010014083
:10055000001401400AB1016170470904FBE7000083
:10056000014880687047000004000020024881684C
:10057000027811448160704704000020074810B5DC
:10058000016841F010010160032000F075F80F20B0
:1005900000F006F800F024F8002010BD0020024012
:1005A00070B50D4D04464FF47A712878B1FBF0F028
:1005B0000A490968B1FBF0F000F0DCFA48B9102CE8
:1005C00007D200222146501E00F036F800206C6051
:1005D00070BD012070BD000004000020100000204C
:1005E0000C4808B5816941F001018161816901F020
:1005F00001010091C16941F08051C161C06900F001
:10060000805000900448416821F0E06141F00071A1
:10061000416008BD0010024000000140002809DBD5
:1006200000F01F02012191404009800000F1E0200C
:10063000C0F8001170470000F0B40E4B1B680C4668
:10064000C3F30223C3F10705042D00D90425191DA6
:10065000072901D2002300E0DB1E012606FA05F17E
:10066000491E214099409E40761E16403143F0BC01
:1006700000F0EBBD0CED00E0064900F00702086851
:100680004FF6FF03184040EA0220034A1043086077
:10069000704700000CED00E00000FA052DE9F0477E
:1006A0000F46050061D0434E306800F00700B842A5
:1006B00009D2306820F0070038433060306800F01D
:1006C0000700B84251D128683B4C810712D540073A
:1006D00003D5606840F4E06060602878000703D5C7
:1006E000606840F4605060606068A96820F0F000C5
:1006F000084360602878C00728D06868012810D0B7
:100700002168022810D0890700292EDA616821F0BB
:10071000030101436160FFF723FF804641F28839FE
:100720000DE021688903EFE78901EDE7FFF718FF86
:10073000A0EB0801494502D90320BDE8F0876068B5
:10074000696800F00C00B0EB810FEFD1306800F069
:100750000700B8420BD9306820F0070038433060FA
:10076000306800F00700B84201D00120E5E72878A2
:10077000400705D56068E96820F4E06008436060E0
:100780002878000706D56068296920F4605040EA9F
:10079000C100606000F038F86168084AC1F30311D5
:1007A000515CC8400649086006480068FFF7F8FE3B
:1007B0000020C2E70020024000100240BA120008E8
:1007C000100000200800002004480549006849681E
:1007D000044AC1F30221515CC84070471000002058
:1007E00000100240CA120008044805490068496820
:1007F000044AC1F3C221515CC84070471000002078
:1008000000100240CA1200080E4A51680E4801F05A
:100810000C03042B11D0082B0FD10C48C1F38343D8
:10082000C903C05C0AD55168084AC1F34041921E11
:10083000515C054A5043B0FBF1F07047044948430E
:10084000704700000010024000127A00AA1200084F
:1008500000093D002DE9F84F040070D02078C04D0C
:10086000C00749D06868C0F38100012807D06868D4
:10087000C0F38100022809D16868C00306D5286842
:10088000800339D560680028E7D035E06068B0F5AE
:10089000803F0BD010B1B0F5A02F11D0286820F404
:1008A00080302860286820F4802002E0286840F426
:1008B00080302860606890B1FFF752FE06460AE07B
:1008C000286840F480202860F0E700BFFFF748FE6A
:1008D000801B642873D828688003F7D50CE0FFF7E5
:1008E0003FFE064605E000BFFFF73AFE801B642886
:1008F000F0D828688003F7D420789A4E80074FF00C
:1009000001094FF0000839D5686810F00C0F07D0C6
:100910006868C0F38100022809D16868C00306D462
:100920002868800714D52069012808D110E02069C3
:10093000B0B1C6F80090FFF713FE074605E00AE1E4
:10094000FFF70EFEC01B0228C4D828688007F7D521
:100950002868616920F0F80040EAC10028600DE0D5
:10096000C6F80080FFF7FCFD074604E0FFF7F8FD3E
:10097000C01B022823D828688007F7D420780007F6
:100980002CD57948A169D9B1C0F80090FFF7E8FDEE
:10099000074604E0FFF7E4FDC01B02280FD8686A91
:1009A0008007F7D571484FF4FA510068B0FBF1F0B9
:1009B000009000BF0098411E0091FAD20EE080E046
:1009C000C0F80080FFF7CCFD074604E0FFF7C8FD44
:1009D000C01B022875D8686A8007F7D420784007C2
:1009E00060D5E8690027C00008D4E86940F080506D
:1009F000E861E869012700F0805000905C480168D8
:100A0000C90513D40168834641F480710160FFF782
:100A1000A7FD824606E000BFFFF7A2FDA0EB0A009B
:100A200064284ED8DBF80000C005F5D5E068012841
:100A30000AD008B1052813D0286A20F001002862E6
:100A4000286A20F0040002E0286A40F001002862D1
:100A5000E06841F2883B98B1FFF782FD82460BE0E7
:100A6000286A40F004002862EEE700BFFFF778FD37
:100A7000A0EB0A0159455AD8286A8007F6D50CE040
:100A8000FFF76EFD824605E0FFF76AFDA0EB0A0165
:100A900059454CD8286A8007F6D41FB1E86920F080
:100AA0008050E861E06988B36968C1F38101022977
:100AB00044D00228C6F8608004D0FFF751FD0446F8
:100AC00038E034E0FFF74CFD074604E0FFF748FD4F
:100AD000C01B02282BD828688001F7D4206AB0F503
:100AE000803F05D16868A16820F400300843686041
:100AF000D4E908010843696821F474110843686067
:100B0000C6F86090FFF72CFD044606E025E000BF24
:100B1000FFF726FD001B022809D828688001F7D5B9
:100B20001BE000BFFFF71CFD001B022802D90320B9
:100B3000BDE8F88F28688001F4D40EE00128F7D0D2
:100B40006868226A00F48031914204D1616A00F43D
:100B50007010884201D00120EAE70020E8E7000099
:100B60000010024000004242800442421000002077
:100B70000070004010B5401EB0F1807F01D301200D
:100B800010BD4FF0E02460610F21601700F05DFBA5
:100B90000020A06107202061002010BD7047704731
:100BA000F8B5016804460868CA684B6910F00F0F71
:100BB0004FF0000559D003F0010602F49077374357
:100BC00065D0C10705D0D10503D5616C41F00101A5
:100BD0006164410705D5D90703D0616C41F002017A
:100BE0006164810705D5D90703D0616C41F0040128
:100BF0006164010707D502F02001314303D0616C25
:100C000041F008016164616C00293AD0800604D586
:100C1000900602D5204600F038FA20684069616CE1
:100C2000C0F38010090700D460B3204600F006FA34
:100C300020684069400621D52068143050E8001F24
:100C400021F0400140E80012002AF5D1E06BA8B184
:100C50006D494163E06BFFF741FB002811D0E06B69
:100C6000416B01B0BDE8F040084783060FD59306FD
:100C70000DD52046BDE8F84000F007BA2046FFF742
:100C80008EFFF8BD2046FFF78AFF6564F8BD266B2E
:100C90002023012E7CD1C6067AD5D60678D50868E1
:100CA0004868009048694FF00206400640D5E16B65
:100CB000086840680004000CE8D0A28D8242E5D9A3
:100CC000E085886920282DD020680C3050E8001F6E
:100CD00021F4807140E80012002AF5D12068143018
:100CE00050E8001F21F0010140E80012002AF5D170
:100CF0002068143050E8001F21F0400140E8001245
:100D0000002AF5D184F84230256320680C3050E881
:100D1000001F21F0100140E80012002AF5D1E06B1D
:100D2000FFF7B9FA6663A08DE18D401A81B22AE01F
:100D3000A08DE18D401A81B2E08D0028A6D0002957
:100D4000A4D022680C3252E8000F20F4907042E8E0
:100D50000007002FF5D12068143050E8002F22F052
:100D6000010240E80027002FF5D184F842302563C6
:100D700020680C3050E8002F22F0100240E80023D9
:100D8000002BF5D166632046FFF708FFF8BDFFE7AB
:100D900005062BD5150629D594F841002128F5D153
:100DA000A068B0F5805F01D12069B0B1206A411C14
:100DB0002162216800784860E08C401E0004000C2D
:100DC000E084E3D12068C16821F08001C16020681F
:100DD000C16841F04001C160D8E7206A0088C0F3D3
:100DE00008004860206A801C2062E5E74006CDD5F7
:100DF0005006CBD5CA68204622F04002CA6084F86B
:100E0000413000F084F8C1E72D10000870B50400EF
:100E100004D094F84100002510B106E0012070BD17
:100E200084F84050204600F023F8242084F8410044
:100E30002068C16821F40051C160204600F086F9A5
:100E40002068016921F4904101612068416921F025
:100E50002A0141612068C16841F40051C1606564A4
:100E6000202084F8410084F842006563002070BDB2
:100E700030B585B000240094019402940394006876
:100E8000184988422BD11848C16941F40031C16129
:100E9000C16901F400310491816941F0040181616B
:100EA0008069124D00F0040004900420009002209C
:100EB00001900320039069462846FFF75BFA08205B
:100EC000CDE90004694628460294FFF753FA002250
:100ED00011462620FFF7B0FB2620FFF79FFB05B049
:100EE00030BD0000004400400010024000080140F6
:100EF00090F84230202B01D00220704721B11AB166
:100F00000023036300F07EB90120704770477047EB
:100F1000FEE7000070B586B00024184800940194E4
:100F200002940394816941F010018161816901F0AB
:100F300010010491816941F020018161816901F012
:100F400020010491816941F00401816180690C4EA6
:100F500000F004004FF480750490002229463046CA
:100F6000FFF7F8FA01200095CDE901040220039073
:100F700069463046FFF7FEF906B070BD001002402A
:100F8000000801400C4810B50A4901600B49416056
:100F9000002181600422C160C0E904128161C16145
:100FA000FFF734FF002803D0BDE81040FFF771B908
:100FB00010BD00000044004020000020A086010079
:100FC000FEE7FEE770477047FFF7D0BA30B58FB045
:100FD00028216846FFF7F8F814210AA8FFF7F4F86B
:100FE00001210804CDE90010002402940225049197
:100FF000CDE907504FF4E01009906846FFF72AFC4E
:1010000008B172B6FEE70F20CDE90A054FF4806003
:10101000CDE90C4002210AA80E94FFF73FFB0028FF
:1010200001D072B6FEE70FB030BD704710B5406A10
:101030000021C185C184FFF7B2FD10BD01680C31EC
:1010400051E8002F22F4907241E80023002BF5D1E3
:101050000168143151E8002F22F0010241E8002319
:10106000002BF5D1016B012909D101680C3151E840
:10107000002F22F0100241E80023002BF5D120219F
:1010800080F8421000210163704708B590F84210C3
:10109000222901D0022008BD82684FF480539A4271
:1010A00001D1016921B1816A9A421BD04AB10AE09B
:1010B0000268816A5268C2F308020A80816A891C48
:1010C00008E0026972B10268526802F07F020A7099
:1010D000816A491C8162C18D491E0904090CC185C0
:1010E00003D01BE002685268F1E70168CA6822F089
:1010F0002002CA600168CA6822F48072CA6001686E
:101100004A6922F001024A61202180F84210002140
:101110004163026B012A03D0FFF7F8FE002008BDEF
:10112000016301680C3151E8002F22F0100241E800
:101130000023002BF5D101680A68D20602D50A689F
:1011400049680091818DFFF729FDE7E770B50446F6
:1011500000680169E26821F440511143016121698D
:10116000A0680843616908432168CA6841F20C63BA
:101170009A430243CA6020684169A26921F4407120
:10118000114341611E492068884202D1FFF72CFBC0
:1011900001E0FFF719FB00EBC00101EB00126068F2
:1011A00064218000B2FBF0F3B3FBF1F36FF018069B
:1011B0007343B2FBF0F5B2FBF0F605EB8305322387
:1011C00003EB0515B5FBF1F5B6FBF1F605F0F005FF
:1011D00005EB0615B2FBF0F6B2FBF0F0B0FBF1F058
:1011E0006FF01802504306EB800003EB0010B0FBD9
:1011F000F1F0216800F00F002844886070BD000005
:101200000038014081628285C2850021416422212B
:1012100080F84210016921B10168CA6842F4807205
:10122000CA6001684A6942F001024A610068C16807
:1012300041F02001C1600020704700000148FFF725
:10124000AFBC000020000020FEE70907090E0028BF
:1012500004DB00F1E02080F80014704700F00F007C
:1012600000F1E02080F8141D70470000FFF786F9B8
:10127000FFF7ACFEFFF74EFEFFF784FE0849074874
:101280000122096801440748FFF732FE054800685B
:10129000C16841F01001C160FEE7000014000020A9
:1012A00000000020200000200102020304050607C0
:1012B00008090A0B0C0D0E0F1010000000000000B2
:1012C00000000102030406070809000000000102F3
:1012D00003040000F41200080000002014000000C5
:1012E000280100080813000814000020B4060000BC
:1012F0004401000800000000010000001000000090
:081300000000000000127A0059
:04000005080000ED02
:00000001FF
