:020000040800F2
:100000006009002055020008652B00085D270008E4
:10001000612B000891040008DD3600080000000094
:10002000000000000000000000000000B52D0008E6
:100030003505000800000000E92C0008B92D000873
:100040006F0200086F0200086F0200086F020008CC
:100050006F0200086F0200086F0200086F020008BC
:100060006F0200086F0200086F0200086F020008AC
:10007000290500086F0200086F0200086F020008DF
:100080006F0200086F0200086F020008B904000840
:1000900095040008A1040008AD0400086F020008E0
:1000A0006F0200086F0200086F0200086F0200086C
:1000B0006F0200086F0200086F0200086F0200085C
:1000C0006F0200086F0200086F0200086F0200084C
:1000D0006F020008B53400086F020008C134000840
:1000E0006F0200086F0200086F0200086F0200082C
:1000F0006F0200086F0200086F0200086F0200081C
:100100006F0200086F0200086F0200086F0200080B
:100110006F0200086F0200086F0200087D2E0008C1
:100120006F0200086F0200086F0200086F020008EB
:100130006F0200086F0200086F0200086F020008DB
:100140006F0200086F0200086F0200086F020008CB
:100150006F0200086F0200086F0200086F020008BB
:100160006F0200086F0200086F0200086F020008AB
:100170006F0200086F0200086F0200080000000014
:100180006F0200086F02000800F002F800F052F859
:1001900014A696E8000CB244B344DA4501D100F04D
:1001A00049F8BAE80F000FA696E83000A5EB040561
:1001B00004EB0607AAEB0704A7F101074FEA1515A0
:1001C0004FEA3414A4F10104AC4201D300F032F838
:1001D00013F0010F18BFFB1A43F0010300F001F800
:1001E000DBE71847443C0000643C0000103A24BFA1
:1001F00078C878C1FAD8520724BF30C830C144BF8C
:1002000004680C6070470000704700000023002461
:1002100000250026103A28BF78C1FBD8520728BF16
:1002200030C148BF0B6070471FB503F0DBFD1FBD39
:1002300010B510BD00F0F2F81146FFF7F5FF03F01E
:100240008BFA00F010F903B4FFF7F2FF03BC00F0E3
:1002500017F900000948804709480047FEE7FEE714
:10026000FEE7FEE7FEE7FEE7FEE7FEE7FEE7FEE766
:1002700004480549054A064B70470000692E0008EE
:10028000890100086003002060090020600500204B
:100290006005002053EA020C00F069802DE9F04B64
:1002A0004FF00006002B1FBFB3FA83F503FA05F4E5
:1002B00024FA05F65E4012BF1643B2FA82F502FA3E
:1002C00005F4C5F120051EBF22FA05FC44EA0C0422
:1002D000203556EA044C4FEA144418BF641C4FF012
:1002E00000084FF00009904271EB030C39D300294C
:1002F00019BFB1FA81F701FA07F6B0FA80F700FAF0
:1003000007F6C7F120071EBF20FA07FC46EA0C06D5
:100310002037B6FBF4FCA7EB0507103F07F01F0BD7
:10032000CBF120062CFA06F60CFA0BFB44BFB346C1
:100330000026202FA4BF5E464FF0000B5BEA060CA0
:1003400008BF4FF0010B19EB0B0948EB0608ABFB9C
:10035000027C06FB02CC0BFB03CCC01B71EB0C0137
:10036000C1E70B46024641464846BDE8F08B13B54F
:10037000084318BF4FF0FF300146AFF30080BDE8DF
:100380001C4070474FF000020429C0F0128010F0AA
:10039000030C00F01B80CCF1040CBCF1020F18BF61
:1003A00000F8012BA8BF20F8022BA1EB0C0100F0F4
:1003B0000DB85FEAC17C24BF00F8012B00F8012BC7
:1003C00048BF00F8012B70474FF0000200B51346FC
:1003D00094469646203922BFA0E80C50A0E80C5065
:1003E000B1F12001BFF4F7AF090728BFA0E80C5016
:1003F00048BF0CC05DF804EB890028BF40F8042B0F
:1004000008BF704748BF20F8022B11F0804F18BF7B
:1004100000F8012B7047704770477047754600F031
:100420002BF8AE4605006946534620F00700854686
:1004300018B020B5FFF71CFFBDE820404FF00006C4
:100440004FF000074FF000084FF0000BAC46ACE84F
:10045000C009ACE8C009ACE8C009ACE8C00921F0AB
:1004600007018D46704710B50446AFF30080204663
:10047000BDE81040FFF7E7BE0048704710000020BD
:1004800001491820ABBEFEE72600020070470000BD
:10049000FEE7000040F28810C2F2000000F0C4B98C
:1004A00040F28810C2F2000000F0BEB940F288109D
:1004B000C2F2000000F0B8B940F28810C2F20000A9
:1004C00000F0B2B980B582B0417840F2AC02C2F21D
:1004D000000202F80C1F037840F2FF1C5370C3782F
:1004E00011469370837841F830CFD37043794FF041
:1004F000000C13710379C2F838C05371C379C2F884
:100500003CC0937180794FF0080CD07140F2881094
:10051000C2F2000001ABC2F840C000F029F801208F
:1005200000F096FE02B080BD40F2B010C2F20000B2
:1005300000F0A8BC7047000072B600BFFEE70000E4
:1005400090F82020013A012A08D8006800F114022E
:100550000020136819431160704700BF00F12402A6
:1005600001204FF480211368194311607047000087
:1005700010B590F820E0D0F800C0AEF1010EBEF149
:10058000010FDCF808E011D81EF0E05F18D0CEF3C0
:1005900001640120A04018608B68DBB1D1F804E051
:1005A000C86840EACE0040EA030E17E000F12403D9
:1005B00001204FF480211A681143196010BD00BF5B
:1005C00000F1240301204FF400111A68114319604F
:1005D00010BD00BF0868CB6843EA405E0CF5C070F0
:1005E00000EB0413240140F804E00C69184640F8BD
:1005F000044F097D012903D1016841F48071016034
:1006000050680121D8601068986000201A68114372
:10061000196010BD90F82020013A012A30D8B0B5F9
:1006200046F20060C4F20000026842F0010202607B
:10063000026822F47C520260D1F814E0CC694A6A64
:100640000368012C43EA022202600EF01F024FF001
:10065000010303FA02F2C3696FEA020C23EA020300
:10066000C36113D02CBBC36803EA0C03C360CB681F
:100670008C8844EA034300EBCE0423640B4611E06C
:10068000416A41F48021416201207047C3681343ED
:10069000C3600B688C8844EA034300EBCE042364F8
:1006A00001F10C038C681B8843EA044300EBCE0481
:1006B000636443688D6943EA0204D1F810E0096A73
:1006C000002D08BF03EA0C0444604369BEF1000F2B
:1006D00043EA020408BF03EA0C040129446102D181
:1006E000C1691143C161016821F00101016000206D
:1006F000B0BD000070470000B0B590F82040013C4C
:10070000012C7DD8D0F800C000290CBFDCF80C40CB
:10071000DCF81040A4077DD00CF5D8754FEA011C19
:1007200055F80C4014F00404946055F80CE005EB07
:10073000011C19BF4FEADE0555604FEA5E55156092
:10074000DCF80050E64605F00205D5605EF8044F7F
:1007500024075ABFDEF8004004F00F040824146197
:10076000DEF800400029C4F307249461DEF800504D
:100770004FEA15455561DCF808201A70026802EB53
:100780000112D2F8B8214FEA12225A70026802EB25
:100790000112D2F8B8214FEA12429A70026802EBB5
:1007A0000112D2F8B8214FEA1262DA70026802EB45
:1007B0000112D2F8BC211A71026802EB0112D2F8C0
:1007C000BC214FEA12225A71026802EB0112D2F8E0
:1007D000BC214FEA12429A71026802EB0112D2F870
:1007E000BC214FEA1262DA7100680CBF00F10C0103
:1007F00000F11001002020220B681A430A60B0BDEE
:1008000000F1240101204FF480220B681A430A6092
:10081000B0BD00BF00F1240101204FF400120B68AD
:100820001A430A60B0BD00002DE9F04F81B00446C4
:1008300000684669D0F804908768D0F80CB0D0F80A
:1008400010A0D0F81880F10704D1002530071DD47E
:1008500024E000BFF90710D00121BA07816009D454
:10086000780700F1AF80380700F1B680204600F02D
:10087000A1FA02E0204600F09FFA0025F80500F1F9
:100880008780F80300F1B180300707D51BF0100016
:1008900004D0206845F400751021C160700708D5A8
:1008A0001BF0080005D020680821C160204600F038
:1008B000BFF9B00706D52068C068800702D020467F
:1008C00000F0B8F9700607D51AF0100004D02068BF
:1008D00045F4806510210161B00608D51AF00800C2
:1008E00005D0206808210161204600F0E9F9F006F2
:1008F00006D520680069800702D0204600F0E2F9A2
:10090000B00308D519F0100005D02068102141600F
:10091000204600F01FFAF00308D519F0080005D0B2
:10092000206808214160204600F050FA300440F170
:100930009B805FEA497040F1948006F4807008EA79
:10094000102028435FEA8871014648BF41F0020148
:10095000B20558BF01465FEA48700D4648BF45F0F2
:100960000405700558BF0D46300540F17A8018F037
:10097000700000F076801038000905286CD8DFE898
:1009800000F003655D61596945F0080564E000BF4A
:1009900020684FF48071BA0581600BD4780515D4B6
:1009A00038051DD4204600F009FAF8037FF56CAF36
:1009B0001BE000BF204600F003FAF8037FF564AFA8
:1009C00013E000BF4FF4006558E700BF05F5005580
:1009D000F8037FF559AF08E04FF480554EE700BFAC
:1009E00005F58045F8037FF54FAF20684FF480315F
:1009F000BA0381600AD4780310D4380314D4204693
:100A000000F0E0F930073FF541AF47E7204600F03E
:100A1000DBF930073FF53AAF40E700BF05F5004589
:100A200030073FF533AF39E705F5803530073FF53F
:100A30002DAF33E745F080050EE000BF45F02005FF
:100A40000AE000BF45F0400506E000BF45F0100594
:100A500002E000BF45F480752068816921F07001D3
:100A6000816120680421416055B1606A40EA050156
:100A70002046616201B0BDE8F04FFFF73BBE00BF0A
:100A800001B0BDE8F08F0000002804BF01207047CE
:100A9000B0B5044690F8200010B9204600F06EF87A
:100AA0002068016841F00101016000F0BBFC0546CF
:100AB00020684168C90705D100F0B4FC401B0B2831
:100AC000F6D310E0016821F00201016000F0AAFCF9
:100AD000054600BF2068416889070DD500F0A2FCDB
:100AE000401B0B28F6D3606A052140F40030606299
:100AF000012084F82010B0BD217E0268012922F077
:100B0000800208BF80320260617E0268012922F003
:100B1000400208BF40320260A17E0268012922F033
:100B2000200208BF20320260E17E0268012922F023
:100B3000100218BF10320260217F0268012922F0E2
:100B4000080208BF08320260617F0268012922F0B2
:100B5000040208BF04320260D4E901C2D4E90335BB
:100B600061691A432A431143ACF101021143C16187
:100B700000200121606284F82010B0BD80B586B0ED
:100B800046F200410068C4F200010022884205924A
:100B9000CDE903220292019202D006B080BD00BFCF
:100BA00043F630000092C4F20200036943F0007380
:100BB0000361036903F000730093009B00920368D4
:100BC00043F0080303600068022300F0080000906F
:100BD00000980320019004900920059001F5D4307D
:100BE00001A9CDE9023200F047FB132000210022C9
:100BF00000F0D0FC132000F0BBFC142000210022E8
:100C000000F0C8FC142000F0B3FC152000210022E5
:100C100000F0C0FC152000F0ABFC162000210022E3
:100C200000F0B8FC162000F0A3FC06B080BD000068
:100C30007047000010B588B040F2AC04C2F2000466
:100C400040F2881004F11403C2F2000001AA00214E
:100C5000FFF752FD0198A0F2012103292AD801389B
:100C6000C2B2A18A920052FA80F0E28A09BA090C53
:100C700012BA04EB4000120C00EE101A9FED0E1A8F
:100C8000A0F85620228BB8EE400A20EE010A9FED14
:100C90000B1A12BA120C20EE010AA0F85820A27EFC
:100CA000BDEEC00AA0F8541010EE101A80F85A20B9
:100CB000A0F85C1008B010BD000000390000B4437B
:100CC0007047000010B588B040F2AC04C2F20004D6
:100CD00040F2881004F11C03C2F2000001AA0121B5
:100CE000FFF70AFD0198A0F2052103292BD8A18B5B
:100CF000FB30C2B209BA9200090C52FA80F040F2FD
:100D0000E822E38BC2F2000200EE101A9FED0F1AE8
:100D100022F8101002EB40001ABA238CB8EE400AF9
:100D2000120C20EE010A9FED0A1A42801ABA120C28
:100D300020EE010A828094F82220BDEEC00A10EE57
:100D4000101A8271018108B010BD00BF0000003987
:100D50000000B44370470000B0B5044690F820008E
:100D600001281DD1022084F820002068016821F0AC
:100D70000101016000F056FB054600BF2068406895
:100D8000C00713D000F04EFB401B0B28F6D3606A5F
:100D900040F400306062052084F820000120B0BDDE
:100DA000606A40F4002060620120B0BD00206062F3
:100DB000B0BD0000704700007047000070470000A1
:100DC0007047000070470000704700007047000047
:100DD00070B5866D044600F025FB94F835100229A5
:100DE00028D105462068216C026822F016020260B4
:100DF000426922F08002426109B9A16C19B101680F
:100E000021F008010160016821F00101016000BFCB
:100E100020680068C00715D000F004FB401B0628BE
:100E2000F6D320206065032084F83500002184F883
:100E3000341070BD802060650120002184F83410DA
:100E400070BD00BFE06D3F2101FA00F0B0600120ED
:100E500084F835000020002184F8341070BD0000B3
:100E600090F83510022909D1052180F83510006865
:100E7000016821F001010160002070478021416577
:100E800001207047F0B581B00021009140F20801C7
:100E9000C2F200010B68D0E9166148F2B515376857
:100EA0000822C1F64E358A403A42A3FB05350CD0E4
:100EB00003681C68640708D51C6824F004041C60DF
:100EC000B260426D42F00102426501228A403A421C
:100ED00008D003685B691B0604D5B260426D42F01E
:100EE0000202426504228A403A4208D003681B6825
:100EF0009B0704D5B260426D42F0040242651022A5
:100F00008A403A4219D001680B681B0715D5B260B8
:100F10000B680A685B0309D4D20509D40A6822F079
:100F200008020A60016C29B907E000BF110341D42F
:100F3000016C11B1044688472046C26D202101FA98
:100F400002F33B4243D001680F68FF063FD5B36010
:100F500090F835700B68052F1CD123F016030B6039
:100F60004B6923F080034B61036C0BB9836C1BB19D
:100F70000B6823F008030B603F219140B160012111
:100F800080F83510016D0022002980F8342054D1FA
:100F900058E000BF0A685B0310D4D20512D40A6877
:100FA00022F010020A60012180F83510002180F83B
:100FB000341007E0816C0029BCD1BEE7110301D4D5
:100FC000416C00E0C16B11B1044688472046416D79
:100FD000C1B3416DC9072ED0052180F835100168D5
:100FE000AA0A0B6823F001030B60009B01339342B4
:100FF00000931AD80B68DB0717D0009B013393428C
:10100000009312D80B68DB070FD0009B013393428B
:1010100000930AD80B68DB0707D0009B013393428B
:10102000009302D80B68DB07DFD1012180F835106F
:10103000002180F83410C16C21B101B0BDE8F0404E
:10104000084700BF01B0F0BD2DE9F041044600F0B3
:10105000E9F9ECB10546022084F83500002021684A
:1010600084F83400086820F00100086021680868EE
:10107000C00711D000F0D6F9401B0528F6D903258A
:1010800020230320636584F83550BDE8F08100BF5C
:101090000120BDE8F08100BF086848F23F02CFF2AE
:1010A0001002D4E9013500EA020C04F10C0898E8BA
:1010B000C10143EA0C032B431843D4E9072E304304
:1010C00038431043626A40EA0E00042A40EA0803EB
:1010D0001CD1206BD4E90A2E40EA0E0018430860A8
:1010E0004869BEF1000F20F0030040EA020040F022
:1010F000040C11D0B8F5005F36D0B8F1000F45D11F
:10110000022A46D0012A3BD032B942E00B6048693E
:1011100020F0070040EA020C01F0F8004AF6AB228A
:101120001038CAF6AA22A0FB02231A0943F620634C
:10113000C1F814C0C0F600039A5C40F2FF335F2888
:101140004FF03F0021EA030100FA02F088BF0431AA
:10115000C4E916128860002301250020636584F825
:101160003550BDE8F08100BF032AD5D801254023C2
:101170000120DFE802F0030E030500BF82E700BF95
:10118000AEF1C070B0FA80F0400904E0032A04D345
:10119000C2D1CEF300600028BED00125402301203B
:1011A000636584F83550BDE8F081000090F834C0E4
:1011B000BCF1010F04BF0220704770B54FF0010C65
:1011C00080F834C0D0F858E090F835C0BCF1010F79
:1011D00038D14FF0020C80F835C04FF0000CC0F849
:1011E00054C0D0F800C08468056CC06DDCF80060A5
:1011F000402C26F48026CCF80060CCF804300B4656
:1012000004BF13460A463F2101FA00F0CCF808302B
:10121000CCF80C20CEF80800DCF8000040F01600F6
:10122000CCF800002DB1DCF8000040F00800CCF84C
:101230000000DCF8000040F00100CCF800000020C5
:1012400070BD00BF002180F83410022070BD000086
:10125000B0B5044600F0E6F8054640F20000C2F2E0
:1012600000000078611C18BF044400BF00F0DAF8E9
:10127000401BA042FAD3B0BD2DE9F04F83B000F17E
:10128000200200F13E4741F60045009207F1FF774A
:10129000C4F2020508224FEAB726A84208BF072277
:1012A00000254FF000084FF00009072E38BF4FEA25
:1012B000B72201920AE000BF09F1010908F1020812
:1012C000B9F1100F05F1040500F0A2800F680122AA
:1012D00002FA09FE17EA0E0AEED0D1F804C0032282
:1012E0000CF003077E1E02FA08F4012E6FEA040BCD
:1012F00012D88468CE6804EA0B0406FA08F6344370
:101300008460446824EA0E06CCF3001404FA09F45D
:101310002643466004E000BF032F01D103271EE0EF
:10132000C6688C6806EA0B0604FA08F42643022F06
:10133000C66014D16FF00302009E02EA590756F806
:1013400007C005F01C040F220B69A2402CEA020220
:10135000A3401A43F251D1F804C00CF0030702680D
:1013600007FA08F302EA0B021A431CF4403F02603A
:10137000A2D0002243F644030292C4F202031A6888
:1013800043F6004442F480421A601A68C4F2010431
:1013900002F480420292029A29F003024FF6084CAE
:1013A0002244CFF6FF7C52F80C3005F00C070F26D4
:1013B000BE40B343019E06FA07F73B4342F80C30A8
:1013C000A2684B6842EA0A0743F60C4CDE0258BF9B
:1013D00022EA0A07A760C4F2010CDCF800209E0292
:1013E00042EA0A0758BF22EA0A07CCF8007062688E
:1013F0009E0342EA0A0758BF22EA0A07676022688A
:10140000DB0342EA0A0758BF22EA0A07276053E7CC
:1014100003B0BDE8F08F0000002A08BF0904816115
:101420007047000040F25830C2F200000068704778
:1014300040F2000040F25831C2F20000C2F2000156
:1014400000780A68104408607047000080B543F6D1
:101450000040C4F20200016841F4007101600168BB
:1014600041F480610160016841F4807101600320F2
:1014700000F0BCF80F2000F005F800F05DF8002047
:1014800080BD000070B586B0002543F6400101958F
:10149000C4F202010A68044642F020020A600968A8
:1014A00001A801F0200101910199694600F060F95D
:1014B000049E002E18BF012600F07AF94DF68361D4
:1014C000B040C4F21B31A0FB01014FF0FF3000EB34
:1014D000914140F2102041F20042C2F20000C4F2F9
:1014E000000240F2E733C0E90021C0E90253056180
:1014F000856100F095FB08B106B070BD40F2102088
:10150000C2F2000000F0BCFB0028F5D1372000F04B
:101510002FF80F2C0CD837202146002200F03AF883
:1015200040F204010020C2F200010C6006B070BD60
:10153000012006B070BD000082B0002043F64001DB
:101540000190C4F202014A6842F480424A604A684B
:1015500002F480420192019A0090086840F08050A5
:101560000860086800F080500090009802B0704752
:10157000002848BF704700F01F01012202FA01F164
:101580001C2202EAD0004EF20012CEF2000281507C
:101590007047000010B54EF60C5CCEF2000CDCF883
:1015A0000030C3F3022E8EF00704042C28BF04245D
:1015B000BEF103034FF0FF3E0EFA04F438BF0023E0
:1015C000A14399400EFA03F39A43114300F00F022E
:1015D00000F160430901043A03F5644362440028C2
:1015E00048BF02F10C03197010BD00004EF60C51FB
:1015F000CEF200010A684FF6FF031A4060F30A2298
:1016000042F0806040F0FD7008607047002804BF21
:10161000012070472DE9F04143F60808C4F20208A2
:101620000446D8F8F8030D4600F00700884207D2B8
:1016300088F8F853D8F8F80300F00700A84277D1EB
:101640002068810717D5410705D5D8F8001041F467
:10165000E051C8F80010010705D5D8F8001041F492
:101660006041C8F80010D8F80010A26821F0F0011D
:101670001143C8F80010C00740D1D8F8F80300F0B3
:101680000700A84207D988F8F853D8F8F80300F003
:101690000700A8424CD12068410707D5D8F80010B0
:1016A000E26821F4E0511143C8F80010000708D5A2
:1016B000D8F80000216920F4604040EAC100C8F871
:1016C000000000F09DF8D8F8001043F60862C1F35E
:1016D0000311C0F60002515C40F2080220FA01F149
:1016E00040F20400C2F200000068C2F20002116081
:1016F000FFF7C8FE0020BDE8F08100BF6068811ED2
:10170000022907D258F8081C89015CBF0120BDE8F6
:10171000F08111E0012807D158F8081C89035CBF4B
:101720000120BDE8F08107E058F8081C890703D4C0
:101730000120BDE8F08100BFD8F8001021F00301BE
:101740000843C8F80000FFF76DFE064641F28837EF
:10175000D8F80000616800F00C00B0EB810F8CD06D
:10176000FFF760FE801BB842F2D90320BDE8F0818C
:101770000F22026043F60802C4F20202136803F06B
:1017800003034360136803F0F0038360136803F4FA
:10179000E053C360D2F800C04FF4E05303EADC0327
:1017A0000361D2F8F80300F00700086070470000FA
:1017B00040F2080043F60801C2F20000C4F2020140
:1017C0000068096843F61862C1F38221C0F600027E
:1017D000515CC8407047000040F2080043F6080121
:1017E000C2F20000C4F202010068096843F6186200
:1017F000C1F34231C0F60002515CC840704700009E
:1018000010B543F60404C4F20204606800F00C0052
:1018100008280BD0042819BF42F20040C0F2F4009F
:1018200041F60030C0F2B70010BD00BF206821684B
:101830002368490241F60031C0F2B70100F03F02CF
:10184000C3F388105CBF42F20041C0F2F401A1FB77
:1018500000010023FEF71EFD21680222C1F30141B1
:1018600002EB4101B0FBF1F010BD0000002804BF05
:10187000012070472DE9F04182B00446007843F61C
:101880000006C007C4F202060CD0B06800F00C00DD
:10189000042840F081803068800303D56068002808
:1018A00000F06881207880071BD5B06810F00C0F1D
:1018B00009D0B06800F00C00082840F087807068FC
:1018C000400200F183803068800703D5E06801287A
:1018D00040F050813068216920F0F80040EAC100F2
:1018E00030602078000713D4207840072AD4A569F7
:1018F000002D00F03A81B06800F00C00082840F09C
:10190000A580012D40F00E81012002B0BDE8F081DC
:101910006069002800F082800020C4F24720012185
:10192000C0F8801EFFF77EFD054600BF706F800780
:10193000DAD4FFF777FD401B0228F7D9032002B065
:10194000BDE8F081306C5FEAC0080AD40020019045
:10195000306C40F080503064306C00F0805001906A
:10196000019847F20007C4F200073868C00547D461
:10197000386840F480703860FFF754FD054600BFBA
:101980003868C0053CD4FFF74DFD401B0228F7D94D
:10199000032002B0BDE8F081B06800F00C00082818
:1019A00003D1706840023FF576AF61683068B1F5E9
:1019B000803F07D0B1F5A02F40F09A8040F48020FE
:1019C0003060306840F4803030609AE0E068002891
:1019D00040F20000C4F247205CD001210160FFF713
:1019E00021FD0546306880073FF574AFFFF71AFD0B
:1019F000401B0228F6D9032002B0BDE8F08100BFE9
:101A0000A168306F012905D0052955D140F00400A7
:101A10003067306F40F00100306756E00020C4F2BC
:101A200047200021C0F8801EFFF7FCFC054600BFE0
:101A3000706F80077FF558AFFFF7F4FC401B02285A
:101A4000F6D9032002B0BDE8F08100BF0027C4F240
:101A5000472700203866FFF7E5FC022D05460DD12B
:101A60003068800140F18A80FFF7DCFC401B0228CF
:101A70004FF00300F4D902B0BDE8F0813068800176
:101A800073D5FFF7CFFC401B02284FF00300F5D9B8
:101A9000F1E700BF00210160FFF7C4FC054600BF6D
:101AA000306880077FF51DAFFFF7BCFC401B0228A4
:101AB0004FF00300F4D9DEE720F001003067306F0B
:101AC000002920F0040030677AD0FFF7ABFC054610
:101AD00041F28837306F800700F18480FFF7A2FC65
:101AE000401BB842F6D9032002B0BDE8F08100BF28
:101AF00020F4803030603068002920F4802030608D
:101B00007AD0FFF78FFC0546306880033FF5CAAEF8
:101B1000FFF788FC401B6428F6D9032002B0BDE81B
:101B2000F08100BF7068E16900F480028A4221D12F
:101B3000216A00F03F028A421CD147F6C071626AF6
:101B40000140B1EB821F15D1A16A4FF6FF73C903A3
:101B5000994300F44032A1F580318A420AD1E16A0A
:101B600000F07060B0EB016F04D1002002B0BDE85E
:101B7000F08100BF012002B0BDE8F08104F11C0536
:101B80002FCD084340EA8210D9034FF6FF729143EC
:101B9000A1F5803140EA0560084370600120386695
:101BA000FFF740FC044600BF30688001DDD4FFF73A
:101BB00039FC001B02284FF00300F5D95BE700BF9A
:101BC000FFF730FC054641F2883700BF306F8007D1
:101BD00008D5FFF727FC401BB8424FF00300F5D9AA
:101BE00049E700BFB8F1000F3FF581AE306C20F03F
:101BF000805030647BE600BFFFF714FC054600BF51
:101C0000306880037FF54EAEFFF70CFC401B642864
:101C10004FF00300F4D92EE7704700007047000032
:101C2000002804BF0120704710B5044690F83D001D
:101C300028B9002084F83C00204600F01FF802205C
:101C400084F83D002068211D01F01EF9012084F870
:101C5000460084F83E0084F83F0084F8400084F891
:101C6000410084F8420084F8430084F8440084F87A
:101C7000450084F83D00002010BD000070470000C2
:101C800090F83D1001291CBF01207047022180F807
:101C90003D10006841F2FF72C168C4F20002904238
:101CA00041F00101C1600DDC40F2FF71C4F200019E
:101CB000884215DCB0F1804F2AD040F20041C4F2D6
:101CC000000123E040F2FF31C4F20101884213DC3D
:101CD00041F60001C4F20001884219D0002113E04E
:101CE00040F60001C4F20001884211D040F60041E4
:101CF000C4F200010AE000BF44F20001C4F2010195
:101D0000884205D040F20041C4F20101884206D168
:101D1000816801F00701062904BF002070470168AF
:101D200041F0010101600020704700007047000091
:101D300070B504460068C5680669B10716D515F088
:101D4000020113D06FF00201016101212177806946
:101D5000800703D02046FFF7E9FF05E0204600F0AA
:101D60008FF8204600F08EF800202077700719D5F4
:101D700015F0040016D020686FF004010161022103
:101D80002177806910F4407F04D02046FFF7CEFF12
:101D900006E000BF204600F073F8204600F072F81D
:101DA00000202077300717D515F0080014D02068E0
:101DB0006FF00801016104212177C069800703D019
:101DC0002046FFF7B3FF05E0204600F059F8204613
:101DD00000F058F800202077F00619D515F0100013
:101DE00016D020686FF01001016108212177C069C9
:101DF00010F4407F04D02046FFF798FF06E000BFB4
:101E0000204600F03DF8204600F03CF80020207706
:101E1000F00718BF15F0010002D1300609D412E016
:101E200020686FF001010161204600F02DF83006B6
:101E300009D515F0800006D020686FF0800101619F
:101E40002046FFF7E9FE700609D515F0400006D0E0
:101E500020686FF040010161204600F01FF8B006D5
:101E600058BF70BD15F0200008D021686FF0200227
:101E700020460A61BDE87040FFF7D0BE70BD00008B
:101E80007047000070470000006841F20041C4F252
:101E90000001884218BF7047FFF7CABA70470000B8
:101EA0007047000070470000B0B582B001680A6852
:101EB000CC684B6902F02F05202D04F0200505D1D8
:101EC00025B102B0BDE8B04001F000BA5FEA027C83
:101ED0001EBF03F0010E04F4907313EB0E0341D107
:101EE000036BD50618D5012B16D114F0100313D0AF
:101EF000002201920A6801924A680192019A496996
:101F000049064BD4818DC28DC38D002B18BF9142E1
:101F100040F0F48102B0B0BD13062DD514F080035B
:101F20002AD090F84120212AF4D18268B2F5805F4E
:101F300003D10269002A00F06782026A531C03621F
:101F400012784A60C28C013A1304C284E2D1C86894
:101F500020F08000C860C86840F04000C86002B04F
:101F6000B0BD00BFD30718BF14F4807340F0D08019
:101F7000530700F1D380D8E05206CBD514F04002CD
:101F8000C8D0CA6822F04002CA60202180F84110FF
:101F900002B0BDE8B04000F0DFBB00BFC16B0A6813
:101FA000526893B2002BB5D0858DAB42B2D2C285B8
:101FB000C969B1F5807F00F0A080016851E8031F76
:101FC000026821F4807142E80313DBB1016851E833
:101FD000031F026821F4807142E8031393B1016882
:101FE00051E8031F026821F4807142E803134BB1EA
:101FF000016851E8031F026821F4807142E803136D
:10200000002BDAD1016851E8051F026821F00101B7
:1020100042E80513BBB3016851E8051F026821F0CF
:10202000010142E8051373B3016851E8051F026816
:1020300021F0010142E805132BB3016851E8051FA7
:10204000026821F0010142E80513002BDAD11AE001
:10205000016851E8051F026821F0400142E80513BC
:10206000DBB1016851E8051F026821F0400142E838
:10207000051393B1016851E8051F026821F0400182
:1020800042E805134BB1016851E8051F026821F0D1
:10209000400142E80513002BDAD1202180F84210DC
:1020A00000210163016851E8031F026821F010015B
:1020B00042E80313DBB1016851E8031F026821F015
:1020C000100142E8031393B1016851E8031F02684D
:1020D00021F0100142E803134BB1016851E8031FDE
:1020E000026821F0100142E80313002BDAD1C16B22
:1020F00004460846FEF76CFE204602214163818DAE
:10210000C28D891A89B202B0BDE8B040FFF7C8BEDF
:10211000436C43F001034364530706D5BEF1000F3F
:1021200003D0436C43F002034364930706D5BEF12A
:10213000000F03D0436C43F004034364BCF1000F71
:1021400006D55EEA050303D0436C43F008034364FD
:10215000436C002B3FF4DEAE920605D525B1044654
:1021600001F0B4F8216820464969426C01F0400151
:1021700002F00802891800F0B98000BF016851E838
:10218000031F026821F4907142E80313BBB3016896
:1021900051E8031F026821F4907142E8031373B3FE
:1021A000016851E8031F026821F4907142E80313AB
:1021B0002BB3016851E8031F026821F4907142E8D3
:1021C0000313002BDAD11AE0016851E8051F0268F9
:1021D00021F0010142E80513DBB1016851E8051F58
:1021E000026821F0010142E8051393B1016851E84A
:1021F000051F026821F0010142E805134BB1016897
:1022000051E8051F026821F0010142E80513002B87
:10221000DAD1016B012924D1016851E8031F02685A
:1022200021F0100142E80313DBB1016851E8031FFC
:10223000026821F0100142E8031393B1016851E8EC
:10224000031F026821F0100142E803134BB101683B
:1022500051E8031F026821F0100142E80313002B2C
:10226000DAD1202180F84210002101630168496918
:10227000490640F1C380016851E8051F026821F05A
:10228000400142E80513DBB1016851E8051F02680F
:1022900021F0400142E8051393B1016851E8051FA0
:1022A000026821F0400142E805134BB1016851E892
:1022B000051F026821F0400142E80513002BDAD126
:1022C000C16B002900F09A8042F6CD72C0F6000280
:1022D000044608460A65FEF7C3FD00283FF41AAE1F
:1022E000E06B016D02B0BDE8B04008470446FFF75F
:1022F000D9FD0020606402B0B0BD00BF891A00BFE4
:10230000026852E8032F036822F4907243E8032521
:10231000BDB3026852E8032F036822F4907243E8C9
:10232000032575B3026852E8032F036822F4907204
:1023300043E803252DB3026852E8032F036822F413
:10234000907243E80325002DDAD11AE0026852E8C2
:10235000052F036822F0010243E80525DDB102687C
:1023600052E8052F036822F0010243E8052595B1E4
:10237000026852E8052F036822F0010243E80525B0
:102380004DB1026852E8052F036822F0010243E8CC
:102390000525002DDAD1202280F842200022026398
:1023A000026852E8032F036822F0100243E8032575
:1023B000DDB1026852E8032F036822F0100243E8FF
:1023C000032595B1026852E8032F036822F010023A
:1023D00043E803254DB1026852E8032F036822F059
:1023E000100243E80325002DDAD1022289B24263AC
:1023F00002B0BDE8B040FFF753BD00BF02B0BDE87A
:10240000B040FFF74FBD00BF026A32F8023B6FF3E6
:102410005F234B60026295E5002804BF01207047EE
:1024200010B5044690F8410028B9002084F8400017
:10243000204600F021F8242084F841002068C1687B
:1024400021F40051C160204600F0C0FF20680169FE
:1024500021F490410161416921F02A014161C16883
:1024600041F40051C16000202021606484F84110D3
:1024700084F84210606310BD2DE9F04387B0016815
:1024800044F60002C4F2000200269142CDE905663E
:10249000CDE9036602964BD041F20000C4F2010080
:1024A000814240F09B8043F630000196C4F2020066
:1024B0004169002441F0100141614169C4F2020404
:1024C00001F01001019101990196016802AD41F0FE
:1024D0000201016001684FF0020801F00201019160
:1024E0000199019601684FF0030941F00101016073
:1024F0000068072700F001000190019880200290F9
:1025000004F580602946CDE90386CDF8149006973E
:10251000FEF7B2FE4FF40070CDE9020820462946CE
:10252000CDE904690697FEF7A7FE25244EE000BF1B
:10253000054643F630000196C4F20200016941F4F9
:1025400080210161016901F48021019101990196C5
:10255000016841F004010160006802A900F0040074
:10256000019001984FF4406002900220CDE90306EB
:1025700003200590072006900020C4F2020000F519
:102580000060FEF779FE40F2B01446F22800C2F275
:102590000004C4F202004FF0006184E843004FF4ED
:1025A00040304FF480624FF48073C4E9080620463F
:1025B000C4E90362C4E90566E361FEF745FD00284E
:1025C00018BFFDF7B9FFEC63A5632724204600215F
:1025D0000022FEF7DFFF2046FEF7CAFF07B0BDE886
:1025E000F0830000B0B582B090F84240202C0BD1AF
:1025F00013460A4600294FF0010118BF002B07D1EE
:10260000084602B0B0BD00BF0221084602B0B0BD0E
:1026100000252221056382628385456480F842108B
:10262000D0F83CC043F2551E43F2B524C0F6000E6C
:10263000C0F600040168CCE90FE442F6D974C0F694
:102640000004CCE91345043104466046FEF7AEFDB4
:102650000195216820460A68019249680191019913
:10266000216929B3016851E8031F026841F48071B0
:1026700042E80313E3B1016851E8031F026841F423
:10268000807142E803139BB1016851E8031F02689F
:1026900041F4807142E8031353B1016851E8031F0C
:1026A000026841F4807142E80313002BDAD100BFC5
:1026B000016851E8051F026841F0010142E8051375
:1026C000BBB3016851E8051F026841F0010142E80F
:1026D000051373B3016851E8051F026841F0010159
:1026E00042E805132BB3016851E8051F026841F069
:1026F000010142E80513002BDAD11AE0016851E824
:10270000051F026841F0400142E80513DBB1016892
:1027100051E8051F026841F0400142E8051393B1FA
:10272000016851E8051F026841F0400142E80513C5
:102730004BB1016851E8051F026841F0400142E8D1
:102740000513002BDAD10021084602B0B0BD00000D
:10275000704700007047000070470000FEE700006F
:10276000F0B581B02DED108B0C4640F22811C2F26D
:102770000001B1F90410054608461E46174601F04F
:102780001BFA9FED810B53EC102B01F02DFA9FEDFE
:10279000800B53EC102B01F027FA9FED7F0B53ECCD
:1027A000102B01F0ADF801F079F8B7F9081000EE40
:1027B000100AB6F9080001EE101AB8EEC1DA01EEFF
:1027C000100A9FED77BA9FED778A9FED779A9FED7C
:1027D00077CAB8EEC11AB0EE00AA3DEE00EA71EE7B
:1027E000008A28460021B0EE4A0AF0EE4B0AB0EE0D
:1027F000481AF0EE491AB0EE4C2A01F02BF82846A0
:10280000B0EE4D0AF0EE4E0A00F0AEF9B6F908103F
:10281000D5F81D009FED66DA00EE101AB1EE04EA5D
:10282000B7EE00FA09EE900AF8EEC0AA2846002199
:10283000B0EE4E0AF0EE4F0AB0EE481AF0EE491A2A
:10284000B0EE4D2A01F006F82846B0EE6A0AF0EE26
:10285000680A00F089F9D5F81D00B5EE001A08EEF7
:10286000900AB7F9020039EEE80A60EE01BA00EE0C
:10287000100AF8EEC0AA28460021B0EE4A0AF0EE8F
:102880004B0AB0EE481AF0EE491AB0EE4C2A00F0AE
:10289000E1FF2846B0EE6A0AF0EE690A00F064F93A
:1028A000D5F81D00002100EE100AB6F9020070EE06
:1028B0006B9A00EE100AF8EEC0AA2846B0EE4E0A57
:1028C000F0EE4F0AB0EE481AF0EE491AB0EE4D2A7B
:1028D00000F0C0FF2846B0EE6A0AF0EE680A00F089
:1028E00043F9D5F81D00002100EE100AB7F90400E5
:1028F00070EE6B8A00EE100AF8EEC0AA2846B0EE21
:102900004A0AF0EE4B0AB0EE481AF0EE491AB0EE61
:102910004C2A00F09FFF2846B0EE6A0AF0EE690AE2
:1029200000F022F9B6F90410D5F81D0000EE101AD7
:102930000BEE100AB8EEC0AA28460021B0EE4E0AEF
:10294000F0EE4F0AB0EE481AF0EE491AB0EE4D2AFA
:1029500000F080FF2846B0EE4A0AF0EE680A00F068
:1029600003F9D5F81D00BDEECB1A00EE100A11EEEA
:10297000100ABDEEC00A208010EE100A6080BDEC87
:10298000108B01B0F0BD00BF7B14AE47E17A843FED
:102990000000000000FFBF400000000000A08440D5
:1029A000CDCCCC3D0000000000401C4600007A4425
:1029B00000409C4580B540F2881046F20041C2F2CA
:1029C0000000C4F200010322002380E80E0000F1A1
:1029D0000C014FF4102C4FF4001E81E80850836165
:1029E0008383FEF751F8002808BF80BDBDE8804012
:1029F000FDF7A2BD80B582B00020019043F6300003
:102A0000C4F202000168002241F400110160006874
:102A1000002100F40010019001980C20FEF7BAFD8F
:102A20000C2002B0BDE88040FEF7A2BD70B586B0B4
:102A3000002043F630010590CDE90300CDE9010007
:102A40000090C4F202010A6841F6004442F001021B
:102A50000A600A68C4F2020402F001020092009ABD
:102A600000900A684FF4E05542F002020A600A68DA
:102A7000012602F002020092009A00900A6842F0D9
:102A800008020A600A6802F008020092009A0090A8
:102A90000A6842F004020A600A6802F00402009226
:102AA000009A00900868012240F0800008600868E1
:102AB0004FF4E05100F08000009000982046FEF7AF
:102AC000ABFC0220049001A92046CDE901560396F3
:102AD000FEF7D2FB06B070BD80B540F2582041F23F
:102AE0000001C2F20000C4F2010148F2A06200231A
:102AF0004FF00C0CC0F2010280E80E00C0E9033375
:102B0000C0E905C3C361FFF787FC002808BF80BD8B
:102B1000BDE88040FDF710BD80B540F2A02044F62E
:102B20000001C2F20000C4F2000148F2A062C0F24B
:102B30000102002380E80E0000F10C014FF4806CCC
:102B40004FF0040E81E80850C0E90633FFF764FC3B
:102B5000002808BF80BDBDE88040FDF7EDBC000047
:102B6000FEE70000FEE7000000285BD0411C8B6BF5
:102B7000CA6B01EE103ACB6310EE903A00784B61CD
:102B800010EE103A30EEC00A8B6110EE103A0028B9
:102B90000A648B634AD0012840F0A08002EE102A1C
:102BA0000A684B6803EE102A30EE414A24EE033ADD
:102BB00004EE103A13EE102A20EE044A88680A62E6
:102BC00014EE102A31EE011A4A620A6B30EE410A05
:102BD00032EE000A01EE100A4A6310EE102A20EECF
:102BE000010A10EE100A8862C869D1F80CC033EEF1
:102BF000041A31EE000A01EE100A31EE000A01EE6D
:102C000010CACB6AB4EE410A10EE100AF1EE10FAC7
:102C10000B63CA62C86153DDC1F81CC0B0EE410A43
:102C2000704700BF9FED2F0A704700BF08684A68D1
:102C300002EE100A20EE022A12EE100A0862486A1A
:102C400003EE102A04EE100A23EE003A33EE043AA3
:102C50008B6813EE100AD1F810C04862086B30EE92
:102C6000410A01EE103A486310EE100A20EE010A04
:102C700001EE10CACA6AB4EE413AC86210EE100AF8
:102C8000F1EE10FA0A63886206DCB1EE411AB4EE86
:102C9000413AF1EE10FA04DA11EE100AB0EE413AC0
:102CA0004862C86832EE031A30EE010A01EE100ADB
:102CB000B4EE410A10EE102AF1EE10FACA6109DCF6
:102CC000B1EE411AB4EE410AF1EE10FAA8BF704716
:102CD00011EE100AC861B0EE410A7047C86900EEF3
:102CE000100A7047000000007047000080B540F2F5
:102CF000A023C2F20003D3F800C0DCF8143043F084
:102D00004003CCF81430DCF80C3043F01003CCF85E
:102D10000C3040F2B013C2F20003D3F800E0DEF84A
:102D200000C02CF0010319E0DEF8003023F00103AD
:102D3000CEF80030DEF80030DB071FBFDEF80030D1
:102D400023F00103CEF80030DEF8003018BF5FEA50
:102D5000C37315D0DEF8003023F00103CEF8003045
:102D6000DEF80030DB071FBFDEF8003023F0010380
:102D7000CEF80030DEF8003018BF5FEAC373D3D15D
:102D800044F60403C4F20003CEF80830CEF80C0079
:102D9000CEF81010CEF80420DEF8000040F48020B9
:102DA000CEF80000DEF8000040F00100CEF8000090
:102DB00080BD0000704700007047000070B592B001
:102DC00006AC20463021FDF7FFFA002543F640000F
:102DD0000595CDE90355CDE901550095C4F20200F2
:102DE0000168022641F080510160006800F08050C7
:102DF0000090009847F200000095C4F200000168BE
:102E000041F480410160006800F480400090009827
:102E1000012006904FF4803007904FF480000D9011
:102E200006200E90A820CDE90F0604201190204620
:102E30000C96FEF71BFD18B172B600BFFEE700BF8F
:102E40000F20CDE901064FF4A05004904FF48050BC
:102E5000059001A805210395FEF7D8FB10B172B6C5
:102E6000FEE700BF12B070BD4EF68850CEF20000F3
:102E7000016841F4700101607047000040F21020C9
:102E8000C2F20000FEF754BF10B540F6FF3E0368E3
:102E9000C4F2000E40F2004C7045C4F2010C25DC77
:102EA000B0F1804F2FD040F20042C4F200029042B5
:102EB00029D040F60002C4F20002904223D041F62D
:102EC000FF72C4F20002904227DC70453ADCB0F198
:102ED000804F5BD040F20042C4F20002904255D0D5
:102EE00040F60002C4F200024EE000BF40F600428D
:102EF000C4F20002904206D0604504D00022C4F221
:102F000001029042DBD14A6823F07003134341F67B
:102F1000FF72C4F200029042D7DD43F6FF72C4F2A2
:102F20000102904220DC42F20002C4F20002904210
:102F30002CD00022C4F20102904227D0604525D057
:102F400028E000BF40F60042C4F2000290421DD0CB
:102F500041F60002C4F20002904217D041F600424E
:102F6000C4F2000210E000BF44F20002C4F2010209
:102F700090420BD044F60002C4F20102904205D008
:102F800044F20042C4F20102904203D1CA6823F421
:102F90004073134323F080024B69D1F800E08C6842
:102FA0001A430260C46240F48062C0F828E06245BF
:102FB00004BF09690163012141610169C90708BFB3
:102FC00010BD016921F00101016110BD806B00217C
:102FD000C185C184FEF766BF806B01684A6990F8BD
:102FE0004130212B2DD112F080022AD00021C18442
:102FF000016851E8031F026821F0C00142E8031391
:10300000DBB1016851E8031F026821F0C00142E80A
:10301000031393B1016851E8031F026821F0C00156
:1030200042E803134BB1016851E8031F026821F025
:10303000C00142E80313002BDAD1202180F84110AF
:103040000168496990F84220222A40F07D8011F001
:10305000400179D00021C185016851E8031F026851
:1030600021F4907142E80313BBB3016851E8031FD8
:10307000026821F4907142E8031373B3016851E8C8
:10308000031F026821F4907142E803132BB3016817
:1030900051E8031F026821F4907142E80313002BEA
:1030A000DAD11AE0016851E8051F026821F0010138
:1030B00042E80513DBB1016851E8051F026821F001
:1030C000010142E8051393B1016851E8051F026848
:1030D00021F0010142E805134BB1016851E8051FD9
:1030E000026821F0010142E80513002BDAD1016BDF
:1030F000012924D1016851E8031F026821F0100161
:1031000042E80313DBB1016851E8031F026821F0B4
:10311000100142E8031393B1016851E8031F0268EC
:1031200021F0100142E803134BB1016851E8031F7D
:10313000026821F0100142E80313002BDAD12021AC
:1031400080F8421000210163416C41F0100141649C
:10315000FEF7A8BE0168806B0968C90500F19F8071
:103160000021C185016851E8031F026821F48071C4
:1031700042E80313E3B1016851E8031F026821F438
:10318000807142E803139BB1016851E8031F026894
:1031900021F4807142E8031353B1016851E8031F21
:1031A000026821F4807142E80313002BDAD100BFDA
:1031B000016851E8051F026821F0010142E805138A
:1031C000BBB3016851E8051F026821F0010142E824
:1031D000051373B3016851E8051F026821F001016E
:1031E00042E805132BB3016851E8051F026821F07E
:1031F000010142E80513002BDAD11AE0016851E819
:10320000051F026821F0400142E80513DBB10168A7
:1032100051E8051F026821F0400142E8051393B10F
:10322000016851E8051F026821F0400142E80513DA
:103230004BB1016851E8051F026821F0400142E8E6
:103240000513002BDAD1202180F84210016B0129EF
:1032500025D100BF016851E8031F026821F0100169
:1032600042E80313DBB1016851E8031F026821F053
:10327000100142E8031393B1016851E8031F02688B
:1032800021F0100142E803134BB1016851E8031F1C
:10329000026821F0100142E80313002BDAD100216B
:1032A0004163016B012918BFFFF752BA818DFEF708
:1032B000F7BD0000806B01214163016B012918BF3C
:1032C000FFF748BA818D4908FEF7EABD81B090F852
:1032D0004210222921D183680246B3F5805F09D1CB
:1032E00052F8281F52F8183C002B63D003685B6823
:1032F0000AE000BF52F8281F13B90369002BF5D06C
:1033000003685B6803F07F030B7011680131116083
:10331000C18D01390A04C18502D001B0704700BFD8
:103320000168CA6822F02002CA60CA6822F480726A
:10333000CA604A6922F001024A61202180F84210E5
:1033400000214163026B012A3CD10163016851E80D
:10335000031F026821F0100142E80313DBB101688A
:1033600051E8031F026821F0100142E8031393B1F2
:10337000016851E8031F026821F0100142E80313BD
:103380004BB1016851E8031F026821F0100142E8C7
:103390000313002BDAD101680A68D20606D5002291
:1033A00000920A680092496800910099818D01B0ED
:1033B000FEF776BD026852686FF35F2221F8022B98
:1033C0008162A5E701B0FFF7C3B90000B0B50446BC
:1033D000006804F108030ECB0569194325F4405534
:1033E0002A4302616269E3691143C268194349F2E1
:1033F0000C639A431143C1604169A26921F4407191
:1034000041F20043114340F48062C4F201039A4246
:10341000416103D1FEF7E0F902E000BFFEF7C8F911
:10342000E1694FF69C7563681922C0F6FF75B1F526
:10343000004FA0FB02011FD15A00DB0FFCF72AFF4F
:1034400048F21F51C5F2EB11A0FB01235A0905F107
:10345000805302FB0300322303EBC000A0FB0101F9
:103460004FF4F87000EA111000EB0210C1F34211A2
:10347000084421688860B0BD9A009B0FFCF70AFFE2
:1034800048F21F51C5F2EB11A0FB01235A0902FBC0
:103490000500322303EB0010A0FB0101F02000EA3D
:1034A000511000EB0210C1F34311084421688860F9
:1034B000B0BD000040F25820C2F20000FEF7F4BC9C
:1034C0002DE9F04182B040F2A020C2F20000006875
:1034D0000168890600F1808044F60001C4F2000111
:1034E0000968C90640F1F680002100910168242393
:1034F000009140680090009840F2B010C2F20000C5
:10350000006801680268090322F001020260426853
:10351000436091B26AD40268122942F40022026028
:10352000026842F00102026040F0D48040F22810AC
:10353000C2F20000817DC27DC57D067E047E477E8D
:1035400090F81A8090F81AE090F81BC0C37E52429F
:10355000C1EB0221C3F301128272C37EEA089B0908
:10356000C372037F457F66F34A1243EA05238381D2
:10357000837FC57FBE0043EA0523C38190F82030D6
:1035800090F8215046EA941443EA0523038290F808
:1035900022306FF3DF21837490F82330A1F580612E
:1035A000C37490F8243090F8256068F38A2443EAC5
:1035B0000623838290F8263090F827604FEA5E0752
:1035C0000180A2F580616CF3CA1743EA06234180AB
:1035D000A4F5806177E000BF0021019101680191AD
:1035E00040680190019802B0BDE8F08146F22802DF
:1035F000C4F202021368122923F400231360026844
:1036000042F00102026065D140F22810C2F20000CF
:1036100090F83A1090F83B2090F83B5090F83C60BE
:1036200090F83C8090F83D7090F83EE090F83E4075
:1036300090F83FC090F83F305242C1EB0221C3F3F3
:103640000112827290F83F30EA089B09C37290F829
:10365000403090F8415066F34A1243EA05238381D3
:1036600090F8423090F84350BE0043EA0523C381EE
:1036700090F8443090F845506FF3DF2143EA05237A
:10368000038290F8463046EA9816837490F84730E3
:10369000A1F58061C37490F8483090F849506EF3FA
:1036A0008A2643EA0523838290F84A3090F84B50EB
:1036B00067080180A2F580616CF3CA1743EA05230D
:1036C0004180A6F580618180A7F58061C180A3F566
:1036D0008061018102B0BDE8F0810000FEE70000DA
:1036E00070B58AB044F22000009044F2400001908E
:1036F00044F2600040F28814002602904FF48140AA
:10370000C2F200040125CDE903066946204608956A
:10371000069507960596FCF77DFF44F2A000009001
:1037200044F2C000019044F2E00002904FF4824065
:1037300003900220CDE90450694620460895CDE962
:103740000666FCF767FF2046FDF706FB20461221C0
:10375000FCF7F6FE0AB070BDFDF778FEFFF72EFB12
:10376000FFF764F9FFF746F9FFF724F9FFF7D4F9FB
:10377000FFF7B2F900F088F840F2700440F2A0259B
:10378000C2F20004C2F2000504F108012846122228
:10379000FEF728FF2868C16841F01001C160FFF7FB
:1037A0009FFF40F21035C2F20005DFED250A9FEDC4
:1037B000251ADFED251A9FED252AB0EE080A2846C6
:1037C000002100F047F840F2E82940F20008C2F278
:1037D00000099FED1F8AC4F2FA3809F10A0609F1BF
:1037E000140700BFB9F90200F0EE480A00EE100A13
:1037F000B8EEC00A2846C4F82C80C4F83080FFF721
:10380000B3F9B9F90C10BDEEC00A10EE100A00EEC3
:10381000101AD4ED0C0A2080B8EEC00A2846FFF733
:10382000A3F9BDEEC00A10EE100A608028462146BA
:1038300032463B46FEF794FF2046FCF743FED1E7B5
:10384000CDCCCC3D0000000000401C4600007A4476
:103850000000FA43002808BF704780B5421C00F8FA
:10386000151B10EE101A116010EE901A516011EE37
:10387000101A916011EE901AD16012EE101A1161B7
:103880003021FCF77FFD80BD40F22811C2F200011B
:1038900001F116003A312422FFF728BA21F0004244
:1038A00001F00043A2F16052B2F5801F28BFD2F1AF
:1038B0007F6C0BD95FEA001C43EAC20242EB5070F6
:1038C00018BF704728BF20F001007047B2F5801F75
:1038D000BCBF184670474FEA410C1CF5001F02D2CE
:1038E000084600F08CBA70B500F028FA0000008994
:1038F000FFF7F6BF4FF00040A0F5800070470000D2
:103900002DE9C04130B4DFF8A8C23CEA111418BF59
:103910003CEA131400F0F0801CEA111481EA03055C
:1039200044EAD57418BF1CEA131500F0CB80A4EB51
:10393000050404F17F7404F500344FF0004545EAB6
:10394000C12145EAC32341EA505143EA52534FEAA9
:10395000C0204FEAC222994208BF904200F0A080E6
:103960004FEA13650FF24816765D4FEA134506FBE2
:1039700005F7C7F1807706FB07F74FEAD737A7FBB4
:1039800003687642A7FB06CEC8F5803838BFA8F199
:10399000010807FB08E6A6FB028C4FF0000EE6FBD1
:1039A00003CED8F100086FEA0C0C5CF1000C6FEA52
:1039B0000E0E4EF1004EA6FB0C584FF00007E6FB32
:1039C0000E87A1FB08C6A0FB07CE16EB0E064FF034
:1039D000000545F10005E1FB076515F1E04E7EBFEE
:1039E000A4F580345FEA46066D4116F1800745F183
:1039F00000054FEA172747EA05674FEA15254FEA02
:103A00000666A6F1DE46B6F1805F20D9384605EBA2
:103A1000C47124F0010C01EB0C11BCF1FE6F02D853
:103A2000F0BCBDE8008124425CBF01F5801E9EEA27
:103A3000C47F02D4F0BCBDE80081244200F139808B
:103A4000A1F1C041F0BCBDE8004100F0C5B94FEAAA
:103A5000D02040EA41504FEAD1214FEAD22242EA37
:103A600043524FEAD323A7FB028607FB036605FBFD
:103A700002661EEA0E0F58BFA6EB0056B6EB0056C4
:103A80004FEA520E4EEAC37E18EB0E0E56EB530E63
:103A9000BCD518EB02085E417F1C55F10005B5E767
:103AA0004FF480154FF000074FF000064FF000086C
:103AB000ACE701F1C04101F000414FF00000F0BC63
:103AC000BDE800810CEA131511EA0C1F00D00CE0D0
:103AD00013EA0C1F00F025804FF0000081EA03017B
:103AE00001F00041F0BCBDE80081F0BCBDE8004140
:103AF00081EA030100F070B9F0BCBDE8004170B587
:103B000000F01CF9097EFC3E00F007B84FF0000001
:103B100081EA030101F00041704781EA030100F0EE
:103B20005BB9F0BCBDE8004122494FF0000070478E
:103B3000FFFDFBF9F7F5F4F2F0EEEDEBE9E8E6E472
:103B4000E3E1E0DEDDDBDAD8D7D5D4D3D1D0CFCDF9
:103B5000CCCBCAC8C7C6C5C4C2C1C0BFBEBDBCBB32
:103B6000BAB9B8B7B6B5B4B3B2B1B0AFAEADACAB2D
:103B7000AAA9A8A8A7A6A5A4A3A3A2A1A09F9F9E07
:103B80009D9C9C9B9A9999989797969595949393B9
:103B9000929191908F8F8E8E8D8C8C8B8B8A898950
:103BA00088888787868585848483838282818180D3
:103BB0000000FF070000F87F10F0004248BF4042BD
:103BC000B0FA80F310FA03F10AD0C3F11D0303F534
:103BD000806302EB03524FEA415002EBD121704760
:103BE0004FF000007047000070B5DFF848C11CEAD4
:103BF000111E1EBF1CEA13159EEA0C0F95EA0C0F4E
:103C000000F06F8081EA03044EEAD47EAE4421EADC
:103C10004C1123EA4C1341F4801143F48013AEF1AC
:103C20007F7EA1FB024CA0FB0365361955EB0C050A
:103C3000A1FB034C4CF10003A0FB021C16EB0C068D
:103C4000654153F10003094218BF46F0010613F421
:103C5000007F0BD14FEA03314FEA053041EA15519D
:103C600040EA165034036FF003020AE04FEAC32122
:103C70004FEAC52041EA555140EA5650F4026FF030
:103C8000020202EB2E4201EB025585EACE710AD008
:103C90005FEA440C18BF24F0004450F1000041F1E9
:103CA000000120EAD47040F2FE7C624500D270BD73
:103CB000A84214BF4FF080444FF04044002E08BF8C
:103CC0000024BEF1806FA8BFA1F1C041BDE87040E3
:103CD00080F2828001F1C04101F000414FF000000C
:103CE00070470CEA13159EEA0C0F18BF95EA0C0FEB
:103CF00006D081EA030E4FF000000EF0004170BDC7
:103D000000F01CF88900013E00F007B800F009B887
:103D10004FEA430C5FEA5C5C08D081EA030100F0E3
:103D20005BB84FEA410C5FEA5C5CF6D102494FF0A8
:103D3000000070470000FF070000F87F0EF1020E40
:103D40002EF0030E5EF8046B364205D4012A43EBD5
:103D5000030515F5001F12D8012841EB010C1CF5D5
:103D6000001F0CD80ED14FEAD17C0CEB4C0C0CF19F
:103D7000020C15F5001F08BF4CEBD37C04E04FF09C
:103D8000080C01E04FEAD37C0CEB4C0526FA05F653
:103D900006F00706B6F1040C06D20EEB860CBDE861
:103DA00070404CF0010C6047DFE80CF0090B020298
:103DB0004FF00041A1F500214FF0000070BD194601
:103DC0001046012851EB010418BFD4F5001484BF3C
:103DD000002001F0004170BD0808A0F500114FEA75
:103DE00031017047F1EE100A4FF6FF71C0F2C03199
:103DF00020EA010040F04070E1EE100A7047FF2118
:103E000041EAD050C00570470000000000000000EB
:103E10000102030406070809000000000102030470
:103E20000006101600061016483E0008000000208C
:103E300010000000EC010008583E000810000020AF
:103E4000500900000C0200080100000010000000F2
:083E50000024F4000000000052
:040000050800018965
:00000001FF
