:020000040800F2
:100000003809002029020008952A0008F526000872
:10001000912A0008650400082D3600080000000041
:10002000000000000000000000000000FD2C00089F
:100030000905000800000000312C0008012D00080F
:10004000430200084302000843020008430200087C
:10005000430200084302000843020008430200086C
:10006000430200084302000843020008430200085C
:10007000FD04000843020008430200084302000890
:100080004302000843020008430200088D040008F0
:100090006904000875040008810400084302000890
:1000A000430200084302000843020008430200081C
:1000B000430200084302000843020008430200080C
:1000C00043020008430200084302000843020008FC
:1000D00043020008FD330008430200080934000809
:1000E00043020008430200084302000843020008DC
:1000F00043020008430200084302000843020008CC
:1001000043020008430200084302000843020008BB
:10011000430200084302000843020008C12D000802
:10012000430200084302000843020008430200089B
:10013000430200084302000843020008430200088B
:10014000430200084302000843020008430200087B
:10015000430200084302000843020008430200086B
:10016000430200084302000843020008430200085B
:100170004302000843020008430200080000000098
:10018000430200084302000800F002F800F03CF8C7
:100190000AA090E8000C82448344AAF10107DA45E2
:1001A00001D100F031F8AFF2090EBAE80F0013F0F8
:1001B000010F18BFFB1A43F001031847603B000012
:1001C000803B0000103A24BF78C878C1FAD85207A3
:1001D00024BF30C830C144BF04680C6070470000C1
:1001E0000023002400250026103A28BF78C1FBD840
:1001F000520728BF30C148BF0B6070471FB503F0DE
:100200006BFD1FBD10B510BD00F0F2F81146FFF7F1
:10021000F5FF03F049FA00F010F903B4FFF7F2FF1D
:1002200003BC00F017F9000009488047094800475F
:10023000FEE7FEE7FEE7FEE7FEE7FEE7FEE7FEE796
:10024000FEE7FEE704480549054A064B70470000F3
:10025000AD2D00088901000838030020380900206E
:10026000380500203805002053EA020C00F06980B0
:100270002DE9F04B4FF00006002B1FBFB3FA83F5BA
:1002800003FA05F424FA05F65E4012BF1643B2FAEB
:1002900082F502FA05F4C5F120051EBF22FA05FC1D
:1002A00044EA0C04203556EA044C4FEA144418BFC3
:1002B000641C4FF000084FF00009904271EB030CF2
:1002C00039D3002919BFB1FA81F701FA07F6B0FA5C
:1002D00080F700FA07F6C7F120071EBF20FA07FCD7
:1002E00046EA0C062037B6FBF4FCA7EB0507103FE7
:1002F00007F01F0BCBF120062CFA06F60CFA0BFBCD
:1003000044BFB3460026202FA4BF5E464FF0000B2B
:100310005BEA060C08BF4FF0010B19EB0B0948EB29
:100320000608ABFB027C06FB02CC0BFB03CCC01B1C
:1003300071EB0C01C1E70B46024641464846BDE859
:10034000F08B13B5084318BF4FF0FF300146AFF3F1
:100350000080BDE81C4070474FF000020429C0F047
:10036000128010F0030C00F01E80CCF1040CBCF1E4
:10037000020F18BF00F8012BA8BF20F8022BA1EB39
:100380000C0100F010B85FEAC17C24BF00F8012B1B
:1003900000F8012B48BF00F8012B704770477047E9
:1003A00070474FF0000200B5134694469646203938
:1003B00022BFA0E80C50A0E80C50B1F12001BFF41E
:1003C000F7AF090728BFA0E80C5048BF0CC05DF884
:1003D00004EB890028BF40F8042B08BF704748BFD2
:1003E00020F8022B11F0804F18BF00F8012B704746
:1003F000754600F02BF8AE4605006946534620F0DE
:100400000700854618B020B5FFF71CFFBDE8204067
:100410004FF000064FF000074FF000084FF0000BC0
:10042000AC46ACE8C009ACE8C009ACE8C009ACE82F
:10043000C00921F007018D46704710B50446AFF39F
:1004400000802046BDE81040FFF7E7BE0048704737
:100450001000002001491820ABBEFEE72600020074
:1004600070470000FEE7000040F2AC10C2F200004E
:1004700000F0C6B940F2AC10C2F2000000F0C0B902
:1004800040F2AC10C2F2000000F0BAB940F2AC1079
:10049000C2F2000000F0B4B980B582B0417840F2F9
:1004A000D002C2F2000202F80C1F037840F2FF1CD7
:1004B0005370C37811469370837841F830CFD3706E
:1004C00043794FF0000C13710379C2F838C05371AF
:1004D000C379C2F83CC0937180794FF0080CD07199
:1004E00040F2AC10C2F2000001ABC2F840C000F014
:1004F00029F8012000F090FE02B080BD40F2D41037
:10050000C2F2000000F0A6BC7047000072B600BF47
:10051000FEE7000090F82020013A012A08D8006880
:1005200000F114020020136819431160704700BFE6
:1005300000F1240201204FF4802113681943116057
:100540007047000010B590F820E0D0F800C0AEF180
:10055000010EBEF1010FDCF808E00FD81EF0E05FDD
:1005600016D0CEF3016E012000FA0EF018608B68F1
:10057000C3B1486843EAC00316E000BF00F124019C
:1005800001204FF480220B681A430A6010BD00BF9F
:1005900000F1240101204FF400120B681A430A6095
:1005A00010BD00BF08684305D1E9030403430CEB09
:1005B0000E10C0F88031C0F88441097D012905D1B1
:1005C00000F5C2710B6843F480730B605168C0F88A
:1005D0008C11126800F5C071C0F88821002001223A
:1005E0000B681A430A6010BDB0B590F82020013A9C
:1005F000012A2FD846F20060C4F20000026842F0DF
:1006000001020260026822F47C520260D1F814E018
:10061000CC694A6A0368012C43EA022202600EF0A8
:100620001F024FF0010303FA02F2C3696FEA020CE2
:1006300023EA0203C36113D02CBBC36803EA0C0393
:10064000C360CB688C8844EA034300EBCE04236488
:100650000B4611E0416A41F4802141620120B0BDA6
:10066000C3681343C3600B688C8844EA034300EB00
:10067000CE04236401F10C038C681B8843EA044315
:1006800000EBCE04636443688D6943EA0204D1F849
:1006900010E0096A002D08BF03EA0C0444604369B6
:1006A000BEF1000F43EA020408BF03EA0C0401296B
:1006B000446102D1C1691143C161016821F00101A6
:1006C00001600020B0BD00007047000010B590F838
:1006D0002040013C012C7BD8D0F800C0002900F05C
:1006E0008180DCF81040A40700F081800CEB011C35
:1006F000DCF8B0410CF5D87E14F004049460DCF80A
:10070000B04119BFE4085460640D1460DEF8004085
:100710000CF5DA7E04F00204D460DCF8B44124075E
:100720005ABFDEF8004004F00F0408241461DEF81C
:1007300000400029C4F307249461DEF800404FEA2A
:1007400014445461DCF8B8211A70026802EB0112FB
:10075000D2F8B8214FEA12225A70026802EB011255
:10076000D2F8B8214FEA12429A70026802EB0112E5
:10077000D2F8B8214FEA1262DA70026802EB011275
:10078000D2F8BC211A71026802EB0112D2F8BC2126
:100790004FEA12225A71026802EB0112D2F8BC2110
:1007A0004FEA12429A71026802EB0112D2F8BC21A0
:1007B0004FEA1262DA71006814BF00F1100100F113
:1007C0000C01002020220B681A430A6010BD00BFF4
:1007D00000F1240101204FF480220B681A430A60C3
:1007E00010BD00BFDCF80C40A4077FF47FAF00F120
:1007F000240101204FF400120B681A430A6010BD57
:100800002DE9F04F81B0044600684669D0F80490A5
:100810008768D0F80CB0D0F810A0D0F81880F10795
:1008200004D1002530071DD424E000BFF90710D003
:100830000121BA07816009D4780700F1AF80380739
:1008400000F1B680204600F09BFA02E0204600F05E
:1008500099FA0025F80500F18780F80300F1B180CE
:10086000300707D51BF0100004D0206845F4007550
:100870001021C160700708D51BF0080005D0206862
:100880000821C160204600F0B9F9B00706D52068FC
:10089000C068800702D0204600F0B2F9700607D584
:1008A0001AF0100004D0206845F480651021016121
:1008B000B00608D51AF0080005D0206808210161AB
:1008C000204600F0E3F9F00606D5206800698007AD
:1008D00002D0204600F0DCF9B00308D519F0100072
:1008E00005D0206810214160204600F019FAF0037D
:1008F00008D519F0080005D020680821416020467D
:1009000000F04AFA300440F19B805FEA497040F100
:10091000948006F4807008EA102028435FEA88710A
:10092000014648BF41F00201B20558BF01465FEAE7
:1009300048700D4648BF45F00405700558BF0D4688
:10094000300540F17A8018F0700000F076801038A1
:10095000000905286CD8DFE800F003595D6165697E
:1009600045F0080564E000BF20684FF48071BA05C7
:1009700081600BD4780515D438051DD4204600F0CD
:1009800003FAF8037FF56CAF1BE000BF204600F0D0
:10099000FDF9F8037FF564AF13E000BF4FF4006585
:1009A00058E700BF05F50055F8037FF559AF08E09B
:1009B0004FF480554EE700BF05F58045F8037FF5FD
:1009C0004FAF20684FF48031BA0381600AD47803B6
:1009D00010D4380314D4204600F0DAF930073FF57C
:1009E00041AF47E7204600F0D5F930073FF53AAF71
:1009F00040E700BF05F5004530073FF533AF39E765
:100A000005F5803530073FF52DAF33E745F010058C
:100A10000EE000BF45F020050AE000BF45F04005AC
:100A200006E000BF45F0800502E000BF45F4807598
:100A30002068816921F07001816120680421416092
:100A400055B1606A40EA05012046616201B0BDE827
:100A5000F04FFFF739BE00BF01B0BDE8F08F0000D6
:100A6000B0B5C8B1044690F8200010B9204600F097
:100A700071F82068016841F00101016000F0C4FCD8
:100A8000054600BF20684168C90707D100F0BCFCDB
:100A9000401B0B28F6D312E00120B0BD016821F005
:100AA0000201016000F0B0FC054600BF206841680B
:100AB00089070DD500F0A8FC401B0B28F6D3606A0F
:100AC000052140F400306062012084F82010B0BDA0
:100AD000217E0268012922F0800208BF8032026074
:100AE000617E0268012922F0400208BF40320260A4
:100AF000A17E0268012922F0200208BF2032026094
:100B0000E17E0268012922F0100218BF1032026053
:100B1000217F0268012922F0080208BF0832026022
:100B2000617F0268012922F0040208BF04320260DA
:100B3000D4E901C2D4E9033561691A432A43114358
:100B4000ACF101021143C16100200121606284F80F
:100B50002010B0BD80B586B0016846F20040C4F2F6
:100B60000000814202D006B080BD00BF002143F6E4
:100B700030020191C4F20202136900F5D43043F04F
:100B800000731361136903F000730193019B0191DA
:100B9000136843F0080313601268022302F008028E
:100BA0000192019ACDE9023109210322059101A99F
:100BB0000192049200F044FB13200021002200F077
:100BC000DDFC132000F0CAFC14200021002200F0FC
:100BD000D5FC142000F0C2FC15200021002200F0FA
:100BE000CDFC152000F0BAFC16200021002200F0F8
:100BF000C5FC162000F0B2FC06B080BD70470000B6
:100C000010B588B040F2D004C2F2000440F2AC103B
:100C100004F11403C2F2000001AA0021FFF756FDFF
:100C20000198A0F2012103292AD80138C2B2A18A71
:100C3000920052FA80F0E28A09BA090C12BA04EB67
:100C40004000120C00EE101A9FED0E1AA0F856206C
:100C5000228BB8EE400A20EE010A9FED0B1A12BA61
:100C6000120C20EE010AA0F85820A27EBDEEC00AA8
:100C7000A0F8541010EE101A80F85A20A0F85C105A
:100C800008B010BD000000390000B44370470000F8
:100C900010B588B040F2D004C2F2000440F2AC10AB
:100CA00004F11C03C2F2000001AA0121FFF70EFDAE
:100CB0000198A0F2052103292BD8A18BFB30C2B2E9
:100CC00009BA9200090C52FA80F040F20C32E38B20
:100CD000C2F2000200EE101A9FED0F1A22F8101057
:100CE00002EB40001ABA238CB8EE400A120C20EE38
:100CF000010A9FED0A1A42801ABA120C20EE010A6C
:100D0000828094F82220BDEEC00A10EE101A827183
:100D1000018108B010BD00BF000000390000B443DD
:100D200070470000B0B5044690F8200001281DD19E
:100D3000022084F820002068016821F00101016090
:100D400000F062FB054600BF20684068C00713D072
:100D500000F05AFB401B0B28F6D3606A40F40030C9
:100D60006062052084F820000120B0BD606A40F474
:100D7000002060620120B0BD00206062B0BD0000B4
:100D80007047000070470000704700007047000087
:100D900070470000704700007047000070B5866D16
:100DA000044600F031FB94F8351002292ED1054697
:100DB0002068216C026822F016020260426922F06B
:100DC0008002426109B9A16C19B1016821F00801E2
:100DD0000160016821F0010101600068C00708D0CE
:100DE00000F012FB401B052818D820680068C007D7
:100DF000F6D1E06D3F2101FA00F0B060012084F8E7
:100E000035000020002184F8341070BD802060651A
:100E10000120002184F8341070BD00BF20206065DF
:100E2000032084F83500002184F8341070BD0000E0
:100E300090F83510022909D1052180F83510006895
:100E4000016821F0010101600020704780214165A7
:100E500001207047F0B581B004460020009040F2B8
:100E60000800C2F200000268D4E9166048F2B51327
:100E700037680821C1F64E3381403942A2FB032571
:100E80000CD0226813685B0708D5136823F00403AD
:100E90001360B160616D41F0010161650121814024
:100EA000394208D022685269120604D5B160616DDA
:100EB00041F00201616504218140394208D0226875
:100EC0001268920704D5B160616D41F0040161655B
:100ED00010218140394217D020680268120713D5CB
:100EE000B16002680168520308D4C90508D40168DA
:100EF00021F008010160216C21B905E008033FD40D
:100F0000216C09B120468847E16D202000FA01F2EA
:100F10003A4241D020680368DB063DD5B26094F8C0
:100F200035300268052B1BD122F01602026042699F
:100F300022F080024261226C0AB9A26C1AB10268E6
:100F400022F0080202603F208840B060012084F84F
:100F50003500216D0020002984F8340052D157E07B
:100F60000168520310D4C90512D4016821F01001A0
:100F70000160012084F83500002084F8340007E087
:100F8000A16C0029BED1BFE7080301D4616C00E069
:100F9000E16B09B120468847606DC8B3606DC0073A
:100FA0002ED0052084F835002068A90A026822F0B6
:100FB00001020260009A01328A4200921AD8026845
:100FC000D20717D0009A01328A42009212D80268E2
:100FD000D2070FD0009A01328A4200920AD80268E2
:100FE000D20707D0009A01328A42009202D80268E2
:100FF000D207DFD1012084F83500002084F83400C6
:10100000E16C29B1204601B0BDE8F040084700BFBF
:1010100001B0F0BD2DE9F041044600F0F5F9002CD7
:101020004ED00546022084F835000020216884F85F
:101030003400086820F0010008600868C00708D084
:1010400000F0E2F9401B05286CD821680868C00749
:10105000F6D1086848F23F02CFF21002D4E9013518
:10106000024004F10C0E9EE8C1511A432A4310437A
:101070003043384340EA0800626A40EA0C00042A20
:1010800040EA0E0320D1D4E90A5E206B4EEA030247
:10109000104308604869BEF1000F20F0030040EAE9
:1010A000050040F0040C15D0B8F5005F42D0B8F14F
:1010B000000F51D1022D52D0012D47D055B94EE02D
:1010C0000120BDE8F08100BF0B60486920F00700F7
:1010D00040EA020C6FF00F004AF6AB2250FA81F0A2
:1010E000CAF6AA22A0FB02231A0943F61453C0F63B
:1010F00000039A5C40F2FF335F284FF03F00C1F8D5
:1011000014C021EA030100FA02F088BF0431C4E9E7
:1011100016128860002301220020636584F83520C0
:10112000BDE8F081032220230320636584F8352085
:10113000BDE8F081032DCDD8012240230120DFE856
:1011400005F0030E030500BFE7E700BFAEF1C07076
:10115000B0FA80F0400904E0032D04D3BAD1CEF3F5
:1011600000600028B6D0012240230120636584F886
:101170003520BDE8F081000070B590F834C0BCF1B6
:10118000010F46D04FF0010C80F834C0D0F858E081
:1011900090F835C0BCF1010F38D14FF0020C80F847
:1011A00035C04FF0000CC0F854C0D0F800C08468BF
:1011B000056CC06DDCF80060402C26F48026CCF86D
:1011C0000060CCF804300B4604BF13460A463F21AA
:1011D00001FA00F0CCF80830CCF80C20CEF808006A
:1011E000DCF8000040F01600CCF800002DB1DCF86F
:1011F000000040F00800CCF80000DCF8000040F0EF
:101200000100CCF80000002070BD00BF002180F874
:101210003410022070BD0000B0B5044600F0F4F8B0
:10122000054640F20000C2F200000078611C18BFC1
:10123000044400BF00F0E8F8401BA042FAD3B0BD60
:101240002DE9F04F82B000F13E4241F6004502F137
:10125000FF77C4F2020508224FEAB726A84208BF6A
:101260000722072E38BF4FEAB7224FF0010A0024A9
:1012700000274FF00008009208E000BF023708F195
:101280000108202F04F1040400F0B4800E680AFA6B
:1012900008F916EA090FF1D0D1F804A00AF0030BFF
:1012A000ABF10106012E17D80322866802FA07FE69
:1012B000CA6826EA0E06BA40324382604268CAF320
:1012C000001522EA090205FA08F54FEA480C6FEA10
:1012D0000E062A4342600BE00322BA40D643BBF11C
:1012E000030FBC4604D1BC464FF0030B22E000BF05
:1012F000C2688D68324005FA0CF52A43BBF1020F33
:10130000C26017D16FF0030202EA5802024404F0EF
:101310001C030F25D2F820E005FA03FA0D692EEA26
:101320000A0E05FA03F343EA0E031362D1F804A090
:101330000AF0030B02680BFA0CF332401A431AF45A
:10134000403F4FF0010A026098D0002243F6440368
:101350000192C4F202031A6843F6004E42F480423E
:101360001A601A68C4F2010E02F480420192019AD6
:1013700028F003024FF6084C7244CFF6FF7C52F877
:101380000C3004F00C060F25B540AB43009D05FA68
:1013900006F6334342F80C30DEF808204B6842EA88
:1013A000090643F60C4CDD0258BF22EA0906CEF8C6
:1013B0000860C4F2010CDCF800209D0242EA090634
:1013C00058BF22EA0906CCF80060DEF804209D032D
:1013D00042EA090658BF22EA0906CEF80460DEF8A0
:1013E0000020DB0342EA090658BF22EA0906CEF8CC
:1013F000006043E702B0BDE8F08F0000002A08BF9C
:10140000090481617047000040F23430C2F20000EC
:101410000068704740F2000040F23431C2F2000030
:10142000C2F2000100780A681044086070470000AA
:1014300080B543F60040C4F20200016841F4007137
:101440000160016841F480610160016841F48071CC
:101450000160032000F0BEF80F2000F005F800F056
:1014600061F8002080BD000070B586B0002543F60D
:1014700040010195C4F202010A68044642F02002CC
:101480000A60096801A801F02001019101996946EB
:1014900000F060F9049E002E18BF012600F07AF9D2
:1014A0004DF68361B040C4F21B31A0FB01014FF047
:1014B000FF3000EB914140F2342041F20042C2F291
:1014C0000000C4F2000240F2E733C0E90021C0E9A5
:1014D00002530561856100F07BFB054610B128468B
:1014E00006B070BD40F23420C2F2000000F0A0FB54
:1014F00005460028F3D1372000F030F80F2C0DD826
:10150000372021460022002500F038F840F2040080
:10151000C2F200000460284606B070BD01252846CE
:1015200006B070BD82B0002043F640010190C4F2C5
:1015300002014A6842F480424A604A6802F48042EA
:101540000192019A0090086840F080500860086895
:1015500000F080500090009802B07047002848BF0B
:10156000704700F01F01012202FA01F14EF2001251
:101570004009CEF2000242F82010704710B54EF636
:101580000C5CCEF2000CDCF80030C3F3022E8EF0BF
:101590000704042C28BF0424BEF103034FF0FF3ED0
:1015A0000EFA04F438BF0023A14399400EFA03F366
:1015B0009A43114300F00F02043A624409010C32CD
:1015C00000F16043B0F1FF3FC8BF03F56442117002
:1015D00010BD00004EF60C51CEF200010A684FF625
:1015E000FF031A4060F30A2242F0806040F0FD7071
:1015F000086070472DE9F041002800F08B8043F629
:101600000808C4F202080446D8F8F8030D4600F0B2
:101610000700884207D288F8F853D8F8F80300F09A
:101620000700A84276D12068810717D5410705D564
:10163000D8F8001041F4E051C8F80010010705D5B2
:10164000D8F8001041F46041C8F80010D8F8001034
:10165000A26821F0F0011143C8F80010C0073FD183
:10166000D8F8F80300F00700A84207D988F8F85323
:10167000D8F8F80300F00700A8424BD120684107D2
:1016800007D5D8F80010E26821F4E0511143C8F8FA
:101690000010000708D5D8F80000216920F4604048
:1016A00040EAC100C8F8000000F09CF8D8F800102B
:1016B00043F6FC42C1F30311C0F60002515C40F254
:1016C000080220FA01F140F20400C2F200000068B2
:1016D000C2F200021160FFF7C7FE0020BDE8F081F2
:1016E0006068811E022907D258F8081C89015CBF76
:1016F0000120BDE8F08111E0012807D158F8081C4D
:1017000089035CBF0120BDE8F08107E058F8081CA0
:10171000890703D40120BDE8F08100BFD8F800108C
:1017200021F003010843C8F80000FFF76DFE0646EC
:1017300041F28837D8F80000616800F00C00B0EB87
:10174000810F8DD0FFF760FE801BB842F2D90320D5
:10175000BDE8F0810F22026043F60802C4F20202E3
:10176000136803F003034360136803F0F00383601E
:10177000136803F4E053C360D2F800C04FF4E053A1
:1017800003EADC030361D2F8F80300F00700086005
:101790007047000040F2080043F60801C2F2000062
:1017A000C4F202010068096843F60C52C1F38221B9
:1017B000C0F60002515CC8407047000040F20800CB
:1017C00043F60801C2F20000C4F202010068096891
:1017D00043F60C52C1F34231C0F60002515CC840DE
:1017E0007047000010B543F60404C4F202046068B8
:1017F00000F00C0008280BD0042819BF42F200406A
:10180000C0F2F40041F60030C0F2B70010BD00BFD6
:10181000206821682368490241F60031C0F2B7010F
:1018200000F03F02C3F388105CBF42F20041C0F2F7
:10183000F401A1FB00010023FEF716FD216802223E
:10184000C1F3014102EB4101B0FBF1F010BD00001A
:101850002DE9F04182B000286AD00446007843F6B2
:101860000006C007C4F202060BD0B06800F00C00FE
:10187000042840F0A1803068800302D56068002809
:1018800056D0207880071AD5B06810F00C0F09D018
:10189000B06800F00C00082840F0A8807068400292
:1018A00000F1A4803068800702D5E06801283FD1AC
:1018B0003068216920F0F80040EAC10030602078EB
:1018C000000739D4207840074ED4A5695DB3B068CD
:1018D00000F00C00082840F0BD80012D28D0706871
:1018E000E16900F480028A4222D1216A00F03F02BD
:1018F0008A421DD147F6C071626A0140B1EB821F76
:1019000016D1A26A0023CFF6FF7303EBC23200F4B4
:1019100040316FF30F0291420AD1E16A00F070602A
:10192000B0EB016F04D1002002B0BDE8F08100BF30
:10193000012002B0BDE8F0816069002840F200009B
:10194000C4F2472076D00121C0F8801EFFF75CFD6D
:10195000054600BF706F8007B4D4FFF755FD401BEC
:101960000228F7D9DDE000BF306C10F080580AD1B2
:1019700000200190306C40F080503064306C00F0FA
:1019800080500190019847F20007C4F200073868C0
:10199000C00541D4386840F480703860FFF734FDEA
:1019A000054600BF3868C00536D4FFF72DFD401B43
:1019B0000228F7D9B5E000BFB06800F00C00082895
:1019C00003D1706840023FF556AF6068B0F5803FC4
:1019D00007D0B0F5A02F40F08D80306840F4802013
:1019E0003060306840F4803030608DE0E06800287E
:1019F00052D00020C4F2472001210160FFF704FD0E
:101A0000054600BF306880073FF552AFFFF7FCFC8A
:101A1000401B0228F6D984E0A068012805D00528DB
:101A20004ED1306F40F004003067306F40F001005D
:101A300030674FE00021C0F8801EFFF7E5FC054647
:101A4000706F80077FF53EAFFFF7DEFC401B02287A
:101A5000F6D966E00027C4F2472700203866FFF772
:101A6000D3FC022D05460BD1306880015ED5FFF70F
:101A7000CBFC401B02284FF00300F5D954E700BF10
:101A8000306880017FF54FAFFFF7BEFC401B022896
:101A90004FF00300F4D947E70020C4F247200021AB
:101AA0000160FFF7B1FC0546306880077FF507AF9E
:101AB000FFF7AAFC401B02284FF00300F4D933E7DC
:101AC000316F002821F001013167316F21F00401ED
:101AD00031674DD0FFF798FC054641F2883700BFCB
:101AE000306F800756D4FFF78FFC401BB842F7D900
:101AF00017E000BF3168002821F48031316031687F
:101B000021F4802131604FD0FFF77EFC054600BFF5
:101B1000306880033FF5B5AEFFF776FC401B6428C4
:101B2000F6D9032002B0BDE8F08100BF04F11C0526
:101B30002FCD08430021CFF6FF7140EA821001EB60
:101B4000C3316FF30F0140EA056008437060012064
:101B50003866FFF759FC0446306880013FF5E3AE74
:101B6000FFF752FC001B02284FF00300F4D9DBE61C
:101B7000FFF74AFC054641F2883700BF306F800707
:101B800008D5FFF741FC401BB8424FF00300F5D9E0
:101B9000CAE600BFB8F1000F7FF497AE306C20F0BA
:101BA0008050306491E600BFFFF72EFC054600BF71
:101BB000306880037FF565AEFFF726FC401B642884
:101BC0004FF00300F4D9AFE6704700007047000003
:101BD000002804BF0120704710B5044690F83D006E
:101BE00028B9002084F83C00204600F01FF80220AD
:101BF00084F83D002068211D01F0E8F8012084F8F8
:101C0000460084F83E0084F83F0084F8400084F8E1
:101C1000410084F8420084F8430084F8440084F8CA
:101C2000450084F83D00002010BD00007047000012
:101C300090F83D1001291CBF01207047022180F857
:101C40003D10006841F2FF72C168C4F20002904288
:101C500041F00101C1600DDC40F2FF71C4F20001EE
:101C6000884215DCB0F1804F2AD040F20041C4F226
:101C7000000123E040F2FF31C4F20101884213DC8D
:101C800041F60001C4F20001884219D0002113E09E
:101C900040F60001C4F20001884211D040F6004134
:101CA000C4F200010AE000BF44F20001C4F20101E5
:101CB000884205D040F20041C4F20101884206D1B9
:101CC000816801F00701062904BF00207047016800
:101CD00041F00101016000207047000070470000E2
:101CE00070B504460068C5680669B10716D515F0D9
:101CF000020113D06FF00201016101212177806997
:101D0000800703D02046FFF7E9FF05E0204600F0FA
:101D10008FF8204600F08EF800202077700719D544
:101D200015F0040016D020686FF004010161022153
:101D30002177806910F4407F04D02046FFF7CEFF62
:101D400006E000BF204600F073F8204600F072F86D
:101D500000202077300717D515F0080014D0206830
:101D60006FF00801016104212177C069800703D069
:101D70002046FFF7B3FF05E0204600F059F8204663
:101D800000F058F800202077F00619D515F0100063
:101D900016D020686FF01001016108212177C06919
:101DA00010F4407F04D02046FFF798FF06E000BF04
:101DB000204600F03DF8204600F03CF80020207757
:101DC000F00718BF15F0010002D1300609D412E067
:101DD00020686FF001010161204600F02DF8300607
:101DE00009D515F0800006D020686FF080010161F0
:101DF0002046FFF7E9FE700609D515F0400006D031
:101E000020686FF040010161204600F01FF8B00625
:101E100058BF70BD15F0200008D021686FF0200277
:101E200020460A61BDE87040FFF7D0BE70BD0000DB
:101E30007047000070470000006841F20041C4F2A2
:101E40000001884208BFFFF7E5BA704770470000FD
:101E50007047000070470000B0B582B004460068CB
:101E60000168C368426901F02F05202D03F02005A9
:101E700006D12DB1204602B0BDE8B04001F0CCB98A
:101E80005FEA017C1EBF02F0010E03F4907212EBB8
:101E90000E0255D1226B012A05D111F0100218BF94
:101EA00013F0100236D10A0622D513F080021FD09B
:101EB00094F84110212941D1A168B1F5805F03D187
:101EC0002169002900F07282216A4A1C2262097885
:101ED0004160E18C01390A04E1842FD1C16821F00D
:101EE0008001C160C16841F04001C16002B0B0BD75
:101EF000490623D513F0400120D0C16821F04001EC
:101F0000C1602021204684F8411002B0BDE8B040F5
:101F100000F0EEBB0021019101680191416801913F
:101F200001994169490600F18F80A18DE28DE38D11
:101F3000002B1CBF891A5FEA01420CD102B0B0BD70
:101F4000CA0718BF13F4807240F038814A0700F1C5
:101F50003B8140E1206850E8030F226820F4907034
:101F600042E80303DBB1206850E8030F226820F445
:101F7000907042E8030393B1206850E8030F226891
:101F800020F4907042E803034BB1206850E8030F3F
:101F9000226820F4907042E80303002BDAD1206815
:101FA00050E8050F226820F0010042E80503DBB18C
:101FB000206850E8050F226820F0010042E8050380
:101FC00093B1206850E8050F226820F0010042E834
:101FD00005034BB1206850E8050F226820F001008E
:101FE00042E80503002BDAD1202084F842000020CB
:101FF0002063206850E8030F226820F0100042E8B8
:102000000303DBB1206850E8030F226820F01000C2
:1020100042E8030393B1206850E8030F226820F0E0
:10202000100042E803034BB1206850E8030F226818
:1020300020F0100042E80303002BDAD1022289B21B
:1020400020466263B4E000BFE16B0A68526893B255
:10205000002B3FF473AFA58DAB42BFF46FAFE285A9
:10206000C969B1F5807F00F09C8050E8030F2168BA
:1020700020F4807041E80302E2B1206850E8030FC9
:10208000216820F4807041E803029AB1206850E88A
:10209000030F216820F4807041E8030252B12068E8
:1020A00050E8030F216820F4807041E803020AB170
:1020B0002068DAE7206850E8050F216820F0010069
:1020C00041E80502DAB1206850E8050F216820F0E8
:1020D000010041E8050292B1206850E8050F21682F
:1020E00020F0010041E805024AB1206850E8050FE0
:1020F000216820F0010041E80502002ADAD12068B9
:1021000050E8050F216820F0400041E80502DAB1EF
:10211000206850E8050F216820F0400041E80502E2
:1021200092B1206850E8050F216820F0400041E896
:1021300005024AB1206850E8050F216820F04000F0
:1021400041E80502002ADAD1202084F8420000206C
:102150002063206850E8030F216820F0100041E858
:102160000302DAB1206850E8030F216820F0100064
:1021700041E8030292B1206850E8030F216820F083
:10218000100041E803024AB1206850E8030F2168BB
:1021900020F0100041E80302002ADAD1E06BFEF7DC
:1021A000FDFD02206063A08DE18D401A81B22046C2
:1021B00002B0BDE8B040FFF74BBE00BF626C42F01A
:1021C000010262644A0706D5BEF1000F03D0626CBB
:1021D00042F0020262648A0706D5BEF1000F03D006
:1021E000626C42F004026264BCF1000F06D555EA4D
:1021F0000E0203D0626C42F008026264626C002A34
:102200003FF49CAE11F0200118BF002D03D02046F2
:1022100001F002F820684169626C01F0400102F0AF
:102220000802891800F0A28050E8030F216820F40A
:10223000907041E80302C2B3206850E8030F2168A0
:1022400020F4907041E803027AB3206850E8030F4D
:10225000216820F4907041E8030232B3206850E80E
:10226000030F216820F4907041E80302EAB120686E
:10227000DAE700BF206850E8050F216820F0010070
:1022800041E80502DAB1206850E8050F216820F026
:10229000010041E8050292B1206850E8050F21686D
:1022A00020F0010041E805024AB1206850E8050F1E
:1022B000216820F0010041E80502002ADAD1206BF4
:1022C000012824D1206850E8030F216820F0100075
:1022D00041E80302DAB1206850E8030F216820F0DA
:1022E000100041E8030292B1206850E8030F216812
:1022F00020F0100041E803024AB1206850E8030FC3
:10230000216820F0100041E80302002ADAD12020E1
:1023100084F84200002020632068416949063FD5C7
:1023200050E8050F216820F0400041E805022AB37B
:10233000206850E8050F216820F0400041E80502C0
:10234000E2B1206850E8050F216820F0400041E824
:1023500005029AB1206850E8050F216820F040007E
:1023600041E8050252B12068DAE700BF2046FFF7D6
:1023700071FD0020606402B0B0BD00BFE06B78B1B9
:1023800042F61971C0F600010165FEF751FD002803
:102390003FF4D4ADE06B016D02B0BDE8B04008473A
:1023A000204602B0BDE8B040FFF754BD216A31F8C5
:1023B000022B6FF35F22426021628AE5002804BF8E
:1023C0000120704710B5044690F8410028B900205C
:1023D00084F84000204600F021F8242084F84100D1
:1023E0002068C16821F40051C160204600F094FFCC
:1023F0002068016921F490410161416921F02A01BD
:102400004161C16841F40051C16000202021606435
:1024100084F8411084F84210606310BD2DE9F04348
:1024200087B00446006844F60001C4F200010026AB
:102430008842CDE90566CDE9036602964CD041F2AB
:102440000001C4F20101884240F09B80002643F65F
:1024500030000196C4F202004169002441F01001ED
:1024600041614169C4F2020401F010010191019936
:102470000196016802AD41F00201016001684FF070
:10248000020801F0020101910199019601684FF0E3
:10249000030941F0010101600068072700F0010015
:1024A000019001988020029004F580602946CDE9D2
:1024B0000386CDF814900697FEF7C2FE4FF4007025
:1024C000CDE9020820462946CDE904690697FEF7C2
:1024D000B7FE25244DE000BF43F630000196C4F25C
:1024E0000200016941F480210161016901F4802148
:1024F000019101990196016841F0040101600068B1
:1025000002A900F00400019001984FF4406002908D
:102510000220CDE903060320059007200690002045
:10252000C4F2020000F50060FEF78AFE40F2D41506
:1025300046F22800C2F20005C4F202004FF000612A
:1025400085E843004FF440304FF480624FF48073CD
:10255000C5E908062846C5E90362C5E90566EB61D9
:10256000FEF758FD002818BFFDF7D0FFE563AC6308
:102570002724204600210022FFF700F82046FEF71E
:10258000EDFF07B0BDE8F08370B582B0044690F867
:10259000420020280AD113460A4600294FF00100C4
:1025A00018BF002B06D102B070BD00BF022002B0E0
:1025B00070BD00BF002622202663A262A385666448
:1025C00084F842002168E06B43F2A10C43F2012E33
:1025D00042F62575C0F6000CC0F6000EC0F60005E8
:1025E0000431C0E90FCEC0E91356FEF7C5FD0196D0
:1025F000206801680191416801910199216929B31D
:1026000050E8030F216840F4807041E80302EAB10A
:10261000206850E8030F216840F4807041E803020D
:10262000A2B1206850E8030F216840F4807041E8AF
:1026300003025AB1206850E8030F216840F480700B
:1026400041E8030212B12068DAE700BF206850E8D1
:10265000050F216840F0010041E80502E2B1206861
:1026600050E8050F216840F0010041E805029AB1E9
:10267000206850E8050F216840F0010041E805029C
:1026800052B1206850E8050F216840F0010041E890
:102690000502002ADAD100BF206850E8050F216842
:1026A00040F0400041E80502DAB1206850E8050F2B
:1026B000216840F0400041E8050292B1206850E8EE
:1026C000050F216840F0400041E805024AB120684A
:1026D00050E8050F216840F0400041E80502002A5B
:1026E000DAD1002002B070BD7047000070470000D2
:1026F00070470000FEE700002DE9F04381B02DEDAA
:10270000108B884640F24C11C2F20001B1F904105E
:10271000054608461F46914601F0C8F99FED6A0B31
:1027200054EC106B3246234601F0D8F99FED680B4C
:1027300053EC102B01F0D2F99FED670B53EC102BEB
:1027400001F05AF83246234601F0C8F901F022F8A8
:10275000B7F908109FED628A01EE101A9FED619A99
:102760009FED61AA00EE100AB8EEC1CAB7EE00BA3A
:102770003CEE00DA28460121B0EE480AF0EE4B0AA2
:10278000B0EE481AF0EE491AB0EE4A2A00F0DCFF2B
:102790002846B0EE4C0AF0EE4D0A00F07DF9B7F98C
:1027A0000210D5F81D0000EE101A0CEE100AB8EE5B
:1027B000C0DA28460121B0EE480AF0EE4B0AB0EE2E
:1027C000481AF0EE491AB0EE4A2A00F0BDFF28463A
:1027D000B0EE4D0AF0EE4C0A00F05EF9B9F90210C5
:1027E000D5F81D0000EE101AB0EE08FA0DEE100A32
:1027F000B8EEC0EA28460121B0EE4F0AF0EE480AD2
:10280000B0EE481AF0EE491AB0EE4A2A00F09CFFEA
:102810002846B0EE4E0AF0EE4C0A00F03DF9B7F94A
:102820000410D5F81D0000EE101A0CEE100AB8EED8
:10283000C0EA28460121B0EE480AF0EE4B0AB0EE9D
:10284000481AF0EE491AB0EE4A2A00F07DFF2846F9
:10285000B0EE4E0AF0EE4D0A00F01EF9B9F9041080
:10286000D5F81D0000EE101A0DEE100AB8EEC0BA31
:1028700028460121B0EE4F0AF0EE480AB0EE481AA1
:10288000F0EE491AB0EE4A2A00F05EFF2846B0EE9C
:102890004B0AF0EE4C0A00F0FFF8D5F81D00BDEE33
:1028A000CD1A00EE100A11EE100ABDEEC00AA8F80B
:1028B000000010EE100AA8F80200BDEC108B01B069
:1028C000BDE8F08300BF00BF7B14AE47E17A843FD0
:1028D0000000000000FFBF400000000000A0844096
:1028E0000000000000007A4600007A4480B540F203
:1028F000AC1046F20041C2F20000C4F20001032213
:10290000002380E80E0000F10C014FF4102C4FF46E
:10291000001E81E8085083618383FEF7A1F8002838
:1029200008BF80BDBDE88040FDF7F0BD80B582B036
:102930000020019043F63000C4F20200016800223A
:1029400041F4001101600068002100F400100190C2
:1029500001980C20FEF712FE0C2002B0BDE880406A
:10296000FEF7FCBD70B586B0002143F6300005913E
:102970000091C4F20200026841F6004442F00102F4
:1029800002600268C4F2020402F001020092009A9E
:10299000009102684FF4E05542F0020202600268C2
:1029A000012602F002020092009A0091026842F0B1
:1029B00008020260026802F008020092009A009188
:1029C000026842F004020260026802F0040200920F
:1029D000009A00910168012241F0800101600068C5
:1029E0004FF4E05100F08000009000982046FEF780
:1029F00005FD0220049001A92046CDE90156039669
:102A0000FEF71EFC06B070BD80B540F27C2041F29E
:102A10000001C2F20000C4F2010148F2A0620023EA
:102A20004FF00C0CC0F2010280E80E00C0E9033345
:102A3000C0E905C3C361FFF7C1FC002808BF80BD22
:102A4000BDE88040FDF762BD80B540F2C42044F689
:102A50000001C2F20000C4F2000148F2A062C0F21C
:102A60000102002380E80E0000F10C014FF4806C9D
:102A70004FF0040E81E80850C0E90633FFF79EFCD2
:102A8000002808BF80BDBDE88040FDF73FBD0000C5
:102A9000FEE70000FEE70000002867D0411C8B6BBA
:102AA000CA6B01EE103ACB6310EE903A00784B619E
:102AB00010EE103A30EEC00A8B6110EE103A00288A
:102AC0000A648B6356D0012840F0AC8002EE102AD5
:102AD0000A684B6803EE102A30EE414A24EE033AAE
:102AE00004EE103A13EE102A20EE044A88680A62B7
:102AF00014EE102A31EE011A4A620A6B30EE410AD6
:102B000032EE000A01EE100A4A6310EE102A20EE9F
:102B1000010A10EE100A8862C869D1F80CC033EEC1
:102B2000041A31EE000A01EE100A31EE000A01EE3D
:102B300010CACB6AB4EE410A10EE100AF1EE10FA98
:102B40000B63CA62C861C2BFC1F81CC0B0EE410AC3
:102B50007047B1EE411AB4EE410AF1EE10FABEBF71
:102B600011EE100AC861B0EE410A70479FED2F0ABE
:102B7000704700BF08684A6802EE100A20EE022A79
:102B800012EE100A0862486A03EE102A04EE100AD8
:102B900023EE003A33EE043A8B6813EE100AD1F8B4
:102BA00010C04862086B30EE410A01EE103A4863EB
:102BB00010EE100A20EE010A01EE10CACA6AB4EE45
:102BC000413AC86210EE100AF1EE10FA0A63886208
:102BD00006DCB1EE411AB4EE413AF1EE10FA04DA35
:102BE00011EE100AB0EE413A4862C86832EE031A9C
:102BF00030EE010A01EE100AB4EE410A10EE102A7E
:102C0000F1EE10FACA6109DCB1EE411AB4EE410AE4
:102C1000F1EE10FAA8BF704711EE100AB0EE410AAB
:102C2000C8617047C86900EE100A704700000000D4
:102C30007047000080B540F2C423C2F20003D3F80D
:102C400000C0DCF8143043F04003CCF81430DCF85A
:102C50000C3043F01003CCF80C3040F2D413C2F225
:102C60000003D3F800E0DEF800C02CF0010319E007
:102C7000DEF8003023F00103CEF80030DEF800303B
:102C8000DB071FBFDEF8003023F00103CEF8003071
:102C9000DEF8003018BF5FEAC37315D0DEF80030ED
:102CA00023F00103CEF80030DEF80030DB071FBF51
:102CB000DEF8003023F00103CEF80030DEF80030FB
:102CC00018BF5FEAC373D3D144F60403C4F2000310
:102CD000CEF80830CEF80C00CEF81010CEF8042054
:102CE000DEF8000040F48020CEF80000DEF800009E
:102CF00040F00100CEF8000080BD000070470000E9
:102D000070470000B0B592B0002443F64000CDE912
:102D10000A44CDE908440594CDE90344CDE90144D2
:102D20000094C4F202000168022541F08051016064
:102D3000006800F080500090009847F20000009476
:102D4000C4F20000016841F480410160006800F4B1
:102D5000804000900098012006904FF4803007904A
:102D60004FF480000D9006200E90A820CDE90F05AD
:102D70000420119006A80C95FEF76AFD10B172B6FA
:102D8000FEE700BF0F20CDE901054FF4A0500490ED
:102D90004FF48050059001A805210394FEF72AFC0A
:102DA00010B172B6FEE700BF12B0B0BD4EF688504B
:102DB000CEF20000016841F470010160704700002C
:102DC00040F23420C2F20000FEF78ABF10B540F690
:102DD000FF3E0368C4F2000E40F2004C7045C4F29E
:102DE000010C27DCB0F1804F31D040F20042C4F238
:102DF000000290422BD040F60002C4F20002904242
:102E000025D041F6FF72C4F20002904229DC7045E1
:102E10003CDCB0F1804F5FD040F20042C4F20002CF
:102E2000904259D040F60002C4F20002904253D0C2
:102E300056E000BF40F60042C4F20002904206D0C5
:102E4000604504D00022C4F201029042D9D14A6800
:102E500023F07003134341F6FF72C4F20002904264
:102E6000D5DD43F6FF72C4F20102904222DC42F249
:102E70000002C4F2000290422ED00022C4F20102ED
:102E8000904229D0604527D02AE000BF40F600429A
:102E9000C4F2000290421FD041F60002C4F20002C8
:102EA000904219D041F60042C4F20002904213D081
:102EB00016E000BF44F20002C4F2010290420BD0BF
:102EC00044F60002C4F20102904205D044F20042EE
:102ED000C4F20102904203D1CA6823F44073134341
:102EE00023F080024B69D1F800E08C681A4302603D
:102EF000C46240F48062C0F828E0624504BF0969FA
:102F00000163012141610169C90708BF10BD016961
:102F100021F00101016110BD806B0021C185C184D8
:102F2000FEF798BF806B01684A6990F84130212B09
:102F30002ED112F080022BD00022C28451E8031F50
:102F4000026821F0C00142E80313EBB1016851E8C7
:102F5000031F026821F0C00142E80313A3B1016816
:102F600051E8031F026821F0C00142E803135BB17E
:102F7000016851E8031F026821F0C00142E8031311
:102F800013B10168DAE700BF202180F84110016821
:102F90004A6990F84230222B7CD112F0400279D05D
:102FA0000022C28551E8031F026821F4907142E8B3
:102FB0000313C3B3016851E8031F026821F4907141
:102FC00042E803137BB3016851E8031F026821F450
:102FD000907142E8031333B3016851E8031F02689C
:102FE00021F4907142E80313EBB10168DAE700BF06
:102FF000016851E8051F026821F0010142E805134C
:10300000DBB1016851E8051F026821F0010142E8C7
:10301000051393B1016851E8051F026821F0010111
:1030200042E805134BB1016851E8051F026821F021
:10303000010142E80513002BDAD1016B012924D1EB
:10304000016851E8031F026821F0100142E80313F0
:10305000DBB1016851E8031F026821F0100142E86A
:10306000031393B1016851E8031F026821F01001B6
:1030700042E803134BB1016851E8031F026821F0D5
:10308000100142E80313002BDAD1202180F842100E
:1030900000210163416C41F010014164FEF7DABE8A
:1030A0000168806B0968C90500F19F800021C18516
:1030B000016851E8031F026821F4807142E803139C
:1030C000E3B1016851E8031F026821F4807142E80E
:1030D00003139BB1016851E8031F026821F480715A
:1030E00042E8031353B1016851E8031F026821F459
:1030F000807142E80313002BDAD100BF016851E868
:10310000051F026821F0010142E80513BBB3016805
:1031100051E8051F026821F0010142E8051373B36D
:10312000016851E8051F026821F0010142E805131A
:103130002BB3016851E8051F026821F0010142E844
:103140000513002BDAD11AE0016851E8051F026867
:1031500021F0400142E80513DBB1016851E8051F89
:10316000026821F0400142E8051393B1016851E87B
:10317000051F026821F0400142E805134BB10168C8
:1031800051E8051F026821F0400142E80513002BB9
:10319000DAD1202180F84210016B012925D100BF2E
:1031A000016851E8031F026821F0100142E803138F
:1031B000DBB1016851E8031F026821F0100142E809
:1031C000031393B1016851E8031F026821F0100155
:1031D00042E803134BB1016851E8031F026821F074
:1031E000100142E80313002BDAD100214163016B87
:1031F000012918BFFFF778BA818DFEF729BE0000BC
:10320000806B01214163016B012918BFFFF76EBA82
:10321000818D4908FEF71CBE81B090F8421022292A
:1032200020D18368B3F5805F08D10169002965D09A
:1032300000F128010A6803685B680AE0014651F85A
:10324000282F13B90369002BF5D003685B6803F0DE
:103250007F0313700A6801320A60C18D01390A04C4
:10326000C18501D001B070470168CA6822F0200210
:10327000CA60CA6822F48072CA604A6922F00102F8
:103280004A61202280F8422000224263036B012B16
:103290003ED1026351E8031F026821F0100142E8A9
:1032A00003130168DBB151E8031F026821F010012C
:1032B00042E80313016893B151E8031F026821F04B
:1032C000100142E8031301684BB151E8031F026883
:1032D00021F0100142E803130168002BDAD10A68DB
:1032E000D20606D5002200920A6800924968009131
:1032F0000099818D01B0FEF7ABBD00BF0168826A05
:1033000049686FF35F2122F8021B8262A5E700BFC4
:1033100001B0FFF7E9B9000010B504460068D4E930
:1033200002C22369016921F44051114301616269BC
:1033300043EA0C01E3691143C268194349F20C6383
:103340009A431143C1604169A26921F4407141F27D
:103350000043114340F48062C4F201039A42416188
:1033600002D1FEF72BFA01E0FEF714FAE169636877
:103370001922B1F5004FA0FB02011FD15A00DB0F4B
:10338000FCF772FF48F21F51C5F2EB11A0FB0123BD
:103390005A096FF0630302FB0300322303EBC00002
:1033A000A0FB01014FF4F87000EA111000EB0210CD
:1033B000C1F3421108442168886010BD9A009B0F38
:1033C000FCF752FF48F21F51C5F2EB11A0FB01239D
:1033D0005A096FF0630302FB0300322303EB001072
:1033E000A0FB0101F02000EA511000EB0210C1F334
:1033F000431108442168886010BD000040F27C2021
:10340000C2F20000FEF728BDF0B582B040F2C42041
:10341000C2F2000000680168890600F1858044F668
:103420000001C4F200010968C90640F1FC800021D6
:10343000009101682423009140680090009840F2B8
:10344000D410C2F20000006802680168120321F083
:10345000010101604168436089B26FD4026812299A
:1034600042F400220260026842F00102026040F071
:10347000DA8040F24C10C2F20000817DC27D41EA48
:10348000022CC27D037E90F818E0417E847E857E0A
:10349000C67EC77ED208C7F301178772C77E63F363
:1034A0004A12BB09C372037F477F890043EA07239F
:1034B0008381837FC77F41EA9E1143EA0723C3814B
:1034C00090F8203090F8217064F38A2143EA0723B2
:1034D000038290F822306F08837490F8233066F3EB
:1034E000CA17C37490F8243090F82560CCF1000519
:1034F00043EA0623838290F8263090F82760A1F5EE
:1035000080616FF3DF2543EA06238180A7F58061A0
:10351000A5F58066A2F58062C180A3F58061068072
:103520004280018102B0F0BD00210191016801914A
:1035300040680190019802B0F0BD00BF46F2280239
:10354000C4F202021368122923F4002313600268F4
:1035500042F00102026066D140F24C10C2F200005B
:1035600090F83A1090F83B2041EA022C90F83B206A
:1035700090F83C3090F83C7090F83D6090F83E50E8
:1035800090F83E4090F83FE090F83F10D208C1F329
:103590000111817290F83F1063F34A128909C172D8
:1035A00090F8401090F84130B60041EA0321818143
:1035B00090F8421090F8433046EA971641EA03210A
:1035C000C18190F8441090F8453065F38A2641EAAD
:1035D0000321018290F846106308817490F8471027
:1035E000CCF10005C17490F8481090F84970A2F52C
:1035F000806241EA0721818290F84A1090F84B706E
:103600006EF3CA136FF3DF2541EA07214280A6F566
:103610008062A5F580678280A3F58062A1F5806154
:103620000780C280018102B0F0BD0000FEE700000B
:1036300070B58AB044F22000009044F2400001903E
:1036400044F2600040F2AC14002602904FF4814036
:10365000C2F200040125CDE903066946204608951B
:10366000069507960596FCF7BFFF44F2A000009070
:1036700044F2C000019044F2E00002904FF4824016
:1036800003900220CDE90450694620460895CDE913
:103690000666FCF7A9FF2046FDF744FB20461221F1
:1036A000FCF738FF0AB070BDFDF7C2FEFFF72AFB3A
:1036B000FFF758F9FFF73AF9FFF718F9FFF7C4F9E0
:1036C000FFF7A2F900F05CF840F2700440F2C42564
:1036D000C2F20004C2F2000504F1080128461222D9
:1036E000FEF752FF2868C16841F01001C160FFF782
:1036F0009FFF04F11A05DFED100A9FED101ADFEDB0
:10370000101A9FED102AB0EE000A2846002100F0A2
:103710001BF840F20C30C2F2000000F10A0600F182
:10372000140700BF2846214632463B46FEF7E4FF19
:103730002046FCF7B1FEF5E7CDCCCC3D0000000003
:103740000000FA450000C842002808BF704780B555
:10375000421C00F8151B10EE101A116010EE901AA2
:10376000516011EE101A916011EE901AD16012EEB4
:10377000101A11613021FCF7EFFDBDE88040704761
:1037800040F24C11C2F2000101F116003A3124223C
:10379000FFF750BA21F0004201F00043A2F160525D
:1037A000B2F5801F28BFD2F17F6C0BD95FEA001CF5
:1037B00043EAC20242EB507018BF704728BF20F0A6
:1037C00001007047B2F5801FBCBF184670474FEA32
:1037D000410C1CF5001F02D2084600F08ABA70B5F1
:1037E00000F026FA00000089FFF7F6BF4FF0004016
:1037F000A0F58000704700002DE9C04130B4DFF82B
:10380000A4C23CEA111418BF3CEA131400F0ED8086
:103810001CEA111481EA030544EAD57418BF1CEAB6
:10382000131500F0C880A4EB050404F17F7404F5BF
:1038300000344FF0004545EAC12145EAC32341EA7F
:10384000505143EA52534FEAC0204FEAC2229942F4
:1038500008BF904200F09D804FEA13650FF24416B6
:10386000765D4FEA134506FB05F7C7F1807706FB47
:1038700007F74FEAD737A7FB03687642A7FB06CEC8
:10388000C8F5803838BFA8F1010807FB08E6A6FB99
:10389000028C4FF0000EE6FB03CEDCF1000CCEF103
:1038A000004E38BFAEF1010EA6FB0C584FF00007DA
:1038B000E6FB0E87A1FB08C6A0FB07CE16EB0E06A3
:1038C0004FF0000545F10005E1FB076515F1E04EFD
:1038D0007EBFA4F580345FEA46066D4116F180078D
:1038E00045F100054FEA172747EA05674FEA152516
:1038F0004FEA0666A6F1DE46B6F1805F20D938466B
:1039000005EBC47124F0010C01EB0C11BCF1FE6F4E
:1039100002D8F0BCBDE8008124425CBF01F5801EE6
:103920009EEAC47F02D4F0BCBDE80081244200F1CD
:103930003980A1F1C041F0BCBDE8004100F0C6B93A
:103940004FEAD02040EA41504FEAD1214FEAD2223B
:1039500042EA43524FEAD323A7FB028607FB0366E2
:1039600005FB02661EEA0E0F58BFA6EB0056B6EB2B
:1039700000564FEA520E4EEAC37E18EB0E0E56EB7F
:10398000530EBCD518EB02085E417F1C55F10005B3
:10399000B5E74FF480154FF000074FF000064FF0E9
:1039A0000008ACE701F1C04101F000414FF0000018
:1039B000F0BCBDE800810CEA131511EA0C1F00D021
:1039C0000CE013EA0C1F00F026804FF0000081EAA3
:1039D000030101F00041F0BCBDE80081F0BCBDE88E
:1039E000004181EA030100F071B9F0BCBDE800417B
:1039F00070B500F01DF900BF097EFC3E00F007B86D
:103A00004FF0000081EA030101F00041704781EAB4
:103A1000030100F05BB9F0BCBDE8004122494FF062
:103A200000007047FFFDFBF9F7F5F4F2F0EEEDEB67
:103A3000E9E8E6E4E3E1E0DEDDDBDAD8D7D5D4D3AC
:103A4000D1D0CFCDCCCBCAC8C7C6C5C4C2C1C0BFF8
:103A5000BEBDBCBBBAB9B8B7B6B5B4B3B2B1B0AFFE
:103A6000AEADACABAAA9A8A8A7A6A5A4A3A3A2A1E2
:103A7000A09F9F9E9D9C9C9B9A999998979796959D
:103A800095949393929191908F8F8E8E8D8C8C8B39
:103A90008B8A8989888887878685858484838382C1
:103AA000828181800000FF070000F87F10F0004253
:103AB00048BF4042B0FA80F310FA03F10AD0C3F1D4
:103AC0001D0303F5806302EB03524FEA415002EB02
:103AD000D12170474FF000007047000070B5DFF84B
:103AE00048C11CEA111E1EBF1CEA13159EEA0C0FEA
:103AF00095EA0C0F00F06F8081EA03044EEAD47E51
:103B0000AE4421EA4C1123EA4C1341F4801143F4F2
:103B10008013AEF17F7EA1FB024CA0FB036536193A
:103B200055EB0C05A1FB034C4CF10003A0FB021C60
:103B300016EB0C06654153F10003094218BF46F02D
:103B4000010613F4007F0BD14FEA03314FEA053031
:103B500041EA155140EA165034036FF003020AE0BF
:103B60004FEAC3214FEAC52041EA555140EA565079
:103B7000F4026FF0020202EB2E4201EB025585EADD
:103B8000CE710AD05FEA440C18BF24F0004450F113
:103B9000000041F1000120EAD47040F2FE7C624551
:103BA00000D270BDA84214BF4FF080444FF0404493
:103BB000002E08BF0024BEF1806FA8BFA1F1C04154
:103BC000BDE8704080F2828001F1C04101F0004107
:103BD0004FF0000070470CEA13159EEA0C0F18BF57
:103BE00095EA0C0F06D081EA030E4FF000000EF0AC
:103BF000004170BD00F01CF88900013E00F007B8DC
:103C000000F009B84FEA430C5FEA5C5C08D081EA37
:103C1000030100F05BB84FEA410C5FEA5C5CF6D14F
:103C200002494FF0000070470000FF070000F87FD6
:103C30000EF1020E2EF0030E5EF8046B364205D430
:103C4000012A43EB030515F5001F12D8012841EBAB
:103C5000010C1CF5001F0CD80ED14FEAD17C0CEBE7
:103C60004C0C0CF1020C15F5001F08BF4CEBD37C7B
:103C700004E04FF0080C01E04FEAD37C0CEB4C055C
:103C800026FA05F606F00706B6F1040C06D20EEB8E
:103C9000860CBDE870404CF0010C6047DFE80CF08A
:103CA000090B02024FF00041A1F500214FF0000086
:103CB00070BD19461046012851EB010418BFD4F518
:103CC000001484BF002001F0004170BD0808A0F579
:103CD00000114FEA31017047F1EE100A4FF6FF7103
:103CE000C0F2C03120EA010040F04070E1EE100A5D
:103CF0007047FF2141EAD050C00570470000000026
:103D0000000000000102030406070809000000008B
:103D1000010203040006101600061016403D0008BC
:103D20000000002010000000C4010008503D000801
:103D30001000002028090000E00100080000000039
:103D400001000000100000000024F400000000004A
:040000050800018965
:00000001FF
