:020000040800F2
:100000006808002029020008391E0008E11C0008C9
:10001000351E000865040008612700080000000084
:10002000000000000000000000000000A120000807
:100030009505000800000000D51F0008A520000855
:10004000430200084302000843020008430200087C
:10005000430200084302000843020008430200086C
:10006000430200084302000843020008430200085C
:100070008905000843020008430200084302000803
:10008000430200084302000843020008430200083C
:100090006904000843020008430200084302000804
:1000A000430200084302000843020008430200081C
:1000B000430200084302000843020008430200080C
:1000C00043020008430200084302000843020008FC
:1000D0004302000843020008430200083D250008CF
:1000E00043020008430200084302000843020008DC
:1000F00043020008430200084302000843020008CC
:1001000043020008430200084302000843020008BB
:1001100043020008430200084302000843020008AB
:10012000430200084302000843020008430200089B
:10013000430200084302000843020008430200088B
:10014000430200084302000843020008430200087B
:10015000430200084302000843020008430200086B
:10016000430200084302000843020008430200085B
:100170004302000843020008430200080000000098
:10018000430200084302000800F002F800F03CF8C7
:100190000AA090E8000C82448344AAF10107DA45E2
:1001A00001D100F031F8AFF2090EBAE80F0013F0F8
:1001B000010F18BFFB1A43F001031847EC2700009A
:1001C0000C280000103A24BF78C878C1FAD852072A
:1001D00024BF30C830C144BF04680C6070470000C1
:1001E0000023002400250026103A28BF78C1FBD840
:1001F000520728BF30C148BF0B6070471FB502F0DF
:10020000B5FB1FBD10B510BD00F0F2F81146FFF7A9
:10021000F5FF02F0C5FA00F010F903B4FFF7F2FFA2
:1002200003BC00F017F9000009488047094800475F
:10023000FEE7FEE7FEE7FEE7FEE7FEE7FEE7FEE796
:10024000FEE7FEE704480549054A064B70470000F3
:100250005121000889010008680200206808002078
:10026000680400206804002053EA020C00F0698052
:100270002DE9F04B4FF00006002B1FBFB3FA83F5BA
:1002800003FA05F424FA05F65E4012BF1643B2FAEB
:1002900082F502FA05F4C5F120051EBF22FA05FC1D
:1002A00044EA0C04203556EA044C4FEA144418BFC3
:1002B000641C4FF000084FF00009904271EB030CF2
:1002C00039D3002919BFB1FA81F701FA07F6B0FA5C
:1002D00080F700FA07F6C7F120071EBF20FA07FCD7
:1002E00046EA0C062037B6FBF4FCA7EB0507103FE7
:1002F00007F01F0BCBF120062CFA06F60CFA0BFBCD
:1003000044BFB3460026202FA4BF5E464FF0000B2B
:100310005BEA060C08BF4FF0010B19EB0B0948EB29
:100320000608ABFB027C06FB02CC0BFB03CCC01B1C
:1003300071EB0C01C1E70B46024641464846BDE859
:10034000F08B13B5084318BF4FF0FF300146AFF3F1
:100350000080BDE81C4070474FF000020429C0F047
:10036000128010F0030C00F01E80CCF1040CBCF1E4
:10037000020F18BF00F8012BA8BF20F8022BA1EB39
:100380000C0100F010B85FEAC17C24BF00F8012B1B
:1003900000F8012B48BF00F8012B704770477047E9
:1003A00070474FF0000200B5134694469646203938
:1003B00022BFA0E80C50A0E80C50B1F12001BFF41E
:1003C000F7AF090728BFA0E80C5048BF0CC05DF884
:1003D00004EB890028BF40F8042B08BF704748BFD2
:1003E00020F8022B11F0804F18BF00F8012B704746
:1003F000754600F02BF8AE4605006946534620F0DE
:100400000700854618B020B5FFF71CFFBDE8204067
:100410004FF000064FF000074FF000084FF0000BC0
:10042000AC46ACE8C009ACE8C009ACE8C009ACE82F
:10043000C00921F007018D46704710B50446AFF39F
:1004400000802046BDE81040FFF7E7BE0048704737
:100450001000002001491820ABBEFEE72600020074
:1004600070470000FEE7000040F29410C2F2000066
:1004700000F00CBA80B540F2E003C2F200034FF482
:100480000072194641F8142F42884FF0000C12BA3E
:100490004FEA124E1A4622F804EFB0F804E0C3F80F
:1004A0001CC09EFA8EFE4FEA1E4EA3F806E0B0F87E
:1004B00006E0C3F820C09EFA8EFC4FEA1C4CA3F85D
:1004C00008C000894FF0080C00BA000C588140F2B7
:1004D0009410C2F20000C3F824C000F079F80120A3
:1004E000BDE8804000F020BE80B58AB040F2FF1128
:1004F000029100214289CDE904110821069111BA27
:100500008289090CADF8201011BAC289008A090C41
:1005100000BAADF8221011BA000C090CADF8260093
:1005200040F29410ADF82410C2F2000002A908AA0B
:1005300001AB00F04DF8012000F0F6FD0AB080BDDF
:1005400000EE101A01EE102AB8EEC00AB8EEC11A79
:1005500002EE103AB8EEC22A30EE413A30EE014ACD
:1005600031EE400A33EE023A34EE025A30EE020A1D
:1005700032EE441A80ED003A80ED015A80ED020A15
:1005800080ED031A7047000040F2BC10C2F2000078
:1005900000F0E8BB7047000072B600BFFEE7000045
:1005A00090F82020013A012A08D8006800F11402CE
:1005B0000020136819431160704700BF00F1240246
:1005C00001204FF480211368194311607047000027
:1005D00010B590F820E0D0F800C0AEF1010EBEF1E9
:1005E000010FDCF808E00FD81EF0E05F16D0CEF364
:1005F000016E012000FA0EF018608B68C3B14868E4
:1006000043EAC00316E000BF00F1240101204FF4CB
:1006100080220B681A430A6010BD00BF00F124015C
:1006200001204FF400120B681A430A6010BD00BF8E
:1006300008684305D1E9030403430CEB0E10C0F82E
:100640008031C0F88441097D012905D100F5C271CE
:100650000B6843F480730B605168C0F88C1112680A
:1006600000F5C071C0F88821002001220B681A43F0
:100670000A6010BDB0B590F82020013A012A2FD8A9
:1006800046F20060C4F20000026842F0010202601B
:10069000026822F47C520260D1F814E0CC694A6A04
:1006A0000368012C43EA022202600EF01F024FF0A1
:1006B000010303FA02F2C3696FEA020C23EA0203A0
:1006C000C36113D02CBBC36803EA0C03C360CB68BF
:1006D0008C8844EA034300EBCE0423640B4611E00C
:1006E000416A41F4802141620120B0BDC3681343D7
:1006F000C3600B688C8844EA034300EBCE04236498
:1007000001F10C038C681B8843EA044300EBCE0420
:10071000636443688D6943EA0204D1F810E0096A12
:10072000002D08BF03EA0C0444604369BEF1000FCA
:1007300043EA020408BF03EA0C040129446102D120
:10074000C1691143C161016821F00101016000200C
:10075000B0BD00007047000010B590F82040013C8B
:10076000012C7BD8D0F800C0002900F08180DCF893
:100770001040A40700F081800CEB011CDCF8B041B4
:100780000CF5D87E14F004049460DCF8B04119BF75
:10079000E4085460640D1460DEF800400CF5DA7E65
:1007A00004F00204D460DCF8B44124075ABFDEF838
:1007B000004004F00F0408241461DEF80040002912
:1007C000C4F307249461DEF800404FEA14445461F6
:1007D000DCF8B8211A70026802EB0112D2F8B821D5
:1007E0004FEA12225A70026802EB0112D2F8B821C5
:1007F0004FEA12429A70026802EB0112D2F8B82155
:100800004FEA1262DA70026802EB0112D2F8BC21E0
:100810001A71026802EB0112D2F8BC214FEA1222CF
:100820005A71026802EB0112D2F8BC214FEA12425F
:100830009A71026802EB0112D2F8BC214FEA1262EF
:10084000DA71006814BF00F1100100F10C01002002
:1008500020220B681A430A6010BD00BF00F124017A
:1008600001204FF480220B681A430A6010BD00BFBC
:10087000DCF80C40A4077FF47FAF00F124010120D5
:100880004FF400120B681A430A6010BD2DE9F04FB7
:1008900081B0044600684669D0F804908768D0F8B3
:1008A0000CB0D0F810A0D0F81880F10704D10025C2
:1008B00030071DD424E000BFF90710D00121BA078A
:1008C000816009D4780700F1AF80380700F1B68065
:1008D000204600F039FA02E0204600F037FA002501
:1008E000F80500F18780F80300F1B180300707D5E3
:1008F0001BF0100004D0206845F400751021C16081
:10090000700708D51BF0080005D020680821C160D9
:10091000204600F0A1F9B00706D52068C06880071E
:1009200002D0204600F09AF9700607D51AF01000A0
:1009300004D0206845F4806510210161B00608D517
:100940001AF0080005D0206808210161204600F057
:10095000C7F9F00606D520680069800702D0204656
:1009600000F0C0F9B00308D519F0100005D02068D8
:1009700010214160204600F0B7F9F00308D519F0C6
:10098000080005D0206808214160204600F0E8F901
:10099000300440F19B805FEA497040F1948006F496
:1009A000807008EA102028435FEA8871014648BF3A
:1009B00041F00201B20558BF01465FEA48700D469A
:1009C00048BF45F00405700558BF0D46300540F19D
:1009D0007A8018F0700000F0768010380009052841
:1009E0006CD8DFE800F003595D61656945F00805E2
:1009F00064E000BF20684FF48071BA0581600BD4B9
:100A0000780515D438051DD4204600F0A1F9F80367
:100A10007FF56CAF1BE000BF204600F09BF9F803A8
:100A20007FF564AF13E000BF4FF4006558E700BFE7
:100A300005F50055F8037FF559AF08E04FF48055F0
:100A40004EE700BF05F58045F8037FF54FAF2068FE
:100A50004FF48031BA0381600AD4780310D438038C
:100A600014D4204600F078F930073FF541AF47E74E
:100A7000204600F073F930073FF53AAF40E700BF7A
:100A800005F5004530073FF533AF39E705F580350B
:100A900030073FF52DAF33E745F010050EE000BFFE
:100AA00045F020050AE000BF45F0400506E000BF24
:100AB00045F0800502E000BF45F48075206881693B
:100AC00021F07001816120680421416055B1606AA4
:100AD00040EA05012046616201B0BDE8F04FFFF732
:100AE00039BE00BF01B0BDE8F08F0000B0B5C8B19D
:100AF000044690F8200010B9204600F071F82068F4
:100B0000016841F00101016000F006FC054600BFEC
:100B100020684168C90707D100F0FEFB401B0B2885
:100B2000F6D312E00120B0BD016821F0020101609E
:100B300000F0F2FB054600BF2068416889070DD52B
:100B400000F0EAFB401B0B28F6D3606A052140F455
:100B500000306062012084F82010B0BD217E026860
:100B6000012922F0800208BF80320260617E0268A3
:100B7000012922F0400208BF40320260A17E0268D3
:100B8000012922F0200208BF20320260E17E0268C3
:100B9000012922F0100218BF10320260217F026882
:100BA000012922F0080208BF08320260617F026852
:100BB000012922F0040208BF04320260D4E901C214
:100BC000D4E9033561691A432A431143ACF10102A8
:100BD0001143C16100200121606284F82010B0BD82
:100BE00080B586B0016846F20040C4F20000814240
:100BF00002D006B080BD00BF002143F63002019153
:100C0000C4F20202136900F5D43043F0007313619B
:100C1000136903F000730193019B0191136843F082
:100C2000080313601268022302F008020192019A7D
:100C3000CDE9023109210322059101A90192049213
:100C400000F086FA14200021002200F0E5FB1420B9
:100C500000F0D2FB06B080BD7047000010B588B030
:100C600040F2E004C2F2000440F2941004F10C03DC
:100C7000C2F2000001AA0021FFF76EFD0198A0F268
:100C80000121072926D80138C2B2A189920052FA5F
:100C900080F0E28909BA090C12BA04EB4000120C88
:100CA00000EE101A9FED0C1AC285228AB8EE400A97
:100CB00020EE010A9FED091A12BA120C20EE010A69
:100CC0000286A27CBDEEC00A818510EE101A80F863
:100CD0003220818608B010BD000000390000B44306
:100CE000704700007047000070470000B0B5044630
:100CF00090F8200001281DD1022084F820002068EF
:100D0000016821F00101016000F006FB054600BF0B
:100D100020684068C00713D000F0FEFA401B0B2883
:100D2000F6D3606A40F400306062052084F8200049
:100D30000120B0BD606A40F4002060620120B0BDB7
:100D400000206062B0BD00007047000070470000E6
:100D500070470000704700007047000070470000B7
:100D600070470000F0B581B004460020009040F2CA
:100D70000800C2F200000268D4E9166048F2B51318
:100D800037680821C1F64E3381403942A2FB032562
:100D90000CD0226813685B0708D5136823F004039E
:100DA0001360B160616D41F0010161650121814015
:100DB000394208D022685269120604D5B160616DCB
:100DC00041F00201616504218140394208D0226866
:100DD0001268920704D5B160616D41F0040161654C
:100DE00010218140394217D020680268120713D5BC
:100DF000B16002680168520308D4C90508D40168CB
:100E000021F008010160216C21B905E008033FD4FD
:100E1000216C09B120468847E16D202000FA01F2DB
:100E20003A4241D020680368DB063DD5B26094F8B1
:100E300035300268052B1BD122F016020260426990
:100E400022F080024261226C0AB9A26C1AB10268D7
:100E500022F0080202603F208840B060012084F840
:100E60003500216D0020002984F8340052D157E06C
:100E70000168520310D4C90512D4016821F0100191
:100E80000160012084F83500002084F8340007E078
:100E9000A16C0029BED1BFE7080301D4616C00E05A
:100EA000E16B09B120468847606DC8B3606DC0072B
:100EB0002ED0052084F835002068A90A026822F0A7
:100EC00001020260009A01328A4200921AD8026836
:100ED000D20717D0009A01328A42009212D80268D3
:100EE000D2070FD0009A01328A4200920AD80268D3
:100EF000D20707D0009A01328A42009202D80268D3
:100F0000D207DFD1012084F83500002084F83400B6
:100F1000E16C29B1204601B0BDE8F040084700BFB0
:100F200001B0F0BD2DE9F041044600F0F5F9002CC8
:100F30004ED00546022084F835000020216884F850
:100F40003400086820F0010008600868C00708D075
:100F500000F0E2F9401B05286CD821680868C0073A
:100F6000F6D1086848F23F02CFF21002D4E9013509
:100F7000024004F10C0E9EE8C1511A432A4310436B
:100F80003043384340EA0800626A40EA0C00042A11
:100F900040EA0E0320D1D4E90A5E206B4EEA030238
:100FA000104308604869BEF1000F20F0030040EADA
:100FB000050040F0040C15D0B8F5005F42D0B8F140
:100FC000000F51D1022D52D0012D47D055B94EE01E
:100FD0000120BDE8F08100BF0B60486920F00700E8
:100FE00040EA020C6FF00F004AF6AB2250FA81F093
:100FF000CAF6AA22A0FB02231A0942F69E13C0F6E3
:1010000000039A5C40F2FF335F284FF03F00C1F8C5
:1010100014C021EA030100FA02F088BF0431C4E9D8
:1010200016128860002301220020636584F83520B1
:10103000BDE8F081032220230320636584F8352076
:10104000BDE8F081032DCDD8012240230120DFE847
:1010500005F0030E030500BFE7E700BFAEF1C07067
:10106000B0FA80F0400904E0032D04D3BAD1CEF3E6
:1010700000600028B6D0012240230120636584F877
:101080003520BDE8F081000070B590F834C0BCF1A7
:10109000010F46D04FF0010C80F834C0D0F858E072
:1010A00090F835C0BCF1010F38D14FF0020C80F838
:1010B00035C04FF0000CC0F854C0D0F800C08468B0
:1010C000056CC06DDCF80060402C26F48026CCF85E
:1010D0000060CCF804300B4604BF13460A463F219B
:1010E00001FA00F0CCF80830CCF80C20CEF808005B
:1010F000DCF8000040F01600CCF800002DB1DCF860
:10110000000040F00800CCF80000DCF8000040F0DF
:101110000100CCF80000002070BD00BF002180F865
:101120003410022070BD0000B0B5044600F0F4F8A1
:10113000054640F20000C2F200000078611C18BFB2
:10114000044400BF00F0E8F8401BA042FAD3B0BD51
:101150002DE9F04F82B000F13E4241F6004502F128
:10116000FF77C4F2020508224FEAB726A84208BF5B
:101170000722072E38BF4FEAB7224FF0010A00249A
:1011800000274FF00008009208E000BF023708F186
:101190000108202F04F1040400F0B4800E680AFA5C
:1011A00008F916EA090FF1D0D1F804A00AF0030BF0
:1011B000ABF10106012E17D80322866802FA07FE5A
:1011C000CA6826EA0E06BA40324382604268CAF311
:1011D000001522EA090205FA08F54FEA480C6FEA01
:1011E0000E062A4342600BE00322BA40D643BBF10D
:1011F000030FBC4604D1BC464FF0030B22E000BFF6
:10120000C2688D68324005FA0CF52A43BBF1020F23
:10121000C26017D16FF0030202EA5802024404F0E0
:101220001C030F25D2F820E005FA03FA0D692EEA17
:101230000A0E05FA03F343EA0E031362D1F804A081
:101240000AF0030B02680BFA0CF332401A431AF44B
:10125000403F4FF0010A026098D0002243F6440359
:101260000192C4F202031A6843F6004E42F480422F
:101270001A601A68C4F2010E02F480420192019AC7
:1012800028F003024FF6084C7244CFF6FF7C52F868
:101290000C3004F00C060F25B540AB43009D05FA59
:1012A00006F6334342F80C30DEF808204B6842EA79
:1012B000090643F60C4CDD0258BF22EA0906CEF8B7
:1012C0000860C4F2010CDCF800209D0242EA090625
:1012D00058BF22EA0906CCF80060DEF804209D031E
:1012E00042EA090658BF22EA0906CEF80460DEF891
:1012F0000020DB0342EA090658BF22EA0906CEF8BD
:10130000006043E702B0BDE8F08F0000002A08BF8C
:10131000090481617047000040F26420C2F20000BD
:101320000068704740F2000040F26421C2F2000001
:10133000C2F2000100780A6810440860704700009B
:1013400080B543F60040C4F20200016841F4007128
:101350000160016841F480610160016841F48071BD
:101360000160032000F084F80F2000F005F800F081
:1013700027F8002080BD000070B540F20006C2F2E0
:10138000000640F208013278C2F200014FF47A738D
:101390000968B3FBF2F20446B1FBF2F1084600F033
:1013A00041FB0F2C4FF0010508D838B94FF0FF3042
:1013B00021460022002500F02FF87460284670BDF9
:1013C00082B0002043F640010190C4F202014A6855
:1013D00042F480424A604A6802F480420192019AD3
:1013E0000090086840F080500860086800F0805065
:1013F0000090009802B07047002848BF704700F086
:101400001F01012202FA01F14EF200124009CEF250
:10141000000242F82010704710B54EF60C5CCEF278
:10142000000CDCF80030C3F3022E8EF00704042C0D
:1014300028BF0424BEF103034FF0FF3E0EFA04F46C
:1014400038BF0023A14399400EFA03F39A43114396
:1014500000F00F02043A624409010C3200F16043CB
:10146000B0F1FF3FC8BF03F56442117010BD00002A
:101470004EF60C51CEF200010A684FF6FF031A40F7
:1014800060F30A2242F0806040F0FD70086070470F
:101490002DE9F041002800F08B8043F60808C4F2E3
:1014A00002080446D8F8F8030D4600F00700884209
:1014B00007D288F8F853D8F8F80300F00700A842DC
:1014C00076D12068810717D5410705D5D8F80010D7
:1014D00041F4E051C8F80010010705D5D8F8001014
:1014E00041F46041C8F80010D8F80010A26821F05B
:1014F000F0011143C8F80010C0073FD1D8F8F80335
:1015000000F00700A84207D988F8F853D8F8F80384
:1015100000F00700A8424BD12068410707D5D8F852
:101520000010E26821F4E0511143C8F800100007F0
:1015300008D5D8F80000216920F4604040EAC100D5
:10154000C8F8000000F07CF8D8F8001042F68612C7
:10155000C1F30311C0F60002515C40F2080220FA08
:1015600001F140F20400C2F200000068C2F2000281
:101570001160FFF701FF0020BDE8F0816068811E67
:10158000022907D258F8081C89015CBF0120BDE878
:10159000F08111E0012807D158F8081C89035CBFCD
:1015A0000120BDE8F08107E058F8081C890703D442
:1015B0000120BDE8F08100BFD8F8001021F0030140
:1015C0000843C8F80000FFF7A7FE064641F2883737
:1015D000D8F80000616800F00C00B0EB810F8DD0EE
:1015E000FFF79AFE801BB842F2D90320BDE8F081D4
:1015F00040F2080043F60801C2F20000C4F2020102
:101600000068096842F69612C1F38221C0F6000212
:10161000515CC8407047000040F2080043F60801E2
:10162000C2F20000C4F202010068096842F6961294
:10163000C1F34231C0F60002515CC840704700005F
:1016400010B543F60404C4F20204606800F00C0014
:1016500008280BD0042819BF42F20040C0F2F40061
:1016600041F60030C0F2B70010BD00BF206821680D
:101670002368490241F60031C0F2B70100F03F0291
:10168000C3F388105CBF42F20041C0F2F401A1FB39
:1016900000010023FEF7E8FD21680222C1F30141A9
:1016A00002EB4101B0FBF1F010BD00002DE9F0416B
:1016B00082B000286AD00446007843F60006C007CE
:1016C000C4F202060BD0B06800F00C00042840F011
:1016D000A1803068800302D56068002856D0207849
:1016E00080071AD5B06810F00C0F09D0B06800F070
:1016F0000C00082840F0A8807068400200F1A48027
:101700003068800702D5E06801283FD13068216940
:1017100020F0F80040EAC10030602078000739D49A
:10172000207840074ED4A5695DB3B06800F00C0086
:10173000082840F0BD80012D28D07068E16900F4D0
:1017400080028A4222D1216A00F03F028A421DD1E2
:1017500047F6C071626A0140B1EB821F16D1A26ADE
:101760000023CFF6FF7303EBC23200F440316FF376
:101770000F0291420AD1E16A00F07060B0EB016F94
:1017800004D1002002B0BDE8F08100BF012002B00A
:10179000BDE8F0816069002840F20000C4F24720F3
:1017A00076D00121C0F8801EFFF7B6FD054600BFC8
:1017B000706F8007B4D4FFF7AFFD401B0228F7D944
:1017C000DDE000BF306C10F080580AD1002001909D
:1017D000306C40F080503064306C00F080500190EC
:1017E000019847F20007C4F200073868C00541D4E9
:1017F000386840F480703860FFF78EFD054600BF02
:101800003868C00536D4FFF787FD401B0228F7D99A
:10181000B5E000BFB06800F00C00082803D1706884
:1018200040023FF556AF6068B0F5803F07D0B0F595
:10183000A02F40F08D80306840F480203060306808
:1018400040F4803030608DE0E068002852D0002005
:10185000C4F2472001210160FFF75EFD054600BF8D
:10186000306880073FF552AFFFF756FD401B022856
:10187000F6D984E0A068012805D005284ED1306F44
:1018800040F004003067306F40F0010030674FE0F7
:101890000021C0F8801EFFF73FFD0546706F8007EE
:1018A0007FF53EAFFFF738FD401B0228F6D966E012
:1018B0000027C4F2472700203866FFF72DFD022DD0
:1018C00005460BD1306880015ED5FFF725FD401B32
:1018D00002284FF00300F5D954E700BF30688001BB
:1018E0007FF54FAFFFF718FD401B02284FF00300B4
:1018F000F4D947E70020C4F2472000210160FFF738
:101900000BFD0546306880077FF507AFFFF704FD44
:10191000401B02284FF00300F4D933E7316F002851
:1019200021F001013167316F21F0040131674DD0A1
:10193000FFF7F2FC054641F2883700BF306F8007A1
:1019400056D4FFF7E9FC401BB842F7D917E000BFB7
:101950003168002821F480313160316821F4802120
:1019600031604FD0FFF7D8FC054600BF30688003D8
:101970003FF5B5AEFFF7D0FC401B6428F6D9032035
:1019800002B0BDE8F08100BF04F11C052FCD084373
:101990000021CFF6FF7140EA821001EBC3316FF3F3
:1019A0000F0140EA05600843706001203866FFF7C8
:1019B000B3FC0446306880013FF5E3AEFFF7ACFCB2
:1019C000001B02284FF00300F4D9DBE6FFF7A4FC6C
:1019D000054641F2883700BF306F800708D5FFF712
:1019E0009BFC401BB8424FF00300F5D9CAE600BF8C
:1019F000B8F1000F7FF497AE306C20F08050306467
:101A000091E600BFFFF788FC054600BF3068800301
:101A10007FF565AEFFF780FC401B64284FF00300A4
:101A2000F4D9AFE6411E0020B0EB116F1CBF0120BE
:101A300070474EF21002CEF2000251604EF6235172
:101A4000CEF20001F0230B70072190601160704707
:101A50007047000070470000002804BF0120704755
:101A600010B5044690F8410028B9002084F84000E1
:101A7000204600F021F8242084F841002068C16845
:101A800021F40051C160204600F0E6FC20680169A5
:101A900021F490410161416921F02A014161C1684D
:101AA00041F40051C16000202021606484F841109D
:101AB00084F84210606310BD70B586B004460168BA
:101AC00044F60000C4F20000814201D006B070BDAF
:101AD000002643F630010196C4F202010A6900F5BE
:101AE000E03042F480220A610A6902F48022019205
:101AF000019A01960A6842F004020A60096801F03E
:101B00000401019101994FF4406101910221CDE955
:101B10000216032104910721059101A9FFF718FB83
:101B200040F2BC1546F22800C2F20005C4F20200E1
:101B30004FF0006185E843004FF440304FF480627D
:101B40004FF48073C5E908062846C5E90362C5E974
:101B50000566EB61FFF7E6F9002818BFFEF71CFDEC
:101B6000272000210022E563AC63FFF755FC272006
:101B7000FFF742FC06B070BD70B582B0044690F825
:101B8000420020280AD113460A4600294FF00100DE
:101B900018BF002B06D102B070BD00BF022002B0FA
:101BA00070BD00BF002622202663A262A385666462
:101BB00084F842002168E06B42F2E12C42F2414E8F
:101BC00042F26515C0F6000CC0F6000EC0F6000526
:101BD0000431C0E90FCEC0E91356FFF755FA01965C
:101BE000206801680191416801910199216929B337
:101BF00050E8030F216840F4807041E80302EAB125
:101C0000206850E8030F216840F4807041E8030227
:101C1000A2B1206850E8030F216840F4807041E8C9
:101C200003025AB1206850E8030F216840F4807025
:101C300041E8030212B12068DAE700BF206850E8EB
:101C4000050F216840F0010041E80502E2B120687B
:101C500050E8050F216840F0010041E805029AB103
:101C6000206850E8050F216840F0010041E80502B6
:101C700052B1206850E8050F216840F0010041E8AA
:101C80000502002ADAD100BF206850E8050F21685C
:101C900040F0400041E80502DAB1206850E8050F45
:101CA000216840F0400041E8050292B1206850E808
:101CB000050F216840F0400041E805024AB1206864
:101CC00050E8050F216840F0400041E80502002A75
:101CD000DAD1002002B070BD7047000070470000EC
:101CE000FEE7000080B540F2941046F20041C2F2D7
:101CF0000000C4F200010322002380E80E0000F17E
:101D00000C014FF4102C4FF4001E81E80850836141
:101D10008383FEF7EBFE002808BF80BDBDE880404E
:101D2000FEF73ABC80B582B00020019043F6300047
:101D3000C4F202000168002241F400110160006851
:101D4000002100F40010019001980C20FFF764FBC3
:101D50000C2002B0BDE88040FFF74EBB70B586B0E6
:101D6000002043F6300105900090C4F202010A6899
:101D700041F6004442F001020A600A68C4F202041B
:101D800002F001020092009A00900A684FF4E055B8
:101D900042F008020A600A68012602F00802009276
:101DA000009A00900A6842F004020A600A6802F091
:101DB00004020092009A00900868012240F080001E
:101DC000086008684FF4E05100F08000009000982F
:101DD0002046FFF79BFA0220049001A92046CDE996
:101DE00001560396FFF7B4F906B070BD80B540F216
:101DF0001C2044F60001C2F20000C4F2000148F2C7
:101E0000A062C0F20102002380E80E0000F10C0184
:101E10004FF4806C4FF0040E81E80850C0E906339F
:101E2000FFF71AFE002808BF80BDBDE88040FEF71E
:101E3000B3BB0000FEE70000FEE70000002867D00B
:101E4000411C8B6BCA6B01EE103ACB6310EE903ADB
:101E500000784B6110EE103A30EEC00A8B6110EE44
:101E6000103A00280A648B6356D0012840F0AC80F9
:101E700002EE102A0A684B6803EE102A30EE414A3F
:101E800024EE033A04EE103A13EE102A20EE044A30
:101E900088680A6214EE102A31EE011A4A620A6B4F
:101EA00030EE410A32EE000A01EE100A4A6310EEEB
:101EB000102A20EE010A10EE100A8862C869D1F8D3
:101EC0000CC033EE041A31EE000A01EE100A31EEB6
:101ED000000A01EE10CACB6AB4EE410A10EE100AF5
:101EE000F1EE10FA0B63CA62C861C2BFC1F81CC030
:101EF000B0EE410A7047B1EE411AB4EE410AF1EE7C
:101F000010FABEBF11EE100AC861B0EE410A704768
:101F10009FED2F0A704700BF08684A6802EE100A5A
:101F200020EE022A12EE100A0862486A03EE102A16
:101F300004EE100A23EE003A33EE043A8B6813EEF7
:101F4000100AD1F810C04862086B30EE410A01EE69
:101F5000103A486310EE100A20EE010A01EE10CA92
:101F6000CA6AB4EE413AC86210EE100AF1EE10FAF5
:101F70000A63886206DCB1EE411AB4EE413AF1EE32
:101F800010FA04DA11EE100AB0EE413A4862C8685D
:101F900032EE031A30EE010A01EE100AB4EE410AE5
:101FA00010EE102AF1EE10FACA6109DCB1EE411A06
:101FB000B4EE410AF1EE10FAA8BF704711EE100A14
:101FC000B0EE410AC8617047C86900EE100A704758
:101FD000000000007047000080B540F21C23C2F2F0
:101FE0000003D3F800C0DCF8143043F04003CCF811
:101FF0001430DCF80C3043F01003CCF80C3040F215
:10200000BC13C2F20003D3F800E0DEF800C02CF0ED
:10201000010319E0DEF8003023F00103CEF80030B0
:10202000DEF80030DB071FBFDEF8003023F00103CD
:10203000CEF80030DEF8003018BF5FEAC37315D069
:10204000DEF8003023F00103CEF80030DEF8003077
:10205000DB071FBFDEF8003023F00103CEF80030AD
:10206000DEF8003018BF5FEAC373D3D144F604032F
:10207000C4F20003CEF80830CEF80C00CEF81010F1
:10208000CEF80420DEF8000040F48020CEF80000F6
:10209000DEF8000040F00100CEF8000080BD000036
:1020A00070470000FFF73EB9B0B592B0002443F688
:1020B0004000CDE90A44CDE908440594CDE9034444
:1020C000CDE901440094C4F202000168022541F008
:1020D00080510160006800F080500090009847F245
:1020E00000000094C4F20000016841F480410160E6
:1020F000006800F4804000900098012006904FF4A2
:10210000803007904FF480000D9006200E90A8209C
:10211000CDE90F050420119006A80C95FFF7C6FA2B
:1021200010B172B6FEE700BF0F20CDE901054FF4F4
:10213000A05004904FF48050059001A8052103940D
:10214000FFF7A6F910B172B6FEE700BF12B0B0BD3E
:102150004EF68850CEF20000016841F47001016033
:1021600070470000806B01684A6990F84130212B6C
:102170002ED112F080022BD00022C28451E8031F1E
:10218000026821F0C00142E80313EBB1016851E895
:10219000031F026821F0C00142E80313A3B10168E4
:1021A00051E8031F026821F0C00142E803135BB14C
:1021B000016851E8031F026821F0C00142E80313DF
:1021C00013B10168DAE700BF202180F841100168EF
:1021D0004A6990F84230222B7CD112F0400279D02B
:1021E0000022C28551E8031F026821F4907142E881
:1021F0000313C3B3016851E8031F026821F490710F
:1022000042E803137BB3016851E8031F026821F41D
:10221000907142E8031333B3016851E8031F026869
:1022200021F4907142E80313EBB10168DAE700BFD3
:10223000016851E8051F026821F0010142E8051319
:10224000DBB1016851E8051F026821F0010142E895
:10225000051393B1016851E8051F026821F00101DF
:1022600042E805134BB1016851E8051F026821F0EF
:10227000010142E80513002BDAD1016B012924D1B9
:10228000016851E8031F026821F0100142E80313BE
:10229000DBB1016851E8031F026821F0100142E838
:1022A000031393B1016851E8031F026821F0100184
:1022B00042E803134BB1016851E8031F026821F0A3
:1022C000100142E80313002BDAD1202180F84210DC
:1022D00000210163416C41F010014164FFF7BABB7A
:1022E0000168806B0968C90500F19F800021C185E4
:1022F000016851E8031F026821F4807142E803136A
:10230000E3B1016851E8031F026821F4807142E8DB
:1023100003139BB1016851E8031F026821F4807127
:1023200042E8031353B1016851E8031F026821F426
:10233000807142E80313002BDAD100BF016851E835
:10234000051F026821F0010142E80513BBB30168D3
:1023500051E8051F026821F0010142E8051373B33B
:10236000016851E8051F026821F0010142E80513E8
:102370002BB3016851E8051F026821F0010142E812
:102380000513002BDAD11AE0016851E8051F026835
:1023900021F0400142E80513DBB1016851E8051F57
:1023A000026821F0400142E8051393B1016851E849
:1023B000051F026821F0400142E805134BB1016896
:1023C00051E8051F026821F0400142E80513002B87
:1023D000DAD1202180F84210016B012925D100BFFC
:1023E000016851E8031F026821F0100142E803135D
:1023F000DBB1016851E8031F026821F0100142E8D7
:10240000031393B1016851E8031F026821F0100122
:1024100042E803134BB1016851E8031F026821F041
:10242000100142E80313002BDAD100214163016B54
:10243000012918BFFFF750BC818DFFF709BB0000D1
:10244000806B01214163016B012918BFFFF746BC76
:10245000818D4908FFF7FCBA10B504460068D4E93D
:1024600002C22369016921F440511143016162698B
:1024700043EA0C01E3691143C268194349F20C6352
:102480009A431143C1604169A26921F4407141F24C
:102490000043114340F48062C4F201039A42416157
:1024A00002D1FFF7B9F801E0FFF7A2F8E16963682C
:1024B0001922B1F5004FA0FB02011FD15A00DB0F1A
:1024C000FDF7D2FE48F21F51C5F2EB11A0FB01232C
:1024D0005A096FF0630302FB0300322303EBC000D1
:1024E000A0FB01014FF4F87000EA111000EB02109C
:1024F000C1F3421108442168886010BD9A009B0F07
:10250000FDF7B2FE48F21F51C5F2EB11A0FB01230B
:102510005A096FF0630302FB0300322303EB001040
:10252000A0FB0101F02000EA511000EB0210C1F302
:10253000431108442168886010BD0000F0B582B0E6
:1025400040F21C20C2F2000000680168890600F118
:10255000858044F60001C4F200010968C90640F113
:10256000FC800021009101682423009140680090C4
:10257000009840F2BC10C2F20000006802680168D6
:10258000120321F0010101604168436089B26FD4F8
:102590000268122942F400220260026842F001023D
:1025A000026040F0DA8040F23410C2F20000817D17
:1025B000C27D41EA022CC27D037E90F818E0417E84
:1025C000847E857EC67EC77ED208C7F301178772D8
:1025D000C77E63F34A12BB09C372037F477F89003A
:1025E00043EA07238381837FC77F41EA9E1143EA41
:1025F0000723C38190F8203090F8217064F38A217A
:1026000043EA0723038290F822306F08837490F81E
:10261000233066F3CA17C37490F8243090F825600D
:10262000CCF1000543EA0623838290F8263090F827
:102630002760A1F580616FF3DF2543EA06238180DF
:10264000A7F58061A5F58066A2F58062C180A3F53B
:10265000806106804280018102B0F0BD00210191BD
:102660000168019140680190019802B0F0BD00BF7F
:1026700046F22802C4F202021368122923F400234E
:102680001360026842F00102026066D140F2341029
:10269000C2F2000090F83A1090F83B2041EA022C78
:1026A00090F83B2090F83C3090F83C7090F83D60FA
:1026B00090F83E5090F83E4090F83FE090F83F1080
:1026C000D208C1F30111817290F83F1063F34A12EE
:1026D0008909C17290F8401090F84130B60041EA83
:1026E0000321818190F8421090F8433046EA971612
:1026F00041EA0321C18190F8441090F8453065F318
:102700008A2641EA0321018290F846106308817409
:1027100090F84710CCF10005C17490F8481090F87B
:102720004970A2F5806241EA0721818290F84A103F
:1027300090F84B706EF3CA136FF3DF2541EA07215F
:102740004280A6F58062A5F580678280A3F580624D
:10275000A1F580610780C280018102B0F0BD000058
:10276000FEE7000010B58AB040F294140120002169
:10277000C2F200040890CDE90610CDE90011CDE9C0
:102780000211CDE9041169462046FDF773FF20468A
:10279000FEF7ACFA20460221FDF702FF0AB010BD99
:1027A000FEF7CEFDFFF780FCFFF7D8FAFFF7BAFA85
:1027B000FFF798FAFFF71AFB00F0CEF840F270042A
:1027C00040F21C25C2F20004C2F2000504F1180117
:1027D00028461222FFF7D0F92868C16841F010019D
:1027E000C160FFF7BFFF9FED4D8A04F12A05DFEDC1
:1027F000480A9FED481ADFED481AB0EE080A28464D
:102800000021B0EE482A00F08BF840F20C1740F29D
:102810003418002604F10809C2F20007C2F20008C9
:10282000C4F27A4648464FF47A7164220023FDF7D9
:1028300087FEB7F90200D4ED020A00EE100AB8EEE6
:10284000C00A2846FFF7FAFAB7F90C10BDEEC00A25
:1028500010EE100A00EE101AD4ED030A2080B8EE34
:10286000C00A2846FFF7EAFAB7F91610BDEEC00A0B
:1028700010EE100A00EE101AD4ED040A6080B8EED3
:10288000C00A2846FFF7DAFAB7F92010BDEEC00AF1
:1028900010EE100A00EE101AD4ED050AA080B8EE72
:1028A000C00A2846FFF7CAFABDEEC00A10EE100AA9
:1028B00098F80A10E0800020022908BF2046FDF7A2
:1028C000D9FDB7F90200F0EE480A00EE100AB8EEA2
:1028D000C00A2846A660E660FFF7B0FAB7F90C1008
:1028E000BDEEC00A10EE100A00EE101AD4ED030A75
:1028F0002080B8EEC00A2846FFF7A0FABDEEC00A55
:1029000010EE100A60802046FDF7EEFD8AE700BF5A
:10291000CDCCCC3D0000000000401C4600007A44B5
:10292000002808BF704780B5421C00F8151B10EE48
:10293000101A116010EE901A516011EE101A916089
:1029400011EE901AD16012EE101A11613021FDF7CC
:1029500003FDBDE88040704740F23411C2F200012F
:1029600001F116003A312422FFF736BBF1EE100ACE
:102970004FF6FF71C0F2C03120EA010040F0407014
:10298000E1EE100A704700000000000000000102A4
:102990000304060708090000000001020304000602
:1029A0001016000610160000C829000800000020BC
:1029B00010000000C4010008D82900081000002001
:1029C00058080000E00100080100000010000000AD
:0829D0000024F40000000000E7
:040000050800018965
:00000001FF
