:020000040800F2
:10000000000900205502000855220008F5200008CC
:100010005122000891040008B52C000800000000DF
:10002000000000000000000000000000A5240008FF
:10003000A105000800000000D9230008A924000839
:100040006F0200086F0200086F0200086F020008CC
:100050006F0200086F0200086F0200086F020008BC
:100060006F0200086F0200086F0200086F020008AC
:10007000950500086F0200086F0200086F02000873
:100080006F0200086F0200086F020008B904000840
:1000900095040008A1040008AD0400086F020008E0
:1000A0006F0200086F0200086F0200086F0200086C
:1000B0006F0200086F0200086F0200086F0200085C
:1000C0006F0200086F0200086F0200086F0200084C
:1000D0006F0200086F0200086F020008992A0008EA
:1000E0006F0200086F0200086F0200086F0200082C
:1000F0006F0200086F0200086F0200086F0200081C
:100100006F0200086F0200086F0200086F0200080B
:100110006F0200086F0200086F0200086D250008DA
:100120006F0200086F0200086F0200086F020008EB
:100130006F0200086F0200086F0200086F020008DB
:100140006F0200086F0200086F0200086F020008CB
:100150006F0200086F0200086F0200086F020008BB
:100160006F0200086F0200086F0200086F020008AB
:100170006F0200086F0200086F0200080000000014
:100180006F0200086F02000800F002F800F052F859
:1001900014A696E8000CB244B344DA4501D100F04D
:1001A00049F8BAE80F000FA696E83000A5EB040561
:1001B00004EB0607AAEB0704A7F101074FEA1515A0
:1001C0004FEA3414A4F10104AC4201D300F032F838
:1001D00013F0010F18BFFB1A43F0010300F001F800
:1001E000DBE71847E82C0000082D0000103A24BF78
:1001F00078C878C1FAD8520724BF30C830C144BF8C
:1002000004680C6070470000704700000023002461
:1002100000250026103A28BF78C1FBD8520728BF16
:1002200030C148BF0B6070471FB502F031FE1FBDE3
:1002300010B510BD00F0F2F81146FFF7F5FF02F01F
:1002400079FD00F010F903B4FFF7F2FF03BC00F0F2
:1002500017F900000948804709480047FEE7FEE714
:10026000FEE7FEE7FEE7FEE7FEE7FEE7FEE7FEE766
:1002700004480549054A064B704700005925000807
:10028000890100080003002000090020000500206B
:100290000005002053EA020C00F069802DE9F04BC4
:1002A0004FF00006002B1FBFB3FA83F503FA05F4E5
:1002B00024FA05F65E4012BF1643B2FA82F502FA3E
:1002C00005F4C5F120051EBF22FA05FC44EA0C0422
:1002D000203556EA044C4FEA144418BF641C4FF012
:1002E00000084FF00009904271EB030C39D300294C
:1002F00019BFB1FA81F701FA07F6B0FA80F700FAF0
:1003000007F6C7F120071EBF20FA07FC46EA0C06D5
:100310002037B6FBF4FCA7EB0507103F07F01F0BD7
:10032000CBF120062CFA06F60CFA0BFB44BFB346C1
:100330000026202FA4BF5E464FF0000B5BEA060CA0
:1003400008BF4FF0010B19EB0B0948EB0608ABFB9C
:10035000027C06FB02CC0BFB03CCC01B71EB0C0137
:10036000C1E70B46024641464846BDE8F08B13B54F
:10037000084318BF4FF0FF300146AFF30080BDE8DF
:100380001C4070474FF000020429C0F0128010F0AA
:10039000030C00F01B80CCF1040CBCF1020F18BF61
:1003A00000F8012BA8BF20F8022BA1EB0C0100F0F4
:1003B0000DB85FEAC17C24BF00F8012B00F8012BC7
:1003C00048BF00F8012B70474FF0000200B51346FC
:1003D00094469646203922BFA0E80C50A0E80C5065
:1003E000B1F12001BFF4F7AF090728BFA0E80C5016
:1003F00048BF0CC05DF804EB890028BF40F8042B0F
:1004000008BF704748BF20F8022B11F0804F18BF7B
:1004100000F8012B7047704770477047754600F031
:100420002BF8AE4605006946534620F00700854686
:1004300018B020B5FFF71CFFBDE820404FF00006C4
:100440004FF000074FF000084FF0000BAC46ACE84F
:10045000C009ACE8C009ACE8C009ACE8C00921F0AB
:1004600007018D46704710B50446AFF30080204663
:10047000BDE81040FFF7E7BE0048704710000020BD
:1004800001491820ABBEFEE72600020070470000BD
:10049000FEE7000040F27010C2F2000000F0FAB96E
:1004A00040F27010C2F2000000F0F4B940F2701097
:1004B000C2F2000000F0EEB940F27010C2F200008B
:1004C00000F0E8B980B540F2B403C2F2000341780D
:1004D0001A4602F8041F01784FF4007C597190F815
:1004E00003E0194683F806E090F802E041F81CCFDB
:1004F00083F807E090F805C04FF0000E83F808C0BD
:1005000090F804C0C3F824E083F809C090F807C04D
:10051000C3F828E083F80AC080794FF0080CD8723D
:1005200040F27010C2F20000C3F82CC000F056F880
:100530000120BDE8804000F061BE000080B58AB0B7
:1005400040F2FF11029100210289CDE90411082136
:10055000069111BA4289090CADF8201011BA8289AE
:10056000C089090C00BAADF8221011BA000C090CB0
:10057000ADF8260040F27010ADF82410C2F2000071
:1005800002A908AA01AB00F029F8012000F036FE0C
:100590000AB080BD40F29810C2F2000000F048BCE2
:1005A0007047000072B600BFFEE7000090F8202000
:1005B000013A012A08D8006800F1140200201368EB
:1005C00019431160704700BF00F1240201204FF46D
:1005D00080211368194311607047000010B590F82E
:1005E00020E0D0F800C0AEF1010EBEF1010FDCF842
:1005F00008E011D81EF0E05F18D0CEF301640120AE
:10060000A04018608B68DBB1D1F804E0C86840EA0C
:10061000CE0040EA030E17E000F1240301204FF45E
:1006200080211A681143196010BD00BF00F1240336
:1006300001204FF400111A681143196010BD00BF6A
:100640000868CB6843EA405E0CF5C07000EB041309
:10065000240140F804E00C69184640F8044F097D75
:10066000012903D1016841F48071016050680121C2
:10067000D8601068986000201A681143196010BD96
:1006800090F82020013A012A30D8B0B546F2006037
:10069000C4F20000026842F001020260026822F423
:1006A0007C520260D1F814E0CC694A6A0368012CDC
:1006B00043EA022202600EF01F024FF0010303FA28
:1006C00002F2C3696FEA020C23EA0203C36113D08A
:1006D0002CBBC36803EA0C03C360CB688C8844EA74
:1006E000034300EBCE0423640B4611E0416A41F45E
:1006F0008021416201207047C3681343C3600B68C7
:100700008C8844EA034300EBCE04236401F10C031C
:100710008C681B8843EA044300EBCE04636443689F
:100720008D6943EA0204D1F810E0096A002D08BF80
:1007300003EA0C0444604369BEF1000F43EA02047B
:1007400008BF03EA0C040129446102D1C1691143C5
:10075000C161016821F0010101600020B0BD00000D
:1007600070470000B0B590F82040013C012C7DD8C6
:10077000D0F800C000290CBFDCF80C40DCF81040B9
:10078000A4077DD00CF5D8754FEA011C55F80C4034
:1007900014F00404946055F80CE005EB011C19BF3B
:1007A0004FEADE0555604FEA5E551560DCF80050F3
:1007B000E64605F00205D5605EF8044F24075ABFEF
:1007C000DEF8004004F00F0408241461DEF8004055
:1007D0000029C4F307249461DEF800504FEA154560
:1007E0005561DCF808201A70026802EB0112D2F899
:1007F000B8214FEA12225A70026802EB0112D2F8B5
:10080000B8214FEA12429A70026802EB0112D2F844
:10081000B8214FEA1262DA70026802EB0112D2F8D4
:10082000BC211A71026802EB0112D2F8BC214FEA16
:1008300012225A71026802EB0112D2F8BC214FEA6F
:1008400012429A71026802EB0112D2F8BC214FEAFF
:100850001262DA7100680CBF00F10C0100F11001A6
:10086000002020220B681A430A60B0BD00F1240169
:1008700001204FF480220B681A430A60B0BD00BF0C
:1008800000F1240101204FF400120B681A430A60A2
:10089000B0BD00002DE9F04F81B004460068466904
:1008A000D0F804908768D0F80CB0D0F810A0D0F839
:1008B0001880F10704D1002530071DD424E000BFC3
:1008C000F90710D00121BA07816009D4780700F137
:1008D000AF80380700F1B680204600F09BFA02E0B6
:1008E000204600F099FA0025F80500F18780F8030A
:1008F00000F1B180300707D51BF0100004D020684C
:1009000045F400751021C160700708D51BF0080080
:1009100005D020680821C160204600F0BFF9B0076B
:1009200006D52068C068800702D0204600F0B8F9DC
:10093000700607D51AF0100004D0206845F48065D1
:1009400010210161B00608D51AF0080005D0206812
:1009500008210161204600F0E5F9F00606D520687F
:100960000069800702D0204600F0DEF9B00308D508
:1009700019F0100005D0206810214160204600F0D9
:1009800019FAF00308D519F0080005D020680821ED
:100990004160204600F04AFA300440F19B805FEA53
:1009A000497040F1948006F4807008EA10202843D2
:1009B0005FEA8871014648BF41F00201B20558BFA5
:1009C00001465FEA48700D4648BF45F004057005D2
:1009D00058BF0D46300540F17A8018F0700000F0E5
:1009E00076801038000905286CD8DFE800F0036530
:1009F0005D61596945F0080564E000BF20684FF467
:100A00008071BA0581600BD4780515D438051DD4E2
:100A1000204600F003FAF8037FF56CAF1BE000BF3F
:100A2000204600F0FDF9F8037FF564AF13E000BF46
:100A30004FF4006558E700BF05F50055F8037FF552
:100A400059AF08E04FF480554EE700BF05F58045EB
:100A5000F8037FF54FAF20684FF48031BA0381600F
:100A60000AD4780310D4380314D4204600F0DAF9FD
:100A700030073FF541AF47E7204600F0D5F9300792
:100A80003FF53AAF40E700BF05F5004530073FF5B9
:100A900033AF39E705F5803530073FF52DAF33E744
:100AA00045F080050EE000BF45F020050AE000BFDC
:100AB00045F0400506E000BF45F0100502E000BF2C
:100AC00045F480752068816921F07001816120689A
:100AD0000421416055B1606A40EA05012046616227
:100AE00001B0BDE8F04FFFF73BBE00BF01B0BDE86D
:100AF000F08F0000002804BF01207047B0B5044605
:100B000090F8200010B9204600F06EF820680168C7
:100B100041F00101016000F05BFC0546206841687E
:100B2000C90705D100F054FC401B0B28F6D310E098
:100B3000016821F00201016000F04AFC054600BF97
:100B40002068416889070DD500F042FC401B0B2846
:100B5000F6D3606A052140F400306062012084F819
:100B60002010B0BD217E0268012922F0800208BF5A
:100B700080320260617E0268012922F0400208BFD3
:100B800040320260A17E0268012922F0200208BFE3
:100B900020320260E17E0268012922F0100218BFB3
:100BA00010320260217F0268012922F0080208BF8A
:100BB00008320260617F0268012922F0040208BF46
:100BC00004320260D4E901C2D4E9033561691A43F1
:100BD0002A431143ACF101021143C16100200121FC
:100BE000606284F82010B0BD80B586B046F2004146
:100BF0000068C4F20001002288420592CDE9032278
:100C00000292019202D006B080BD00BF43F63000D0
:100C10000092C4F20200036943F0007303610369A8
:100C200003F000730093009B0092036843F00803F5
:100C300003600068022300F0080000900098032081
:100C4000019004900920059001F5D43001A9CDE967
:100C5000023200F0E7FA13200021002200F070FCBD
:100C6000132000F05BFC14200021002200F068FC3F
:100C7000142000F053FC15200021002200F060FC3D
:100C8000152000F04BFC16200021002200F058FC3B
:100C9000162000F043FC06B080BD00007047000045
:100CA00010B588B040F2B404C2F2000440F27010F3
:100CB00004F10C03C2F2000001AA0021FFF752FD6B
:100CC0000198A0F20121032926D80138C2B2A189D6
:100CD000920052FA80F0E28909BA090C12BA04EBC8
:100CE0004000120C00EE101A9FED0C1AC286228AE8
:100CF000B8EE400A20EE010A9FED091A12BA120C52
:100D000020EE010A0287A27CBDEEC00A818610EEA9
:100D1000101A80F83A20818708B010BD0000003911
:100D20000000B4437047000010B588B040F2B4042E
:100D3000C2F2000440F2701004F11403C2F2000089
:100D400001AA0121FFF70EFD0198A0F20521032958
:100D50002AD8A18AFB30C2B209BA9200090C52FA11
:100D600080F040F28822E38AC2F2000200EE101AFC
:100D70009FED0E1A22F8101002EB40001ABA238BD6
:100D8000B8EE400A120C20EE010A9FED091A4280CB
:100D90001ABA120C20EE010A8280A27EBDEEC00AB1
:100DA00010EE101A8271018108B010BD00000039E8
:100DB0000000B44370470000B0B5044690F820002E
:100DC00001281DD1022084F820002068016821F04C
:100DD0000101016000F0FCFA054600BF2068406890
:100DE000C00713D000F0F4FA401B0B28F6D3606A5A
:100DF00040F400306062052084F820000120B0BD7E
:100E0000606A40F4002060620120B0BD0020606292
:100E1000B0BD000070470000704700007047000040
:100E200070470000704700007047000070470000E6
:100E3000F0B581B00021009140F20801C2F200013A
:100E40000B68D0E9166148F2B51537680822C1F67B
:100E50004E358A403A42A3FB05350CD003681C6826
:100E6000640708D51C6824F004041C60B260426D5D
:100E700042F00102426501228A403A4208D00368EA
:100E80005B691B0604D5B260426D42F00202426506
:100E900004228A403A4208D003681B689B0704D5A5
:100EA000B260426D42F00402426510228A403A422A
:100EB00019D001680B681B0715D5B2600B680A686A
:100EC0005B0309D4D20509D40A6822F008020A603B
:100ED000016C29B907E000BF110341D4016C11B1C5
:100EE000044688472046C26D202101FA02F33B42A6
:100EF00043D001680F68FF063FD5B36090F83570A6
:100F00000B68052F1CD123F016030B604B6923F0EF
:100F100080034B61036C0BB9836C1BB10B6823F02E
:100F200008030B603F219140B160012180F835102A
:100F3000016D0022002980F8342054D158E000BF10
:100F40000A685B0310D4D20512D40A6822F010029A
:100F50000A60012180F83510002180F8341007E084
:100F6000816C0029BCD1BEE7110301D4416C00E0C3
:100F7000C16B11B1044688472046416DC1B3416D34
:100F8000C9072ED0052180F835100168AA0A0B6820
:100F900023F001030B60009B0133934200931AD8A6
:100FA0000B68DB0717D0009B01339342009312D8E4
:100FB0000B68DB070FD0009B0133934200930AD8E4
:100FC0000B68DB0707D0009B01339342009302D8E4
:100FD0000B68DB07DFD1012180F83510002180F894
:100FE0003410C16C21B101B0BDE8F040084700BF2A
:100FF00001B0F0BD2DE9F041044600F0E9F9ECB193
:101000000546022084F835000020216884F8340069
:10101000086820F00100086021680868C00711D046
:1010200000F0D6F9401B0528F6D90325202303201C
:10103000636584F83550BDE8F08100BF0120BDE84C
:10104000F08100BF086848F23F02CFF21002D4E9F5
:10105000013500EA020C04F10C0898E8C10143EAEA
:101060000C032B431843D4E9072E30433843104375
:10107000626A40EA0E00042A40EA08031CD1206B91
:10108000D4E90A2E40EA0E00184308604869BEF110
:10109000000F20F0030040EA020040F0040C11D0E1
:1010A000B8F5005F36D0B8F1000F45D1022A46D01E
:1010B000012A3BD032B942E00B60486920F00700BA
:1010C00040EA020C01F0F8004AF6AB221038CAF6EA
:1010D000AA22A0FB02231A0942F6C263C1F814C077
:1010E000C0F600039A5C40F2FF335F284FF03F00E8
:1010F00021EA030100FA02F088BF0431C4E91612A4
:101100008860002301250020636584F83550BDE820
:10111000F08100BF032AD5D8012540230120DFE854
:1011200002F0030E030500BF82E700BFAEF1C070FE
:10113000B0FA80F0400904E0032A04D3C2D1CEF310
:1011400000600028BED0012540230120636584F89B
:101150003550BDE8F081000090F834C0BCF1010FBB
:1011600004BF0220704770B54FF0010C80F834C006
:10117000D0F858E090F835C0BCF1010F38D14FF0ED
:10118000020C80F835C04FF0000CC0F854C0D0F805
:1011900000C08468056CC06DDCF80060402C26F44B
:1011A0008026CCF80060CCF804300B4604BF134610
:1011B0000A463F2101FA00F0CCF80830CCF80C20A8
:1011C000CEF80800DCF8000040F01600CCF8000073
:1011D0002DB1DCF8000040F00800CCF80000DCF88D
:1011E000000040F00100CCF80000002070BD00BFFE
:1011F000002180F83410022070BD0000B0B5044614
:1012000000F0E6F8054640F20000C2F20000007867
:10121000611C18BF044400BF00F0DAF8401BA04274
:10122000FAD3B0BD2DE9F04F83B000F1200200F1F8
:101230003E4741F60045009207F1FF77C4F20205F0
:1012400008224FEAB726A84208BF072200254FF020
:1012500000084FF00009072E38BF4FEAB72201926D
:101260000AE000BF09F1010908F10208B9F1100F05
:1012700005F1040500F0A2800F68012202FA09FEC0
:1012800017EA0E0AEED0D1F804C003220CF00307CF
:101290007E1E02FA08F4012E6FEA040B12D884684D
:1012A000CE6804EA0B0406FA08F634438460446806
:1012B00024EA0E06CCF3001404FA09F4264346602F
:1012C00004E000BF032F01D103271EE0C6688C682D
:1012D00006EA0B0604FA08F42643022FC66014D16E
:1012E0006FF00302009E02EA590756F807C005F0A6
:1012F0001C040F220B69A2402CEA0202A3401A43ED
:10130000F251D1F804C00CF00307026807FA08F3A1
:1013100002EA0B021A431CF4403F0260A2D00022F2
:1013200043F644030292C4F202031A6843F60044EF
:1013300042F480421A601A68C4F2010402F4804246
:101340000292029A29F003024FF6084C2244CFF68B
:10135000FF7C52F80C3005F00C070F26BE40B3435B
:10136000019E06FA07F73B4342F80C30A2684B682F
:1013700042EA0A0743F60C4CDE0258BF22EA0A078B
:10138000A760C4F2010CDCF800209E0242EA0A07C2
:1013900058BF22EA0A07CCF8007062689E0342EA4E
:1013A0000A0758BF22EA0A0767602268DB0342EA9D
:1013B0000A0758BF22EA0A07276053E703B0BDE8CF
:1013C000F08F0000002A08BF090481617047000007
:1013D00040F2F820C2F200000068704740F20000BE
:1013E00040F2F821C2F20000C2F2000100780A685F
:1013F000104408607047000080B543F60040C4F216
:101400000200016841F400710160016841F48061EB
:101410000160016841F480710160032000F0BCF8B4
:101420000F2000F005F800F05DF8002080BD0000FE
:1014300070B586B0002543F640010195C4F2020163
:101440000A68044642F020020A60096801A801F017
:10145000200101910199694600F060F9049E002E77
:1014600018BF012600F07AF94DF68361B040C4F24E
:101470001B31A0FB01014FF0FF3000EB914140F226
:10148000F81041F20042C2F20000C4F2000240F241
:10149000E733C0E90021C0E902530561856100F02E
:1014A00095FB08B106B070BD40F2F810C2F2000022
:1014B00000F0BCFB0028F5D1372000F02FF80F2CEE
:1014C0000CD837202146002200F03AF840F20401FF
:1014D0000020C2F200010C6006B070BD012006B011
:1014E00070BD000082B0002043F640010190C4F2BC
:1014F00002014A6842F480424A604A6802F480422B
:101500000192019A0090086840F0805008600868D5
:1015100000F080500090009802B07047002848BF4B
:10152000704700F01F01012202FA01F11C2202EAB9
:10153000D0004EF20012CEF200028150704700003F
:1015400010B54EF60C5CCEF2000CDCF80030C3F3A4
:10155000022E8EF00704042C28BF0424BEF10303DE
:101560004FF0FF3E0EFA04F438BF0023A143994028
:101570000EFA03F39A43114300F00F0200F16043A7
:101580000901043A03F564436244002848BF02F1AC
:101590000C03197010BD00004EF60C51CEF2000184
:1015A0000A684FF6FF031A4060F30A2242F0806097
:1015B00040F0FD7008607047002804BF01207047AC
:1015C0002DE9F04143F60808C4F202080446D8F8B1
:1015D000F8030D4600F00700884207D288F8F85358
:1015E000D8F8F80300F00700A84277D120688107F7
:1015F00017D5410705D5D8F8001041F4E051C8F8D7
:101600000010010705D5D8F8001041F46041C8F872
:101610000010D8F80010A26821F0F0011143C8F8BA
:101620000010C00740D1D8F8F80300F00700A84226
:1016300007D988F8F853D8F8F80300F00700A84253
:101640004CD12068410707D5D8F80010E26821F492
:10165000E0511143C8F80010000708D5D8F8000081
:10166000216920F4604040EAC100C8F8000000F0A1
:101670009DF8D8F8001042F6AA62C1F30311C0F633
:101680000002515C40F2080220FA01F140F204002D
:10169000C2F200000068C2F200021160FFF7C8FE4B
:1016A0000020BDE8F08100BF6068811E022907D2DA
:1016B00058F8081C89015CBF0120BDE8F08111E0E9
:1016C000012807D158F8081C89035CBF0120BDE838
:1016D000F08107E058F8081C890703D40120BDE811
:1016E000F08100BFD8F8001021F003010843C8F8CA
:1016F0000000FFF76DFE064641F28837D8F800007B
:10170000616800F00C00B0EB810F8CD0FFF760FE39
:10171000801BB842F2D90320BDE8F0810F2202609D
:1017200043F60802C4F20202136803F003034360A5
:10173000136803F0F0038360136803F4E053C3609D
:10174000D2F800C04FF4E05303EADC030361D2F89F
:10175000F80300F0070008607047000040F208003E
:1017600043F60801C2F20000C4F2020100680968F1
:1017700042F6BA62C1F38221C0F60002515CC84051
:101780007047000040F2080043F60801C2F2000072
:10179000C4F202010068096842F6BA62C1F342313C
:1017A000C0F60002515CC8407047000010B543F617
:1017B0000404C4F20204606800F00C0008280BD096
:1017C000042819BF42F20040C0F2F40041F6003094
:1017D000C0F2B70010BD00BF20682168236849022D
:1017E00041F60031C0F2B70100F03F02C3F38810A8
:1017F0005CBF42F20041C0F2F401A1FB00010023F2
:10180000FEF748FD21680222C1F3014102EB4101CC
:10181000B0FBF1F010BD0000002804BF01207047AC
:101820002DE9F04182B00446007843F60006C00777
:10183000C4F202060CD0B06800F00C00042840F09E
:1018400081803068800303D56068002800F06881DB
:10185000207880071BD5B06810F00C0F09D0B06855
:1018600000F00C00082840F087807068400200F10A
:1018700083803068800703D5E068012840F05081FC
:101880003068216920F0F80040EAC100306020781B
:10189000000713D4207840072AD4A569002D00F052
:1018A0003A81B06800F00C00082840F0A580012DB6
:1018B00040F00E81012002B0BDE8F081606900288F
:1018C00000F082800020C4F247200121C0F8801E71
:1018D000FFF77EFD054600BF706F8007DAD4FFF783
:1018E00077FD401B0228F7D9032002B0BDE8F08144
:1018F000306C5FEAC0080AD400200190306C40F0E0
:1019000080503064306C00F080500190019847F2B4
:101910000007C4F200073868C00547D4386840F4AF
:1019200080703860FFF754FD054600BF3868C00579
:101930003CD4FFF74DFD401B0228F7D9032002B02D
:10194000BDE8F081B06800F00C00082803D1706891
:1019500040023FF576AF61683068B1F5803F07D04F
:10196000B1F5A02F40F09A8040F4802030603068BC
:1019700040F4803030609AE0E068002840F20000D7
:10198000C4F247205CD001210160FFF721FD05462C
:10199000306880073FF574AFFFF71AFD401B02283F
:1019A000F6D9032002B0BDE8F08100BFA168306F16
:1019B000012905D0052955D140F004003067306F6A
:1019C00040F00100306756E00020C4F247200021BB
:1019D000C0F8801EFFF7FCFC054600BF706F800753
:1019E0007FF558AFFFF7F4FC401B0228F6D903201F
:1019F00002B0BDE8F08100BF0027C4F247270020F5
:101A00003866FFF7E5FC022D05460DD130688001F0
:101A100040F18A80FFF7DCFC401B02284FF00300F6
:101A2000F4D902B0BDE8F0813068800173D5FFF7CA
:101A3000CFFC401B02284FF00300F5D9F1E700BFAF
:101A400000210160FFF7C4FC054600BF3068800735
:101A50007FF51DAFFFF7BCFC401B02284FF00300D1
:101A6000F4D9DEE720F001003067306F002920F064
:101A7000040030677AD0FFF7ABFC054641F28837A7
:101A8000306F800700F18480FFF7A2FC401BB84252
:101A9000F6D9032002B0BDE8F08100BF20F4803009
:101AA00030603068002920F4802030607AD0FFF761
:101AB0008FFC0546306880033FF5CAAEFFF788FC0F
:101AC000401B6428F6D9032002B0BDE8F08100BFB6
:101AD0007068E16900F480028A4221D1216A00F035
:101AE0003F028A421CD147F6C071626A0140B1EBE5
:101AF000821F15D1A16A4FF6FF73C903994300F401
:101B00004032A1F580318A420AD1E16A00F070606A
:101B1000B0EB016F04D1002002B0BDE8F08100BF3E
:101B2000012002B0BDE8F08104F11C052FCD08436F
:101B300040EA8210D9034FF6FF729143A1F580313C
:101B400040EA05600843706001203866FFF740FCFA
:101B5000044600BF30688001DDD4FFF739FC001B6C
:101B600002284FF00300F5D95BE700BFFFF730FC18
:101B7000054641F2883700BF306F800708D5FFF770
:101B800027FC401BB8424FF00300F5D949E700BFDE
:101B9000B8F1000F3FF581AE306C20F0805030641A
:101BA0007BE600BFFFF714FC054600BF30688003EA
:101BB0007FF54EAEFFF70CFC401B64284FF003008E
:101BC000F4D92EE77047000070470000002804BFDA
:101BD0000120704710B5044690F83D0028B9002058
:101BE00084F83C00204600F01FF8022084F83D00F5
:101BF0002068211D00F0C0FC012084F8460084F814
:101C00003E0084F83F0084F8400084F8410084F8E6
:101C1000420084F8430084F8440084F8450084F8C6
:101C20003D00002010BD00007047000090F83D10FE
:101C300001291CBF01207047022180F83D10006877
:101C400041F2FF72C168C4F20002904241F001010A
:101C5000C1600DDC40F2FF71C4F20001884215DC66
:101C6000B0F1804F2AD040F20041C4F2000123E0DD
:101C700040F2FF31C4F20101884213DC41F6000159
:101C8000C4F20001884219D0002113E040F600019F
:101C9000C4F20001884211D040F60041C4F20001B4
:101CA0000AE000BF44F20001C4F20101884205D0FD
:101CB00040F20041C4F20101884206D1816801F07E
:101CC0000701062904BF00207047016841F00101A7
:101CD00001600020704700007047000070B50446A6
:101CE0000068C5680669B10716D515F0020113D062
:101CF0006FF002010161012121778069800703D023
:101D00002046FFF7E9FF05E0204600F08FF8204667
:101D100000F08EF800202077700719D515F0040028
:101D200016D020686FF004010161022121778069DB
:101D300010F4407F04D02046FFF7CEFF06E000BF3E
:101D4000204600F073F8204600F072F8002020775B
:101D5000300717D515F0080014D020686FF008017F
:101D6000016104212177C069800703D02046FFF775
:101D7000B3FF05E0204600F059F8204600F058F87F
:101D800000202077F00619D515F0100016D0206835
:101D90006FF01001016108212177C06910F4407FC4
:101DA00004D02046FFF798FF06E000BF204600F071
:101DB0003DF8204600F03CF800202077F00718BFDF
:101DC00015F0010002D1300609D412E020686FF04E
:101DD00001010161204600F02DF8300609D515F00B
:101DE000800006D020686FF0800101612046FFF777
:101DF000E9FE700609D515F0400006D020686FF0A6
:101E000040010161204600F01FF8B00658BF70BDC8
:101E100015F0200008D021686FF0200220460A61EA
:101E2000BDE87040FFF7D0BE70BD000070470000F5
:101E300070470000006841F20041C4F2000188428E
:101E400018BF7047FFF7CABA70470000704700001C
:101E500070470000002804BF0120704710B50446F9
:101E600090F8410028B9002084F84000204600F096
:101E700021F8242084F841002068C16821F4005131
:101E8000C160204600F094FD2068016921F4904172
:101E90000161416921F02A014161C16841F40051A9
:101EA000C16000202021606484F8411084F8421051
:101EB000606310BD70B586B0044644F6000021682A
:101EC000C4F20000002681420596CDE90366029621
:101ED000019601D006B070BD43F630010096C4F201
:101EE00002010A6900F5E03042F480220A610A69C1
:101EF00002F480220092009A00960A6842F00402DE
:101F00000A60096801F00401009100994FF44061F2
:101F100001910221CDE902160321049107210591C7
:101F200001A9FFF77FF940F2981546F22800C2F2A6
:101F30000005C4F202004FF0006185E843004FF451
:101F400040304FF480624FF48073C5E9080628469C
:101F5000C5E90362C5E90566EB61FFF74BF80028A8
:101F600018BFFEF71FFB272000210022E563AC63AA
:101F7000FFF7E6FA2720FFF7D1FA06B070BD0000A0
:101F8000B0B582B090F84240202C0BD113460A46DF
:101F900000294FF0010118BF002B07D1084602B0FD
:101FA000B0BD00BF0221084602B0B0BD002522210D
:101FB000056382628385456480F84210D0F83CC096
:101FC00042F6390E42F69914C0F6000EC0F600042F
:101FD0000168CCE90FE442F2BD64C0F60004CCE92C
:101FE0001345043104466046FFF7B6F801952168B1
:101FF00020460A680192496801910199216929B333
:10200000016851E8031F026841F4807142E803133C
:10201000E3B1016851E8031F026841F4807142E8AE
:1020200003139BB1016851E8031F026841F48071FA
:1020300042E8031353B1016851E8031F026841F4F9
:10204000807142E80313002BDAD100BF016851E828
:10205000051F026841F0010142E80513BBB30168A6
:1020600051E8051F026841F0010142E8051373B30E
:10207000016851E8051F026841F0010142E80513BB
:102080002BB3016851E8051F026841F0010142E8E5
:102090000513002BDAD11AE0016851E8051F026828
:1020A00041F0400142E80513DBB1016851E8051F2A
:1020B000026841F0400142E8051393B1016851E81C
:1020C000051F026841F0400142E805134BB1016869
:1020D00051E8051F026841F0400142E80513002B5A
:1020E000DAD10021084602B0B0BD00007047000000
:1020F00070470000FEE7000080B540F2701046F225
:102100000041C2F20000C4F200010322002380E873
:102110000E0000F10C014FF4102C4FF4001E81E86A
:10212000085083618383FEF7E5FC002808BF80BD6B
:10213000BDE88040FEF736BA80B582B0002001903D
:1021400043F63000C4F202000168002241F400119D
:1021500001600068002100F40010019001980C203B
:10216000FFF7EEF90C2002B0BDE88040FFF7D6B9CA
:1021700070B586B0002043F630010590CDE903002C
:10218000CDE901000090C4F202010A6841F6004462
:1021900042F001020A600A68C4F2020402F001027D
:1021A0000092009A00900A684FF4E05542F008024D
:1021B0000A600A68012602F008020092009A009064
:1021C0000A6842F004020A600A6802F004020092FF
:1021D000009A00900868012240F0800008600868BA
:1021E0004FF4E05100F08000009000982046FFF787
:1021F000E9F80220049001A92046CDE90156039692
:10220000FFF710F806B070BD80B540F2402044F6EC
:102210000001C2F20000C4F2000148F2A062C0F264
:102220000102002380E80E0000F10C014FF4806CE5
:102230004FF0040E81E80850C0E90633FFF70AFEAC
:10224000002808BF80BDBDE88040FEF7ABB90000A4
:10225000FEE70000FEE7000000285BD0411C8B6B0E
:10226000CA6B01EE103ACB6310EE903A00784B61E6
:1022700010EE103A30EEC00A8B6110EE103A0028D2
:102280000A648B634AD0012840F0A08002EE102A35
:102290000A684B6803EE102A30EE414A24EE033AF6
:1022A00004EE103A13EE102A20EE044A88680A62FF
:1022B00014EE102A31EE011A4A620A6B30EE410A1E
:1022C00032EE000A01EE100A4A6310EE102A20EEE8
:1022D000010A10EE100A8862C869D1F80CC033EE0A
:1022E000041A31EE000A01EE100A31EE000A01EE86
:1022F00010CACB6AB4EE410A10EE100AF1EE10FAE1
:102300000B63CA62C86153DDC1F81CC0B0EE410A5C
:10231000704700BF9FED2F0A704700BF08684A68EA
:1023200002EE100A20EE022A12EE100A0862486A33
:1023300003EE102A04EE100A23EE003A33EE043ABC
:102340008B6813EE100AD1F810C04862086B30EEAB
:10235000410A01EE103A486310EE100A20EE010A1D
:1023600001EE10CACA6AB4EE413AC86210EE100A11
:10237000F1EE10FA0A63886206DCB1EE411AB4EE9F
:10238000413AF1EE10FA04DA11EE100AB0EE413AD9
:102390004862C86832EE031A30EE010A01EE100AF4
:1023A000B4EE410A10EE102AF1EE10FACA6109DC0F
:1023B000B1EE411AB4EE410AF1EE10FAA8BF70472F
:1023C00011EE100AC861B0EE410A7047C86900EE0C
:1023D000100A7047000000007047000080B540F20E
:1023E0004023C2F20003D3F800C0DCF8143043F0FD
:1023F0004003CCF81430DCF80C3043F01003CCF878
:102400000C3040F29813C2F20003D3F800E0DEF87B
:1024100000C02CF0010319E0DEF8003023F00103C6
:10242000CEF80030DEF80030DB071FBFDEF80030EA
:1024300023F00103CEF80030DEF8003018BF5FEA69
:10244000C37315D0DEF8003023F00103CEF800305E
:10245000DEF80030DB071FBFDEF8003023F0010399
:10246000CEF80030DEF8003018BF5FEAC373D3D176
:1024700044F60403C4F20003CEF80830CEF80C0092
:10248000CEF81010CEF80420DEF8000040F48020D2
:10249000CEF80000DEF8000040F00100CEF80000A9
:1024A00080BD0000704700007047000070B592B01A
:1024B00006AC20463021FDF787FF002543F640009B
:1024C0000595CDE90355CDE901550095C4F202000B
:1024D0000168022641F080510160006800F08050E0
:1024E0000090009847F200000095C4F200000168D7
:1024F00041F480410160006800F480400090009841
:10250000012006904FF4803007904FF480000D902A
:1025100006200E90A820CDE90F0604201190204639
:102520000C96FFF779F918B172B600BFFEE700BF4D
:102530000F20CDE901064FF4A05004904FF48050D5
:10254000059001A805210395FFF736F810B172B682
:10255000FEE700BF12B070BD4EF68850CEF200000C
:10256000016841F4700101607047000040F2F8100A
:10257000C2F20000FFF7B2BB10B540F6FF3E0368A1
:10258000C4F2000E40F2004C7045C4F2010C25DC90
:10259000B0F1804F2FD040F20042C4F200029042CE
:1025A00029D040F60002C4F20002904223D041F646
:1025B000FF72C4F20002904227DC70453ADCB0F1B1
:1025C000804F5BD040F20042C4F20002904255D0EE
:1025D00040F60002C4F200024EE000BF40F60042A6
:1025E000C4F20002904206D0604504D00022C4F23A
:1025F00001029042DBD14A6823F07003134341F695
:10260000FF72C4F200029042D7DD43F6FF72C4F2BB
:102610000102904220DC42F20002C4F20002904229
:102620002CD00022C4F20102904227D0604525D070
:1026300028E000BF40F60042C4F2000290421DD0E4
:1026400041F60002C4F20002904217D041F6004267
:10265000C4F2000210E000BF44F20002C4F2010222
:1026600090420BD044F60002C4F20102904205D021
:1026700044F20042C4F20102904203D1CA6823F43A
:102680004073134323F080024B69D1F800E08C685B
:102690001A430260C46240F48062C0F828E06245D8
:1026A00004BF09690163012141610169C90708BFCC
:1026B00010BD016921F00101016110BD806B01684D
:1026C0004A6990F84130212B2DD112F080022AD096
:1026D0000021C184016851E8031F026821F0C00194
:1026E00042E80313DBB1016851E8031F026821F0DF
:1026F000C00142E8031393B1016851E8031F026867
:1027000021F0C00142E803134BB1016851E8031FF7
:10271000026821F0C00142E80313002BDAD1202126
:1027200080F841100168496990F84220222A40F05F
:102730007D8011F0400179D00021C185016851E808
:10274000031F026821F4907142E80313BBB30168D0
:1027500051E8031F026821F4907142E8031373B338
:10276000016851E8031F026821F4907142E80313E5
:102770002BB3016851E8031F026821F4907142E80D
:102780000313002BDAD11AE0016851E8051F026833
:1027900021F0010142E80513DBB1016851E8051F92
:1027A000026821F0010142E8051393B1016851E884
:1027B000051F026821F0010142E805134BB10168D1
:1027C00051E8051F026821F0010142E80513002BC2
:1027D000DAD1016B012924D1016851E8031F026895
:1027E00021F0100142E80313DBB1016851E8031F37
:1027F000026821F0100142E8031393B1016851E827
:10280000031F026821F0100142E803134BB1016875
:1028100051E8031F026821F0100142E80313002B66
:10282000DAD1202180F8421000210163416C41F08F
:1028300010014164FFF70CBB0168806B0968C90592
:1028400000F19F800021C185016851E8031F0268E3
:1028500021F4807142E80313E3B1016851E8031FDA
:10286000026821F4807142E803139BB1016851E8CA
:10287000031F026821F4807142E8031353B1016819
:1028800051E8031F026821F4807142E80313002B12
:10289000DAD100BF016851E8051F026821F001018B
:1028A00042E80513BBB3016851E8051F026821F037
:1028B000010142E8051373B3016851E8051F02687E
:1028C00021F0010142E805132BB3016851E8051F0F
:1028D000026821F0010142E80513002BDAD11AE069
:1028E000016851E8051F026821F0400142E8051324
:1028F000DBB1016851E8051F026821F0400142E8A0
:10290000051393B1016851E8051F026821F04001E9
:1029100042E805134BB1016851E8051F026821F038
:10292000400142E80513002BDAD1202180F8421043
:10293000016B012925D100BF016851E8031F02681E
:1029400021F0100142E80313DBB1016851E8031FD5
:10295000026821F0100142E8031393B1016851E8C5
:10296000031F026821F0100142E803134BB1016814
:1029700051E8031F026821F0100142E80313002B05
:10298000DAD100214163016B012918BFFFF7AEBB0B
:10299000818DFFF75BBA0000806B01214163016B01
:1029A000012918BFFFF7A4BB818D4908FFF74EBA74
:1029B000B0B50446006804F108030ECB056919435D
:1029C00025F440552A4302616269E3691143C268F4
:1029D000194349F20C639A431143C1604169A269EA
:1029E00021F4407141F20043114340F48062C4F28B
:1029F00001039A42416103D1FEF7C4FE02E000BF29
:102A0000FEF7ACFEE1694FF69C7563681922C0F6CB
:102A1000FF75B1F5004FA0FB02011FD15A00DB0F7B
:102A2000FDF738FC48F21F51C5F2EB11A0FB012362
:102A30005A0905F1805302FB0300322303EBC00067
:102A4000A0FB01014FF4F87000EA111000EB021036
:102A5000C1F34211084421688860B0BD9A009B0F01
:102A6000FDF718FC48F21F51C5F2EB11A0FB012342
:102A70005A0902FB0500322303EB0010A0FB010101
:102A8000F02000EA511000EB0210C1F3431108449A
:102A900021688860B0BD00002DE9F04182B040F2AD
:102AA0004020C2F2000000680168890600F18080C1
:102AB00044F60001C4F200010968C90640F1F6803D
:102AC0000021009101682423009140680090009843
:102AD00040F29810C2F20000006801680268090321
:102AE00022F0010202604268436091B26AD4026837
:102AF000122942F400220260026842F001020260E0
:102B000040F0D48040F21010C2F20000817DC27DFE
:102B1000C57D067E047E477E90F81A8090F81AE004
:102B200090F81BC0C37E5242C1EB0221C3F30112D5
:102B30008272C37EEA089B09C372037F457F66F3F6
:102B40004A1243EA05238381837FC57FBE0043EA9F
:102B50000523C38190F8203090F8215046EA941460
:102B600043EA0523038290F822306FF3DF21837458
:102B700090F82330A1F58061C37490F8243090F868
:102B8000256068F38A2443EA0623838290F826307E
:102B900090F827604FEA5E070180A2F580616CF330
:102BA000CA1743EA06234180A4F5806177E000BF9D
:102BB000002101910168019140680190019802B0E3
:102BC000BDE8F08146F22802C4F20202136812291D
:102BD00023F400231360026842F00102026065D111
:102BE00040F21010C2F2000090F83A1090F83B202A
:102BF00090F83B5090F83C6090F83C8090F83D7025
:102C000090F83EE090F83E4090F83FC090F83F309A
:102C10005242C1EB0221C3F30112827290F83F309D
:102C2000EA089B09C37290F8403090F8415066F36F
:102C30004A1243EA0523838190F8423090F84350CA
:102C4000BE0043EA0523C38190F8443090F8455014
:102C50006FF3DF2143EA0523038290F8463046EA0A
:102C60009816837490F84730A1F58061C37490F88A
:102C7000483090F849506EF38A2643EA0523838250
:102C800090F84A3090F84B5067080180A2F58061B7
:102C90006CF3CA1743EA05234180A6F58061818061
:102CA000A7F58061C180A3F58061018102B0BDE814
:102CB000F0810000FEE7000070B58AB044F2200009
:102CC000009044F24000019044F26000002602901F
:102CD0004FF4814040F27014CDE903060E20C2F299
:102CE0000004012509906946204608950695079637
:102CF0000596FDF7C5FC44F2A000009044F2C00028
:102D0000019044F2E00002904FF4824003900220D0
:102D1000CDE90450694620460895CDE90666FDF7E1
:102D2000AFFC2046FEF748F820461221FDF73EFC96
:102D30000AB070BDFEF760FBFFF7B8FBFFF718FAAB
:102D4000FFF7FAF9FFF7D8F9FFF75EFA00F096F807
:102D500040F2700440F24025C2F20004C2F20005C5
:102D600004F1100128461222FFF70AF92868C16809
:102D700041F01001C160FFF79FFF40F2B025C2F2A1
:102D80000005DFED2B0A9FED2B1ADFED2B1A9FEDCF
:102D90002B2AB0EE080A2846002100F055F840F230
:102DA000E8089FED278A00279FED269A40F28826A3
:102DB000C2F20008C4F2FA37C2F20006B8F9020003
:102DC000F0EE480A00EE100AB8EEC00A2846FFF7F7
:102DD00043FABDEEC00A10EE100A20802046FDF72F
:102DE00071FBB6F90200F0EE490A00EE100AB8EEE7
:102DF000C00A28466763A763FFF72EFAB6F90C10DE
:102E0000BDEEC00A10EE100A00EE101AD4ED0E0A44
:102E10002081B8EEC00A2846FFF71EFABDEEC00AB0
:102E200010EE100A60812046FDF788FBC6E700BF60
:102E3000CDCCCC3D0000000000401C4600007A4490
:102E40000000C8420000FA43002808BF704780B560
:102E5000421C00F8151B10EE101A116010EE901AAB
:102E6000516011EE101A916011EE901AD16012EEBD
:102E7000101A11613021FDF785FA80BD40F2101162
:102E8000C2F2000101F116003A312422FFF7A6BA7E
:102E9000F1EE100A4FF6FF71C0F2C03120EA0100D6
:102EA00040F04070E1EE100A7047000000000000A2
:102EB00000000102030406070809000000000102E7
:102EC000030400061016000610160000F02E00087D
:102ED0000000002010000000EC010008002F000896
:102EE00010000020F00800000C02000800000000A4
:102EF00001000000100000000024F40000000000A9
:040000050800018965
:00000001FF
