:020000040800F2
:10000000E809002029020008B7200008111E000896
:10001000B520000821040008472400080000000063
:10002000000000000000000000000000BB200008ED
:100030006907000800000000B9200008BD20000882
:10004000430200084302000843020008430200087C
:10005000430200084302000843020008430200086C
:10006000430200084302000843020008430200085C
:10007000430200084302000843020008430200084C
:10008000430200084302000843020008430200083C
:100090002504000831040008430200084302000858
:1000A000430200084302000843020008430200081C
:1000B000430200084302000843020008430200080C
:1000C00043020008430200084302000843020008FC
:1000D00043020008430200084302000843020008EC
:1000E00043020008430200084302000843020008DC
:1000F00043020008430200084302000843020008CC
:1001000043020008430200084302000843020008BB
:1001100043020008430200084302000843020008AB
:10012000430200084302000843020008430200089B
:10013000430200084302000843020008430200088B
:100140003D04000849040008430200084302000877
:10015000430200084302000843020008430200086B
:10016000430200084302000843020008430200085B
:100170004302000843020008430200080000000098
:10018000430200084302000800F002F800F03CF8C7
:100190000AA090E8000C82448344AAF10107DA45E2
:1001A00001D100F031F8AFF2090EBAE80F0013F0F8
:1001B000010F18BFFB1A43F001031847CC260000BB
:1001C000EC260000103A24BF78C878C1FAD852074C
:1001D00024BF30C830C144BF04680C6070470000C1
:1001E0000023002400250026103A28BF78C1FBD840
:1001F000520728BF30C148BF0B6070471FB502F0DF
:1002000036FB1FBD10B510BD00F0D5F81146FFF745
:10021000F5FF02F093F900F0F3F803B4FFF7F2FFF3
:1002200003BC00F0F7F80000094880470948004780
:10023000FEE7FEE7FEE7FEE7FEE7FEE7FEE7FEE796
:10024000FEE7FEE704480549054A064B70470000F3
:100250005521000889010008E8030020E809002072
:10026000E8050020E805002053EA020C00F0698050
:100270002DE9F04B4FF00006002B1FBFB3FA83F5BA
:1002800003FA05F424FA05F65E4012BF1643B2FAEB
:1002900082F502FA05F4C5F120051EBF22FA05FC1D
:1002A00044EA0C04203556EA044C4FEA144418BFC3
:1002B000641C4FF000084FF00009904271EB030CF2
:1002C00039D3002919BFB1FA81F701FA07F6B0FA5C
:1002D00080F700FA07F6C7F120071EBF20FA07FCD7
:1002E00046EA0C062037B6FBF4FCA7EB0507103FE7
:1002F00007F01F0BCBF120060CFA0BFB2CFA06F6CD
:1003000044BFB3460026202FA4BF5E464FF0000B2B
:100310005BEA060C08BF4FF0010B19EB0B09ABFBB6
:10032000027C48EB0608C01B06FB02CC0BFB03CC8F
:1003300071EB0C01C1E70B46024641464846BDE859
:10034000F08B13B54FF000004FF00001AFF30080C9
:10035000BDE81C4070474FF0000200B513469446BC
:100360009646203922BFA0E80C50A0E80C50B1F10D
:100370002001BFF4F7AF090728BFA0E80C5048BF21
:100380000CC05DF804EB890028BF40F8042B08BFBF
:10039000704748BF20F8022B11F0804F18BF00F8BB
:1003A000012B704770477047704700000048704746
:1003B0008803002070477546FFF7F8FFAE4605003A
:1003C0006946534620F00700854618B020B5FFF770
:1003D00039FFBDE820404FF000064FF000074FF016
:1003E00000084FF0000B21F00701AC46ACE8C00953
:1003F000ACE8C009ACE8C009ACE8C0098D4670475C
:1004000010B50446AFF300802046BDE81040FFF76A
:1004100004BF000001491820ABBEFEE72600020021
:10042000FEE70000014800F097BB00001400002028
:10043000014800F091BB000014000020014800F0CA
:100440008BBB00003C000020014800F085BB000091
:100450003C00002030B58BB00020012401900290B8
:10046000CDE906040590049003900E250090CDE997
:10047000084569460C4800F051FA0B4800F0B8FDF9
:100480000221094800F0D0F9099569460748CDE9ED
:10049000044500F043FA054800F0AAFD1021034886
:1004A00000F0C2F90BB030BD140000203C00002069
:1004B0002DE9F04381462DED048BF0EE419AB0EE2C
:1004C000608A83B0F0EE428AB0EE619A88461020CE
:1004D000B2EE091AFAEE090A02F018F806460C20E4
:1004E000B3EE0E1AFBEE0E0AB0EE480A02F00EF85A
:1004F0009FED278A07460C209FED241AF0EE480A4C
:10050000B0EE690A02F002F805460C20B1EE041ABA
:10051000F0EE480AB0EE490A01F0F8FF04460C205C
:10052000B2EE041AFAEE040AB0EE680A01F0EEFF29
:100530000146002001900090300A8DF800008DF8EF
:10054000016038098DF8020007F0F00242EA152038
:100550008DF803008DF8045020098DF80500220164
:1005600042EA11208DF806008DF80710B8F8001047
:1005700008236A46484601F077FFC82000F0F6F8E5
:1005800003B0BDEC048BBDE8F08300000000FA432B
:10059000000000000A7F012A0ED0022A18D0032A88
:1005A0001DD0042A20D191ED0D1AD1ED0B0A91ED49
:1005B0000A0A098800F056B891ED0C2AD1ED0F1AFD
:1005C00091ED0E1AD1ED0B0A91ED0A0AFFF770BFFB
:1005D000D1ED0B0A91ED0A0A098800F020B891EDDF
:1005E0000B0A098800F072B870470A7F012A0AD006
:1005F000022A0BD0032A0DD0042A0FD109884FF408
:10060000407200F093B809880022FAE709884FF495
:100610008072F6E709884FF40072F2E770471CB564
:1006200010EE103A10EE902A8DF800301C0A8DF86A
:1006300001401C0C8DF802401B0E8DF803308DF824
:100640000420130A8DF80530130C8DF80630120EB5
:1006500001F580718DF8072089B208236A4601F000
:1006600003FF1CBD7CB510EE102A9FED160A8DF815
:100670000020150A20EE800A8DF80150150C8DF827
:100680000250BCEEC00A120E8DF8032010EE103A94
:100690009FED0D0A8DF804301A0A21EE000A8DF83C
:1006A000052001F5407189B2BCEEC00A082310EEA6
:1006B000104A8DF80640220A8DF807206A4601F09C
:1006C000D3FE7CBD0000C84200401C4608B510EEB9
:1006D000102A01F500718DF80020130A8DF8013001
:1006E000130C8DF80230120E8DF8032089B204230A
:1006F0006A4601F0B9FE08BD1CB51144FF228DF811
:1007000000208DF801208DF804208DF802208DF84E
:1007100005208DF803208DF80620FD228DF8072096
:1007200089B208236A4601F09FFE1CBD1CB5114426
:10073000FF228DF800208DF801208DF804208DF81F
:1007400002208DF805208DF803208DF80620FC226C
:100750008DF8072089B208236A4601F085FE4FF420
:10076000967000F003F81CBD7047000070B5084C8F
:100770000546002021684862204601F051F92068B2
:10078000416AA942FCD3BDE87040014801F084B938
:10079000F400002072B6FEE72DE9F0410C46B1F8F6
:1007A0000100C9781F4D0A01217940BA42EA1117A8
:1007B000627901F00F0142EA01262178F2EE090A7E
:1007C00001F00F01A9802178BAEE090A0909E98030
:1007D000102102F035F885ED020A0C21F3EE0E0A25
:1007E000BBEE0E0A384602F02BF885ED030A0C2109
:1007F000F2EE040ABAEE040A304602F021F885ED62
:10080000040AA07900EE100AB8EE400A85ED050A48
:10081000E07900EE100AB8EE400A85ED060ABDE860
:10082000F08100003C01002090F82020012A07D030
:10083000022A05D0416A41F48021416201207047BB
:10084000006842690A43426100207047F0B590F8A1
:1008500020500468A468012D05D0022D03D0416A00
:1008600041F4802157E014F0406F01D1E5004FD5ED
:10087000C4F301640125A5401D608D684FF4C07369
:100880009DB1CE6835434E6845EAC605066803EB60
:100890000417F5514FF4C275076805EB04150E698E
:1008A0007E51097D012905D009E00E88CD6845EA11
:1008B0004655EBE701684E5946F480764E51117962
:1008C000D579567941EA056195792D0445EA0625E1
:1008D00029434FF4C676056806EB0416A951117832
:1008E000D57841EA0561957852782D0445EA0222CF
:1008F00011434FF4C475026805EB041551510068AB
:1009000003EB0411425842F0010242500020F0BDB6
:10091000416A41F4001141620120F0BD10B590F828
:100920002020012A07D0022A05D0416A41F4802103
:100930004162012010BD3B48D0F8002242F0010284
:10094000C0F80022D0F8002222F47C52C0F8002225
:10095000D0F800224B6A42EA0322C0F800220A7D46
:1009600002F01F0301229A40D0F81C329343C0F8D2
:100970001C32CB69B3B9D0F80C329343C0F80C32B7
:100980008C894B6864F31F434C6900EBC404C4F8C2
:1009900040320C890B6864F31F434C6900EBC404BC
:1009A000C4F84432CB69012B16D1D0F80C32134372
:1009B000C0F80C320C884B6864F31F434C6900EBA1
:1009C000C404C4F840320C89CB6864F31F434C69FB
:1009D00000EBC404C4F844328B69002BD0F8043215
:1009E0000ED01343C0F804320B69002BD0F8143238
:1009F00008D01343C0F81432096A012904D008E072
:100A00009343EFE79343F5E7D0F81C121143C0F886
:100A10001C12D0F8001221F00101C0F800120020D1
:100A200010BD00000064004010B50446006809498C
:100A3000884203D102210848FFF7F6FE07492068E3
:100A4000884205D1BDE8104010210548FFF7ECBEF3
:100A500010BD000000640040140000200068004049
:100A60003C00002070B590F82040012C05D0022CED
:100A700003D0416A41F4802128E0046809B3246965
:100A8000A40720D04FF4D874056804EB01142D5945
:100A900015F00405956005682D591AD0ED085560CC
:100AA00005682C5904F00204D4604FF4DA74056828
:100AB00004EB01142E5906F00F06082E0CD308255E
:100AC0000DE0E468DCE7416A41F400114162012075
:100AD00070BD6D0D1560E3E72D5905F00F0515612B
:100AE00005682D59C5F30725956105682C59240C17
:100AF00054614FF4DC72046802EB0112A4581C70BC
:100B00000468A458240A5C700468A458240C9C70DF
:100B10000468A258120EDA704FF4DE72046802EB19
:100B20000112A4581C710468A458240A5C7104685A
:100B3000A458240C9C710468A258120EDA71006843
:100B400029B1016941F020010161002070BDC16837
:100B500041F02001C160F8E72DE9F05F054600682B
:100B600000244669D0F804908768D0F80CB0D0F81B
:100B700010A0D0F81880F10748D0F90714D001214F
:100B80008160B80703D5284600F05FFA0CE07807CB
:100B900002D54FF4006407E0380702D54FF48054C3
:100BA00002E0284600F050FAF80516D529684FF4FF
:100BB00080708860B80503D5284600F048FA0CE03C
:100BC000780502D544F4005407E0380502D544F412
:100BD000804402E0284600F039FAF80316D5296867
:100BE0004FF480308860B80303D5284600F031FA0E
:100BF0000CE0780302D544F4004407E0380302D542
:100C000044F4803402E0284600F022FA300707D589
:100C10005FEACB6004D52968102044F40074C860F2
:100C200070074FF0080707D55FEA0B7004D52868F6
:100C3000C760284600F0AAF9B00706D52868C06842
:100C4000800702D0284600F0A3F9700607D55FEAB6
:100C5000CA6004D52968102044F480640861B00695
:100C600007D55FEA0A7004D528680761284600F0B6
:100C7000B1F9F00606D528680069800702D0284639
:100C800000F0A9F9B00308D55FEAC96005D5296865
:100C900010204860284600F0AAF9F00307D55FEA63
:100CA000097004D528684760284600F0D3F930045D
:100CB00046D55FEA497040D5F00504D55FEAC870B3
:100CC00001D044F00104B00504D55FEA887001D575
:100CD00044F00204700504D55FEA487001D544F081
:100CE0000404300529D518F0700F26D008F07000E4
:100CF000402815D006DC102809D020280AD030283A
:100D000016D10AE050280ED0602811D10EE044F030
:100D100008040DE044F010040AE044F0200407E069
:100D200044F0400404E044F0800401E044F48074A2
:100D30002868816921F07001816129680420486078
:100D4000002C05D0686A204368622846FFF76CFED5
:100D5000BDE8F09F70B5040003D094F8200010B1F6
:100D600004E0012070BD204600F082F82068016890
:100D700041F00101016000F079FA0546052604E022
:100D800000F074FA401B0A2811D820684068C00798
:100D9000F6D02068016821F00201016000F066FAD7
:100DA00005460BE000F062FA401B0A2806D9606A8B
:100DB00040F40030606284F82060D2E72068406828
:100DC0008007EFD4207E0128206801683DD021F003
:100DD00080010160607E01282068016838D021F020
:100DE00040010160A07E01282068016833D021F015
:100DF00020010160E07E0128206801682ED041F0CA
:100E000010010160207F01282068016829D021F0AD
:100E100008010160607F01282068016824D021F06A
:100E200004010160D4E902010843D4E9041211432A
:100E300008436168491E08432168C8610020606258
:100E4000012084F82000002070BD41F08001C0E73F
:100E500041F04001C5E741F02001CAE721F010014F
:100E6000CFE741F00801D4E741F00401D9E70000E1
:100E7000F0B587B0044614216846FFF76CFA3E4B84
:100E80003E48DFF8F0E01968D4F800C03B4A03257B
:100E90000226092710300024491CF4452AD1196084
:100EA000012907D1016841F000710160006800F07C
:100EB00000700590106840F0080010601068CDE9DF
:100EC000005600F00800CDE9047069462C48CDE9D1
:100ED000024500F0D3F800220521142000F034FA76
:100EE000142000F023FA00221146152000F02CFAFD
:100EF00015203AE0DFF88CE0F44538D1D0F800C096
:100F00004CF0806CC0F800C0D0F800C001290CF093
:100F1000806CCDF814C0196007D1016841F00071F0
:100F20000160006800F000700590106840F0020059
:100F30001060106802AB00F0020005906020CDE95F
:100F4000000683E8B00069460F4800F097F80022D9
:100F50001146402000F0F8F9402000F0E7F90022A7
:100F60000521412000F0F0F9412000F0DFF907B041
:100F7000F0BD000000640040000000203038024056
:100F8000000C02400068004000040240704700006E
:100F900010B58AB00446002007900146089007ABC0
:100FA0006A462046FFF75EFD0849206888420BD15B
:100FB0000098112808D107A90548FFF7EDFB044860
:100FC00007A9001F01F03AFB0AB010BD0064004001
:100FD00040010020704700B589B0002107910891B9
:100FE00007AB6A460121FFF73DFD09B000BD704720
:100FF00070B5044690F82000012804D0606A40F4DF
:101000000020606218E0022084F820002068016857
:1010100021F00101016000F029F905460EE000BF52
:1010200000F024F9401B0A2808D9606A40F4003017
:101030006062052084F82000012070BD20684068AF
:10104000C007EDD1606270BD704770477047704750
:10105000704770477047000070B5044600F006F90D
:101060000546601C02D004480078044400F0FEF8F5
:10107000401BA042FAD370BD040000202DE9F84FB8
:10108000DFF8BCA10022012503264FF00F090AF169
:10109000040BAAF1040E00BF0B6805FA02F423400A
:1010A000A34270D10F7907F00307012F01D0022F5F
:1010B00016D187684FEA420806FA08FC27EA0C07AF
:1010C000D1F80CC00CFA08FC4CEA070CC0F808C0B8
:1010D0004768A7430C79C4F3001494403C43446030
:1010E0000C79E443A4070AD0C4684FEA420C06FA1C
:1010F0000CF7BC438F6807FA0CF72743C7600C79DD
:1011000004F00304022C12D1D40800EB840CDCF8A8
:1011100020405707FF0E09FA07F824EA0804D1F81F
:10112000108008FA07F848EA0408CCF82080046820
:101130004FEA420C06FA0CF7BC430F7907F003079D
:1011400007FA0CF7274307604C6814F4403F70D04F
:101150003C4C276847F480472760246822F0030747
:1011600004F480440094384C07EB040CDCF8084885
:1011700097074FEA177809FA08F7BC43334FB8428C
:1011800002D1002724E054E0314FB84201D10127B9
:101190001EE0304FB84201D1022719E02E4FB8426D
:1011A00001D1032714E02D4FB84201D104270FE0ED
:1011B0002B4FB84201D105270AE02A4FB84201D18E
:1011C000062705E0284FB84201D1072700E008278D
:1011D00007FA08F72743CCF80878DAF800405746B2
:1011E000D1F804C09C435FEACC2C00D51C433C6082
:1011F000DBF800405F46D1F804C09C435FEA8C2CCA
:1012000000D51C433C60DEF800407746D1F804C0AE
:101210009C435FEA8C3C00D51C433C60084F083F70
:101220003C68D1F804C09C435FEACC3C00D51C4329
:101230003C60521C102AFFF42FAFBDE8F88F00006D
:10124000083C0140443802400030014000000240A8
:101250000004024000080240000C0240001002405E
:101260000014024000180240001C0240014880683F
:101270007047000004000020024881680278114491
:1012800081607047040000200B4810B5016841F4EC
:1012900000710160016841F480610160016841F4FE
:1012A00080710160032000F06FF80F2000F006F855
:1012B00000F024F8002010BD003C024070B50D4D38
:1012C00004464FF47A712878B1FBF0F00A490968B6
:1012D000B1FBF0F000F0ECFA48B9102C07D2002274
:1012E0002146501E00F030F800206C6070BD0120D7
:1012F00070BD000004000020100000200A4808B55E
:10130000016841F480410160006800F48040009071
:101310000548001F016841F080510160006800F03D
:101320008050009008BD000044380240002809DBCE
:1013300000F01F02012191404009800000F1E020EF
:10134000C0F8001170470000F0B40E4B1B680C464B
:10135000C3F30223C3F10705042D00D90425191D89
:10136000072901D2002300E0DB1E012606FA05F161
:10137000491E214099409E40761E16403143F0BCE4
:1013800001F062B80CED00E0064900F007020868C1
:101390004FF6FF03184040EA0220034A104308605A
:1013A000704700000CED00E00000FA052DE9F04761
:1013B0000E46050065D0DFF81481D8F80000F7B2BA
:1013C00000F00700B04207D288F80070D8F800009B
:1013D00000F00700B04254D128683D4C810712D577
:1013E000400703D5206840F4E050206028780007CB
:1013F00003D5206840F4604020602068A96820F090
:10140000F000084320602878C0072DD03049686874
:101410000839012812D0022813D0032811D00968F6
:10142000890700292DDA216821F003010143216099
:10143000FFF71CFF814641F2883A0EE009688903F4
:10144000EFE709688901ECE7FFF710FFA0EB09015E
:10145000514502D90320BDE8F0872068696800F093
:101460000C00B0EB810FEFD1D8F80010404601F02E
:101470000701B14207D90770006800F00700B042C9
:1014800001D00120E7E72878400705D52068E96802
:1014900020F4E050084320602878000706D5206833
:1014A000296920F4604040EAC100206000F018F88B
:1014B0002168084AC1F30311515CC840064908601D
:1014C00006480068FFF7FAFE0020C4E7003C02402F
:1014D000083802407828000810000020080000208A
:1014E000154810B5006810F00C02144813D01449C8
:1014F000042A0FD0082A0ED10F4C241F226823681B
:1015000002F03F025B0207D52068C0F38810A0FB01
:10151000010106E0084610BD2168C1F38811A1FB56
:1015200000010023FEF7A0FE2168C1F30141491C20
:101530004900B0FBF1F010BD083802400024F4006F
:10154000001BB7002DE9F84F04006ED02078DFF8BB
:101550004C93C007A9F104054AD009F104000168C1
:10156000C1F38101012908D00068C0F3810002287D
:101570000AD1D9F80000400206D52868800337D583
:1015800060680028E1D033E06068B0F5803F10D09B
:10159000B0F5A02F286810D020F48030286028688B
:1015A00020F4802028606068A8B1FFF75FFE06463F
:1015B0000DE0286840F48030F4E740F48020286093
:1015C000F7E700BFFFF752FE801B642873D8286836
:1015D0008003F7D50CE0FFF749FE064605E000BFA3
:1015E000FFF744FE801B6428F0D828688003F7D4F6
:1015F0002078DFF8AC8280074FF0000A3ED5A7487C
:10160000001D016811F00C0F08D00068C0F38100C4
:1016100002280BD1D9F80000400207D428688007BF
:1016200016D5E068012800D112E033E1E068B8B1D6
:101630000120C8F80000FFF719FE064605E000BFCC
:10164000FFF714FE801B0228C0D828688007F7D552
:101650002868216920F0F80040EAC10028600DE008
:10166000C8F800A0FFF702FE064604E0FFF7FEFD03
:10167000801B02281FD828688007F7D4207800072D
:1016800022D5864F87486169703771B101210160A9
:10169000FFF7ECFD064604E0FFF7E8FD801B02289B
:1016A00009D838688007F7D50EE0C0F800A0FFF72A
:1016B000DDFD064605E082E0FFF7D8FD801B02282D
:1016C0007DD838688007F7D42078400768D5DFF8E0
:1016D000CCB100270BF13C0BDBF80000C0000BD4B1
:1016E000DBF8001041F08051CBF80010DBF800006F
:1016F000012700F0805000906B4E3068C00510D478
:10170000306840F480703060FFF7B0FD009005E075
:10171000FFF7ACFD0099401A022850D83068C00588
:10172000F6D55E4EA0686C3601280FD005283068CB
:1017300010D020F001003060306820F004003060EC
:10174000A068B8B1FFF792FD00900FE0306840F05C
:101750000100F4E740F004003060F7E7FFF786FD92
:101760000099411A41F28830814266D8306880077A
:10177000F4D50EE0FFF77AFD009007E0FFF776FD65
:101780000099411A41F28830814256D8306880076A
:10179000F4D42FB1DBF8001021F08051CBF8001009
:1017A000A069C8B33D49091D0968C1F38101022937
:1017B0004AD00228504607D0C8F8600000E03CE05C
:1017C000FFF754FD04463BE04746C8F86000FFF7CA
:1017D0004DFD064605E000BFFFF748FD801B0228CF
:1017E0002BD828688001F7D4D4E907010843A16AFF
:1017F0002E4A490802EB0141626A41EA821108431C
:1018000094F82C1040EA0161C9F8001001203866F4
:10181000FFF72CFD044606E03EE000BFFFF726FD83
:10182000001B022809D828688001F7D534E000BFE2
:10183000FFF71CFD001B022802D90320BDE8F88F2A
:1018400028688001F4D427E00128F7D0D9F80000F7
:10185000E26900F4800191421CD1226A00F03F014C
:10186000914217D147F6C071626A0140B1EB821F05
:1018700010D1A26A4FF0FF3300F4403103EB520263
:10188000B1EB024F06D194F82C1000F07060B0EB71
:10189000016F01D00120D1E70020CFE704380240DA
:1018A00000004742800E4742007000400000FFFFEA
:1018B00010B5401EB0F1807F01D3012010BD4FF064
:1018C000E02460610F21601700F0BEFD0020A061E0
:1018D00007202061002010BD70B590F83C20012A3F
:1018E00032D0012480F83C40022280F83D20036879
:1018F0005A689D6822F070060A6832435A60134B9A
:1019000002689A4214D0B2F1804F11D0104B9A4223
:101910000ED0104B9A420BD00F4B9A4208D00F4B6F
:101920009A4205D00E4B9A4202D00E4B9A4204D1F5
:10193000496825F080031943916080F83D400021FB
:1019400080F83C10084670BD022070BD00000140C8
:101950000004004000080040000C0040000401406A
:10196000004001400018004010B5040003D094F876
:101970003D0010B107E0012010BD002084F83C00BC
:10198000204600F01FF8022084F83D00211D206849
:1019900000F0E8FB012084F8460084F83E0084F85B
:1019A0003F0084F8400084F8410084F8420084F845
:1019B000430084F8440084F8450084F83D0000208A
:1019C00010BD000008B5124A01681248914207D1C3
:1019D000016841F004010160006800F0040009E0C2
:1019E0000D4A914208D1016841F008010160006888
:1019F00000F00800009008BD084A9142FBD1016840
:101A000041F010010160006800F01000F2E70000F2
:101A10000008004040380240000C00400010004028
:101A200090F83D10012901D001207047022180F873
:101A30003D1000681149884214D0B0F1804F11D098
:101A40000F4988420ED00F4988420BD00E49884278
:101A500008D00E49884205D00D49884202D00D4970
:101A6000884204D1816801F00701062903D001688A
:101A700041F00101016000207047000000000140BA
:101A80000004004000080040000C00400004014039
:101A9000004001400018004001680A6A41F2111339
:101AA0001A4207D10A6A9B101A4203D10A6822F02F
:101AB00001020A60012180F83D100020704770B5D6
:101AC000044690F83C000025012817D0012684F830
:101AD0003C60022084F83D002068826822F0770292
:101AE00022F47F4282600868502838D00DDC20281C
:101AF0004FD005DC90B3102811D14AE0022070BD10
:101B0000302846D040280AD13BE060282FD07028EA
:101B10000DD0B0F5805F03D0B0F5005F12D0012585
:101B200084F83D60002084F83C00284670BDCB68F6
:101B3000D1E90121206800F08EFB2068816841F026
:101B4000770109E0CB68D1E90121206800F083FB2F
:101B50002068816841F480418160E1E719E0CA684A
:101B60004968206800F04CFC5021206806E0CA68F3
:101B70004968206800F055FC6021206800F075FB82
:101B8000CEE7CA684968206800F03AFC4021206826
:101B9000F4E7226801461046F0E7000010B586B071
:101BA000044614216846FEF7D6FB2368174C002133
:101BB00017480222A34210D1036843F008030360D0
:101BC000006800F00800059050030090CDE9012165
:101BD000CDE9031269460F4813E00F4CA34212D11E
:101BE000036843F080030360006800F08000059004
:101BF0004FF4E0500090CDE90121CDE90312694690
:101C00000648FFF73BFA06B010BD00000008004090
:101C100030380240000C0240000C0040001C024022
:101C200070B5044690F83C0000260D4601280FD000
:101C3000012084F83C006AB1042A1DD0082A2FD064
:101C40000C2A3FD00126002084F83C00304670BDAD
:101C5000022070BD206800F011FB2068816941F00E
:101C6000080181612068816921F004018161206897
:101C700081692A69114311E0206800F02FFB206878
:101C8000816941F4006181612068816921F480618A
:101C90008161206881692A6941EA02218161D2E774
:101CA000206800F051FB2068C16941F00801C16162
:101CB0002068C16921F00401C1612068C1692A69F5
:101CC000114311E0206800F073FB2068C16941F402
:101CD0000061C1612068C16921F48061C16120682F
:101CE000C1692A6941EA0221C161ACE710B504006B
:101CF00003D094F83D0010B107E0012010BD002092
:101D000084F83C00204600F01EF8022084F83D00D4
:101D1000211D206800F026FA012084F8460084F88E
:101D20003E0084F83F0084F8400084F8410084F8C5
:101D3000420084F8430084F8440084F8450084F8A5
:101D40003D00002010BD704710B50446022249B185
:101D500004290ED0082913D094F84100012816D088
:101D6000012010BD94F83E000128F9D184F83E20EE
:101D70000FE094F83F000128F2D184F83F2008E0FA
:101D800094F840000128EBD184F8402001E084F869
:101D900041200122206800F051FA16492068164AB5
:101DA000884201D0904203D1436C43F40043436422
:101DB0002068884213D0B0F1804F10D00F4988427C
:101DC0000DD00F4988420AD00E49884207D0904270
:101DD00005D00D49884202D00C49884204D181685F
:101DE00001F00701062903D0016841F001010160FB
:101DF000002010BD0000014000040140000400402C
:101E000000080040000C0040004001400018004065
:101E1000FEE700000548002102685163036841F2B3
:101E200088329A630068C16370470000AC000020EC
:101E3000054800210268516302689163006841F21D
:101E40008831C16370470000AC0000200F4810B516
:101E50000D4901600321416000214FF4202281607F
:101E6000C0E903124FF48012426101764176817617
:101E7000C17601774177FEF76DFF002803D0BDE8FA
:101E80001040FEF787BC10BD006400401400002025
:101E90000F4810B50D4901600321416000214FF446
:101EA00020228160C0E903124FF480124261017662
:101EB00041768176C17601774177FEF74BFF0028A6
:101EC00003D0BDE81040FEF765BC10BD00680040BF
:101ED0003C000020114808B5016841F00201016092
:101EE000016801F002010091016841F00101016007
:101EF000016801F001010091016841F008010160F1
:101F0000016801F008010091016841F08001016061
:101F1000006800F08000009008BD000030380240EA
:101F200010B58EB000240794089409940A940B9479
:101F30001C2168460C94FEF70EFA1E481C490160ED
:101F40000121C0E9011442F20F71C0E90314846158
:101F5000FFF70AFD08B1FEF71DFC4FF48050079013
:101F600007A91448FFF7ABFD08B1FEF713FC1148B1
:101F7000FFF7BCFE08B1FEF70DFC0B940BA90D4852
:101F80000C94FFF7A9FC08B1FEF704FC6020CDE932
:101F9000000402940822694606480494FFF740FEB4
:101FA00008B1FEF7F7FB0348FFF7F8FD0EB010BDD0
:101FB000000800406400002010B58EB00024079493
:101FC000089409940A940B941C2168460C94FEF71B
:101FD000C2F926482449C0E9001441F28831C0E919
:101FE000024104618461FFF7BFFC08B1FEF7D2FB38
:101FF0004FF48050079007A91C48FFF760FD08B117
:10200000FEF7C8FB1948FFF771FE08B1FEF7C2FBE7
:102010000B940BA915480C94FFF75EFC08B1FEF772
:10202000B9FB6020CDE900040294002269460F4804
:102030000494FFF7F5FD08B1FEF7ACFB04226946F6
:102040000A48FFF7EDFD08B1FEF7A4FB0822694638
:102050000648FFF7E5FD08B1FEF79CFB0348FFF7D4
:102060009DFD0EB010BD0000000C0040AC00002033
:102070001CB500240E4800940C49019401605321C2
:10208000C0E901144FF6FF718461C160FFF76CFC79
:1020900008B1FEF77FFB0094694605480194FFF7FD
:1020A0001BFC002801D0FEF775FB1CBD0010004092
:1020B000F4000020FEE7FEE770477047FFF7DCB84A
:1020C00030B593B030216846FEF745F914210CA8CD
:1020D000FEF741F91D480025016841F0805101607B
:1020E000006800F0805011901948016841F4804167
:1020F00001600068022400F48040119001200090EB
:10210000000401908001CDE9064006200890A82037
:10211000CDE9090404200B906846FFF713FA08B1D3
:1021200072B6FEE70CA90F2081E831004FF4A050F1
:102130000F904FF48050109005210CA8FFF736F94E
:10214000002801D072B6FEE713B030BD403802401F
:10215000007000400248016841F47001016070475E
:1021600088ED00E0F0B50268294C2A4D2A4E2B4F2D
:102170002B4B4FF0804CA04209D0604507D0A842BD
:1021800005D0B04203D0B84201D0984204D122F029
:10219000700E4A6842EA0E02A0421BD0604519D078
:1021A000A84217D0B04215D0B84213D0984211D0EF
:1021B0001C4DA8420ED01C4DA8420BD01B4DA8426E
:1021C00008D01B4DA84205D01A4DA84202D01A4D86
:1021D000A84203D122F44075CA682A434D6922F00F
:1021E00080022A4302608A68C2620A688262A04250
:1021F00001D0984201D1096901630121416101695E
:10220000C90703D0016921F001010161F0BD00009F
:10221000000001400004004000080040000C0040A5
:1022200000040140004001400044014000480140DA
:1022300000180040001C00400020004010B501F0D4
:102240001F030121046A99408C430462016A9A4089
:102250001143016210BD10B5846842EA032224F4E0
:102260007F440A432243826010BD826822F07002DC
:102270000A4342F00701816070470000F0B5036A2D
:10228000026A22F00102026242688469124E24F05E
:1022900073050C682C4323F002058B682B430D4D0E
:1022A000A84201D0B04205D123F00807CB683B43D8
:1022B00023F00403A84201D0B04205D14D6922F4B5
:1022C000407215438A692A434260846149684163C8
:1022D0000362F0BD0000014000040140F0B5026A55
:1022E000036A23F010030362436884690D6824F4D1
:1022F000E64444EA05248D6822F0200242EA0512F1
:102300000F4D104EA84201D0B04206D1CF6822F046
:10231000800242EA071222F04002A84201D0B042F5
:1023200007D14D6923F4406343EA85038D6943EA8D
:10233000850343608461496881630262F0BD0000E7
:102340000000014000040140F0B5026A036A23F472
:10235000807303624368C46922F4007224F0730539
:102360000C68124E2C438D6842EA05220E4DA8429D
:1023700001D0B04206D1CF6822F4006242EA0722BF
:1023800022F48062A84201D0B04207D14D6923F403
:10239000405343EA05138D6943EA05134360C46162
:1023A0004968C1630262F0BD0000014000040140C1
:1023B00030B5046A026A22F4805202624268C3693C
:1023C0000D6823F4E64343EA05238D6824F40054A2
:1023D00044EA0534084DA84202D0084DA84204D171
:1023E0004D6922F4804242EA85124260C361496825
:1023F0000164046230BD000000000140000401409F
:1024000010B5036A046A24F001040462846924F0AC
:10241000F00444EA021423F00A020A4384610262CF
:1024200010BD10B5036A046A24F0100404628469C4
:1024300023F0A00324F4704444EA023243EA011179
:102440008261016210BDFEE70907090E002804DB66
:1024500000F1E02080F80014704700F00F0000F158
:10246000E02080F8141D704730B587B01446009105
:10247000002101910291CDE903130546012369462C
:10248000FEF7E4F960B10223224669462846FEF7CA
:10249000DDF928B10423224669462846FEF7D6F91D
:1024A00007B0002030BD0000164802219FED160A3B
:1024B000018011214180012180F84010017780EDD9
:1024C0000B0AD0ED020AC0ED090AC0ED0A0A80ED40
:1024D000080A80ED0D0A80ED0C0AB0EE080A80EDC6
:1024E0000E0AB7EE000A80ED0F0AB2EE090A80ED7F
:1024F000260AB3EE0E0A80ED270AB2EE040A80ED3A
:10250000280A70473C0100200000000031EE601AEC
:10251000012170EE600A814000EE101AF7EE001AF9
:10252000B8EEC00A30EE610A20EE800AC0EE010A61
:10253000BDEEE00A10EE100A704700002DED028B90
:10254000FEF7A2FEFFF7BCFDFFF7C4FCFFF77EFC21
:10255000FFF732FDFFF7E4FCFFF78AFDFFF798FC79
:1025600000212548FFF7F0FB04212348FFF7ECFB8F
:1025700008212148FFF7E8FBFFF75AFCFDF76AFF47
:10258000FFF748FC1D4C208800F040F821461C480D
:10259000FEF72BF8FFF788FF9FED1A8A1A4D4FF4CC
:1025A000FA6600BF94ED0A0A84ED090A30EE080AC3
:1025B00010EE100A84ED0A0AA84215DD21880022D7
:1025C0000F48FEF799F894ED0A0AD4ED090A0022A3
:1025D0000B4830EE600A84ED0A0A218800F016F9F3
:1025E00006490748FEF701F804490548FDF7D2FF00
:1025F0003046FEF731FDD5E7AC0000203C0100205D
:102600001400002027AB653F0000484108B509A22F
:1026100000F00F01126800928DF80010C0F3031053
:102620008DF8010004236A4640F2FF710248FFF76B
:102630001BFF08BD0000CC001400002090F84030C3
:10264000002B43D08B78332B40D10B7963F30702F7
:102650004B7963F30F228B7963F31742CB79C978F7
:1026600063F31F62522931D2DFE801F0292C3134A3
:10267000373A3D404346494C4F5255585C60646878
:102680006C7074787C8084888C9094989CA0A4A8AA
:10269000AC30303030303030303030303030B0B4BA
:1026A000B8BCC0C4303030303030303030303030F2
:1026B000303030303030303030303030C8CC022123
:1026C000426401E00321826480F8401070470421D5
:1026D000C264F9E705210265F6E706214265F3E7E2
:1026E00007218265F0E70821C265EDE7092102664E
:1026F000EAE70A214266E7E70B218266E4E70C215C
:10270000C266E1E70D210267DEE70E214267DBE7E3
:102710000F218267D8E71021C267D5E71121C0F8E1
:102720008020D1E71221C0F88420CDE71321C0F822
:102730008820C9E71421C0F88C20C5E71521C0F80E
:102740009020C1E71621C0F89420BDE71721C0F8FA
:102750009820B9E71821C0F89C20B5E71921C0F8E6
:10276000A020B1E71A21C0F8A420ADE71B21C0F8D2
:10277000A820A9E71C21C0F8AC20A5E71D21C0F8BE
:10278000B020A1E71E21C0F8B4209DE71F21C0F8AA
:10279000B82099E72021C0F8BC2095E72121C0F896
:1027A000C02091E72221C0F8C4208DE72321C0F882
:1027B000C82089E72421C0F8CC2085E72521C0F86E
:1027C000D02081E72621C0F8D4207DE72721C0F85A
:1027D000D82079E72821C0F8DC2075E72921C0F846
:1027E000E02071E72A21C0F8E4206DE72B21C0F832
:1027F000E82069E72C21C0F8EC2065E72D21C0F81E
:10280000F02061E70021C0F8F4205DE71CB5114419
:10281000FF228DF800208DF801208DF804208DF81E
:1028200002208DF805208DF803208DF80620FE2269
:102830008DF8072089B208236A46FFF715FE1CBDF4
:1028400001EE100A70EEC00A0120B8EEC11A8840ED
:10285000F7EE001A21EE201A00EE900AF8EEE00AD8
:1028600070EEE11AC1EE210A30EE800A70474FF097
:102870004070E1EE100A7047000000000000000008
:102880000102030406070809A82800080000002028
:1028900014000000C4010008BC2800081400002037
:1028A000D4090000E0010008000000000100000061
:0C28B00010000000000000000024F400F4
:040000050800018965
:00000001FF
