:020000040800F2
:1000000048050020C1010008571500084B140008DE
:1000100055150008CD0200089519000800000000E1
:100020000000000000000000000000005B15000858
:10003000CF02000800000000591500085D150008F7
:10004000DB010008DB010008DB010008DB01000820
:10005000DB010008DB010008DB010008DB01000810
:10006000DB010008DB010008DB010008DB01000800
:10007000DB010008DB010008DB010008DB010008F0
:10008000DB010008DB010008DB010008DB010008E0
:10009000DB010008DB010008DB010008DB010008D0
:1000A000DB010008DB010008DB010008DB010008C0
:1000B000DB010008DB010008DB010008DB010008B0
:1000C000DB010008DB010008DB010008DB010008A0
:1000D000DB010008DB010008DB010008DB01000890
:1000E000DB010008DB010008DB010008DB01000880
:1000F000DB010008DB010008DB010008DB01000870
:10010000DB010008DB010008DB010008DB0100085F
:10011000DB010008DB01000805160008DB01000810
:10012000DB010008DB010008DB010008DB0100083F
:10013000DB010008DB010008DB010008DB0100082F
:10014000DB010008DB010008DB010008DB0100081F
:10015000DB010008DB010008DB0100088919000849
:10016000DB010008DB010008DB010008DB010008FF
:10017000DB010008DB010008DB01000800000000D3
:10018000DB010008DB010008DB010008DB010008DF
:10019000DB010008DB010008DB010008DB010008CF
:1001A0000000000000000000DB010008DFF80CD0B8
:1001B00000F07AF800480047D519000848050020EB
:1001C0000648804706480047FEE7FEE7FEE7FEE7F1
:1001D000FEE7FEE7FEE7FEE7FEE7FEE7F5150008AF
:1001E000AD0100082DE9F05F0546002092469B46D0
:1001F00088460646814640241BE02846414647463D
:10020000224600F041F853465A46C01A914110D395
:1002100011461846224600F028F82D1A67EB01080F
:100220004F4622460120002100F01FF817EB00097D
:100230004E41201EA4F10104DFDC484631462A4627
:100240004346BDE8F09FD2B201E000F8012B491E01
:10025000FBD270470022F6E710B513460A46044663
:100260001946FFF7F0FF204610BD202A04DB203A94
:1002700000FA02F1002070479140C2F1200320FAF9
:1002800003F3194390407047202A04DB203A21FAF7
:1002900002F00021704721FA02F3D040C2F120029F
:1002A0009140084319467047064C074D06E0E06848
:1002B00040F0010394E8070098471034AC42F6D3AD
:1002C000FFF778FF241D0008441D0008FEE7704773
:1002D00072B6FEE72DE9F0410446876D00F082F921
:1002E000064694F835000025022806D08020606577
:1002F00084F834500120BDE8F0812068016821F0C5
:10030000160101602068416921F080014161206C83
:1003100008B9A06C20B12068016821F008010160D3
:100320002068016821F0010101600CE000F05AF939
:10033000801B052807D920206065032084F835003C
:1003400084F83450D7E720680068C007EED194F8ED
:100350005C103F208840B860012084F8350084F8A4
:1003600034500020C7E790F83510022903D08021CF
:10037000416501207047052180F83510006801684B
:1003800021F00101016000207047000070B50446B3
:1003900000F028F90546601C02D0044800780444A7
:1003A00000F020F9401BA042FAD370BD08000020E5
:1003B0002DE9F84FDFF8F8A10022012403254FF0C2
:1003C0000F090AF1040BAAF1040E00BF0B6804FA2E
:1003D00002F63340B34270D10F7907F00307012FC3
:1003E00001D0022F16D187684FEA420805FA08FCAF
:1003F00027EA0C07D1F80CC00CFA08FC4CEA070CF1
:10040000C0F808C04768B7430E79C6F30016964097
:100410003E4346600E79F643B6070AD0C7684FEAF6
:10042000420C05FA0CF6B7438E6806FA0CF63E430A
:10043000C6600E7906F00306022E10D1D60800EB36
:100440008608D8F8206057074FEAD76C09FA0CF7EE
:10045000BE430F6907FA0CF73743C8F820700668E7
:100460004FEA420C05FA0CF7BE430F7907F0030779
:1004700007FA0CF7374307604E6816F4403F1CD06C
:100480004C4E376847F480473760366822F00307E0
:1004900006F480460096484E07EB060CDCF8086828
:1004A00097073F0F09FA07F826EA0806DFF80C81DC
:1004B000404503D14FF0000841E072E0DFF80081D1
:1004C000404502D14FF0010839E0DFF8F88040459F
:1004D00002D14FF0020832E0DFF8EC80404502D153
:1004E0004FF003082BE0DFF8E480404502D14FF0E5
:1004F000040824E0DFF8D880404502D14FF0050819
:100500001DE0DFF8D080404502D14FF0060816E02C
:10051000DFF8C480404502D14FF007080FE0DFF854
:10052000BC80404502D14FF0080808E0DFF8B080F9
:10053000404502D14FF0090801E04FF00A0808FADF
:1005400007F848EA0608CCF80888DAF80060574649
:10055000D1F804C09E435FEACC2C00D51E433E6018
:10056000DBF800605F46D1F804C09E435FEA8C2C44
:1005700000D51E433E60DEF800607746D1F804C027
:100580009E435FEA8C3C00D51E433E60084F083F07
:100590003E68D1F804C09E435FEACC3C00D51E43C0
:1005A0003E60521C102AFFF411AFBDE8F88F000026
:1005B000083C014044380240003001400000024045
:1005C0000004024000080240000C024000100240FB
:1005D0000014024000180240001C024000200240AB
:1005E0000024024001488068704700000800002095
:1005F0000248816802781144816070470800002039
:100600000B4810B5016841F400710160016841F4C4
:1006100080610160016841F480710160032000F095
:100620009BF80F2000F006F800F050F8002010BDF5
:10063000003C024030B505461F4887B000240168E1
:1006400041F010010160006806A900F01000009060
:1006500001A800F02DF90498A8B100F049F9400074
:100660001649174AB0FBF1F11648491E026040F2E4
:10067000E732C0E90324C0E90114846100F042FBC1
:10068000040003D015E000F033F9E9E70D4800F06D
:1006900067FB04000DD1362000F030F8102D07D292
:1006A00000222946362000F037F80748056000E0B0
:1006B000012407B0204630BD4038024040420F00C0
:1006C00000100040000100200C0000200A4808B57E
:1006D000016841F480410160006800F480400090AE
:1006E0000548001F016841F080510160006800F07A
:1006F0008050009008BD000044380240002809DB0B
:1007000000F01F02012191404009800000F1E0202B
:10071000C0F8001170470000F0B40E4B1B680C4687
:10072000C3F30223C3F10705042D00D90425191DC5
:10073000072901D2002300E0DB1E012606FA05F19D
:10074000491E214099409E40761E16403143F0BC20
:1007500001F021B90CED00E0064900F0070208683D
:100760004FF6FF03184040EA0220034A1043086096
:10077000704700000CED00E00000FA052DE9F0479D
:100780000E46050065D0DFF81481D8F80000F7B2F6
:1007900000F00F00B04207D288F80070D8F80000CF
:1007A00000F00F00B04254D128683D4C810712D5AB
:1007B000400703D5206840F4E05020602878000707
:1007C00003D5206840F4604020602068A96820F0CC
:1007D000F000084320602878C0072DD030496868B1
:1007E0000839012812D0022813D0032811D0096833
:1007F000890700292DDA216821F0030101432160D6
:10080000FFF7F0FE814641F2883A0EE0096889035D
:10081000EFE709688901ECE7FFF7E4FEA0EB0901C7
:10082000514502D90320BDE8F0872068696800F0CF
:100830000C00B0EB810FEFD1D8F80010404601F06A
:100840000F01B14207D90770006800F00F00B042F5
:1008500001D00120E7E72878400705D52068E9683E
:1008600020F4E050084320602878000706D520686F
:10087000296920F4604040EAC100206000F058F887
:100880002168084AC1F30311515CC8400649086059
:1008900006480068FFF7CEFE0020C4E7003C024097
:1008A000083802400C1D0008140000200C00002035
:1008B0000F2202600C4A136803F0030343601368BD
:1008C00003F0F0038360136803F4E053C36012681D
:1008D0004FF4E05303EAD20202610448006800F0DA
:1008E0000F0008607047000008380240003C0240DA
:1008F0000448054900680968044AC1F38221515C33
:10090000C840704714000020083802401C1D000831
:100910000448054900680968044AC1F34231515C42
:10092000C840704714000020083802401C1D000811
:10093000154810B5006810F00C02144813D0144983
:10094000042A0FD0082A0ED10F4C241F22682368D6
:1009500002F03F025B0207D52068C0F38810A0FBBD
:10096000010106E0084610BD2168C1F38811A1FB12
:1009700000010023FFF736FC2168C1F30141491C47
:100980004900B0FBF1F010BD083802400024F4002B
:10099000001BB7002DE9F84F04006ED02078DFF877
:1009A0004C93C007A9F104054AD009F1040001687D
:1009B000C1F38101012908D00068C0F38100022839
:1009C0000AD1D9F80000400206D52868800337D53F
:1009D00060680028E1D033E06068B0F5803F10D057
:1009E000B0F5A02F286810D020F480302860286847
:1009F00020F4802028606068A8B1FFF7F3FD064668
:100A00000DE0286840F48030F4E740F4802028604E
:100A1000F7E700BFFFF7E6FD801B642873D828685E
:100A20008003F7D50CE0FFF7DDFD064605E000BFCB
:100A3000FFF7D8FD801B6428F0D828688003F7D41E
:100A40002078DFF8AC8280074FF0000A3ED5A74837
:100A5000001D016811F00C0F08D00068C0F3810080
:100A600002280BD1D9F80000400207D4286880077B
:100A700016D5E068012800D112E033E1E068B8B192
:100A80000120C8F80000FFF7ADFD064605E000BFF5
:100A9000FFF7A8FD801B0228C0D828688007F7D57B
:100AA0002868216920F0F80040EAC10028600DE0C4
:100AB000C8F800A0FFF796FD064604E0FFF792FD98
:100AC000801B02281FD828688007F7D420780007E9
:100AD00022D5864F87486169703771B10121016065
:100AE000FFF780FD064604E0FFF77CFD801B02282F
:100AF00009D838688007F7D50EE0C0F800A0FFF7E6
:100B000071FD064605E082E0FFF76CFD801B0228C0
:100B10007DD838688007F7D42078400768D5DFF89B
:100B2000CCB100270BF13C0BDBF80000C0000BD46C
:100B3000DBF8001041F08051CBF80010DBF800002A
:100B4000012700F0805000906B4E3068C00510D433
:100B5000306840F480703060FFF744FD009005E09D
:100B6000FFF740FD0099401A022850D83068C005B0
:100B7000F6D55E4EA0686C3601280FD00528306887
:100B800010D020F001003060306820F004003060A8
:100B9000A068B8B1FFF726FD00900FE0306840F084
:100BA0000100F4E740F004003060F7E7FFF71AFDBA
:100BB0000099411A41F28830814266D83068800736
:100BC000F4D50EE0FFF70EFD009007E0FFF70AFDF9
:100BD0000099411A41F28830814256D83068800726
:100BE000F4D42FB1DBF8001021F08051CBF80010C5
:100BF000A069C8B33D49091D0968C1F381010229F3
:100C00004AD00228504607D0C8F8600000E03CE017
:100C1000FFF7E8FC04463BE04746C8F86000FFF7F2
:100C2000E1FC064605E000BFFFF7DCFC801B022864
:100C30002BD828688001F7D4D4E907010843A16ABA
:100C40002E4A490802EB0141626A41EA82110843D7
:100C500094F82C1040EA0161C9F8001001203866B0
:100C6000FFF7C0FC044606E03EE000BFFFF7BAFC19
:100C7000001B022809D828688001F7D534E000BF9E
:100C8000FFF7B0FC001B022802D90320BDE8F88F53
:100C900028688001F4D427E00128F7D0D9F80000B3
:100CA000E26900F4800191421CD1226A00F03F0108
:100CB000914217D147F6C071626A0140B1EB821FC1
:100CC00010D1A26A4FF0FF3300F4403103EB52021F
:100CD000B1EB024F06D194F82C1000F07060B0EB2D
:100CE000016F01D00120D1E70020CFE70438024096
:100CF00000004742800E4742007000400000FFFFA6
:100D00007047704710B5040003D094F83D0010B14F
:100D100007E0012010BD002084F83C00204600F0D0
:100D20001EF8022084F83D00211D206800F070FCB0
:100D3000012084F8460084F83E0084F83F0084F8DF
:100D4000400084F8410084F8420084F8430084F8AD
:100D5000440084F8450084F83D00002010BD704731
:100D600090F83D10012901D001207047022180F840
:100D70003D100168CA6842F00102CA60006811496A
:100D8000884214D0B0F1804F11D00F4988420ED064
:100D90000E4988420BD00E49884208D00D4988423E
:100DA00005D00D49884202D00C49884204D181689F
:100DB00001F00701062903D0016841F0010101603B
:100DC000002070470000014000040040000800407F
:100DD000000C0040000401400040014000180040A9
:100DE00070472DE9F04104460068C66805694FF078
:100DF0000007A90713D5B10711D5F91E016101201C
:100E00002077206880698007204602D0FFF7E8FF3E
:100E100004E000F07EF8204600F07CF827776807B1
:100E200016D5700714D521686FF004000861022000
:100E300020772068806910F4407F204602D0FFF7B9
:100E4000CFFF04E000F065F8204600F063F8277754
:100E5000280715D5300713D521686FF00800086101
:100E6000042020772068C0698007204602D0FFF761
:100E7000B7FF04E000F04DF8204600F04BF827776C
:100E8000E80616D5F00614D521686FF01000086149
:100E9000082020772068C06910F4407F204602D0E7
:100EA000FFF79EFF04E000F034F8204600F032F82F
:100EB0002777E80708D0F00706D021686FF0010017
:100EC0000861204600F028F8280608D5300606D527
:100ED00021686FF0800008612046FFF711FF680667
:100EE00008D5700606D521686FF0400008612046DD
:100EF00000F01CF8A8060AD5B00608D521686FF0E6
:100F0000200008612046BDE8F041FFF7FABEBDE8C9
:100F1000F08170477047000000680349884201D1A2
:100F2000FFF766BB70470000001000407047704735
:100F300070470000F8B5016804460868CA684B6944
:100F400010F00F0F4FF0000559D003F0010602F426
:100F50009077374365D0C10705D0D10503D5616CC3
:100F600041F001016164410705D5D90703D0616CE7
:100F700041F002016164810705D5D90703D0616C96
:100F800041F004016164010707D502F020013143FB
:100F900003D0616C41F008016164616C00293AD0B2
:100FA000800604D5900602D5204600F0CCFB2068D0
:100FB0004069616CC0F38010090700D460B320461B
:100FC00000F09AFB20684069400621D52068143063
:100FD00050E8001F21F0400140E80012002AF5D13E
:100FE000E06BA8B16E490165E06BFFF7BCF9002822
:100FF00011D0E06B016D01B0BDE8F04008478306F9
:101000000FD593060DD52046BDE8F84000F09BBBF8
:101010002046FFF78DFFF8BD2046FFF789FF656486
:10102000F8BD266B2023012E7DD1C6067BD5D606C2
:1010300079D508684868009048694FF00206400674
:1010400041D5E16B086840680004000CE8D0A28D2F
:101050008242E5D9E085C869B0F5807F2DD020684F
:101060000C3050E8001F21F4807140E80012002A83
:10107000F5D12068143050E8001F21F0010140E84C
:101080000012002AF5D12068143050E8001F21F02A
:10109000400140E80012002AF5D184F8423025636F
:1010A00020680C3050E8001F21F0100140E80012C9
:1010B000002AF5D1E06BFFF70DF96663A08DE18D95
:1010C000401A81B22AE0A08DE18D401A81B2E08DF4
:1010D0000028A5D00029A3D022680C3252E8000FC6
:1010E00020F4907042E80007002FF5D120681430FA
:1010F00050E8002F22F0010240E80027002FF5D130
:1011000084F84230256320680C3050E8002F22F02C
:10111000100240E80023002BF5D166632046FFF75C
:1011200006FFF8BDFFE705062BD5150629D594F86F
:1011300041002128F5D1A068B0F5805F01D1206978
:10114000B0B1206A411C2162216800784860E08CBF
:10115000401E0004000CE084E3D12068C16821F047
:101160008001C1602068C16841F04001C160D8E7DA
:10117000206A0088C0F308004860206A801C206252
:10118000E5E74006CDD55006CBD5CA68204622F00B
:101190004002CA6084F8413000F056F9C1E700000F
:1011A000E916000870B5040004D094F84100002549
:1011B00010B106E0012070BD84F84050204600F0D8
:1011C00023F8242084F841002068C16821F40051EC
:1011D000C160204600F018FB2068016921F49041AD
:1011E00001612068416921F02A0141612068C168DC
:1011F00041F40051C1606564202084F8410084F806
:1012000042006563002070BD70B586B004461421AD
:101210006846FFF71FF8284E22680021274802235E
:1012200003240825B2421DD1244A1032166846F024
:1012300080461660126802F080420592026842F011
:1012400010020260006802AA00F01000059082E817
:101250003200E001CDE9000369461948FFF7A8F81C
:1012600006B070BD174EB242FAD1144A1432166855
:1012700046F020061660126802F02002059202680D
:1012800042F040020260006802AA00F040000590AF
:1012900082E832004FF48440CDE9000369460A48F1
:1012A000FFF786F8002203214720FFF735FA472091
:1012B000FFF724FAD4E700000078004030380240FD
:1012C0000010024000140140001802402DE9F84FC0
:1012D000044690F842009A4616460D46202802D051
:1012E0000220BDE8F88FB5B1AEB1002060642221C4
:1012F00084F842102063FFF775F9A6858146E685DC
:10130000A0684FF480582027404501D1206920B1C2
:101310002E46002529E00120E3E7002625E04B4684
:10132000002220212046CDF800A000F0F3FA18B1E9
:1013300084F842700320D4E726B1A06840451AD053
:1013400038B108E020684068C0F3080025F8020BB7
:1013500008E0206978B12068406800F07F0000BF95
:1013600006F8010BE08D401EE085E08D0028D6D107
:1013700084F84270B5E720684068F1E70749884281
:101380000BD1006842680748054B01685A54491C54
:1013900001600A2901D3002101607047B8000020D4
:1013A00066000020000000202DE9F843044690F874
:1013B0004100984616460D46202802D00220BDE87E
:1013C000F88385B17EB100206064212084F841005B
:1013D000FFF708F9A6848146E684A0682027B0F5C7
:1013E000805F02D003E00120E9E7206910B12E46BA
:1013F00000250EE000260CE08021204600F08AFA4D
:10140000A8B9C6B116F8010B21684860E08C401EEF
:10141000E084E08C4B464FF00002CDF800800028BD
:10142000EAD14FF04001204600F074FA40B184F850
:1014300041700320C3E735F8020BC0F30800E3E76F
:1014400084F841700020BAE77047FEE700B587B026
:1014500014216846FEF7FEFE20480021026842F093
:1014600040020260026802F040020592026842F007
:1014700001020260026802F001020592026842F075
:1014800004020260026802F004020592026842F05F
:1014900080020260026802F080020592026842F057
:1014A00010020260026802F010020592026842F027
:1014B00008020260006800F0080005904FF44070D8
:1014C00000900220CDE90101032003900720049041
:1014D00069460348FEF76CFF07B000BD3038024094
:1014E000000C02400C4810B50A4901604FF4E1318C
:1014F0004160002181600C22C160C0E90412816159
:10150000C161FFF74FFE002803D0BDE81040FEF791
:10151000DFBE10BD00780040700000200C4810B500
:101520000A4901604FF41651416000218160042294
:10153000C160C0E904128161C161FFF733FE002878
:1015400003D0BDE81040FEF7C3BE10BD001401403B
:10155000B8000020FEE7FEE77047704770470000C4
:1015600030B593B030216846FEF774FE14210CA804
:10157000FEF770FE1D480025016841F080510160B2
:10158000006800F0805011901948016841F4404112
:1015900001600068022400F4404011900120009096
:1015A000000401908001CDE9064006200890A820A3
:1015B000CDE9090404200B906846FFF7EBF908B168
:1015C00072B6FEE70CA90F2081E831004FF4A0505D
:1015D0000F904FF48050109005210CA8FFF7CEF823
:1015E000002801D072B6FEE713B030BD403802408B
:1015F000007000400248016841F4700101607047CA
:1016000088ED00E00148FFF7ECBB0000000100207E
:10161000F0B50268294C2A4D2A4E2B4F2B4B4FF028
:10162000804CA04209D0604507D0A84205D0B04206
:1016300003D0B84201D0984204D122F0700E4A681B
:1016400042EA0E02A0421BD0604519D0A84217D032
:10165000B04215D0B84213D0984211D01C4DA842C8
:101660000ED01C4DA8420BD01B4DA84208D01B4DDC
:10167000A84205D01A4DA84202D01A4DA84203D163
:1016800022F44075CA682A434D6922F080022A4339
:1016900002608A68C2620A688262A04201D09842EF
:1016A00001D109690163012141610169C90703D0C1
:1016B000016921F001010161F0BD0000000001405D
:1016C0000004004000080040000C004000040140FD
:1016D0000040014000440140004801400018004023
:1016E000001C00400020004010B5806B0021C18527
:1016F000C184FFF71DFC10BD01680C3151E8002FBB
:1017000022F4907241E80023002BF5D101681431D6
:1017100051E8002F22F0010241E80023002BF5D10F
:10172000016B012909D101680C3151E8002F22F029
:10173000100241E80023002BF5D1202180F842104F
:1017400000210163704708B590F84210222901D0AA
:10175000022008BD82684FF480539A4201D101698A
:1017600021B1816A9A421BD04AB10AE00268816ABB
:101770005268C2F308020A80816A891C08E0026983
:1017800072B10268526802F07F020A70816A491CD5
:101790008162C18D491E0904090CC18503D01BE07B
:1017A00002685268F1E70168CA6822F02002CA6044
:1017B0000168CA6822F48072CA6001684A6922F02E
:1017C00001024A61202180F8421000214163026B2E
:1017D000012A03D0FFF7D2FD002008BD0163016894
:1017E0000C3151E8002F22F0100241E80023002BB9
:1017F000F5D101680A68D20602D50A6849680091E5
:10180000818DFFF794FBE7E770B504460068016936
:10181000E26821F44051114301612169A068E26945
:1018200008436169114308432168CA6849F20C639F
:101830009A430243CA6020684169A26921F4407159
:101840001143416131492068884202D030498842C1
:1018500002D1FFF75DF801E0FFF74AF8E2690023E3
:10186000192164253226B2F5004F626828D0A0FB0A
:101870000101930F9200FEF7B5FC0146B0FBF5F0B5
:101880006FF01802504301EB800006EB0010B0FB34
:10189000F5F000F0F002B1FBF5F002EB0012B1FB45
:1018A000F5F06FF01803584301EB800006EB0010D1
:1018B000B0FBF5F000F00F0021681044886070BDA7
:1018C000A0FB010192185B41FEF78CFC0146B0FBC6
:1018D000F5F00201B1FBF5F06FF01803584301EB8E
:1018E000800006EBC000B0FBF5F000F0F80002EB62
:1018F0004002B1FBF5F0584301EB800006EBC0005D
:10190000B0FBF5F000F00700D6E700000010014042
:10191000001401402DE9F843984617460D46044649
:10192000089E24E0701C22D0FEF75CFEA0EB0800AD
:10193000B0421AD8CEB12068C168490717D5802DAA
:1019400015D0402D13D00168C94309070FD4016891
:101950000025406800902046FFF7CEFE0820606416
:1019600084F840500120BDE8F8830320FBE720689D
:10197000006835EA000004D00020B842D2D0002030
:10198000F1E70120F9E700000148FFF7D3BA0000B2
:10199000B8000020FEE70907090E002804DB00F16B
:1019A000E02080F80014704700F00F0000F1E02004
:1019B00080F8141D704702E008C8121F08C1002AF1
:1019C000FAD170477047002001E001C1121F002AC0
:1019D000FBD170472DED028BFEF712FEFFF7C0FD25
:1019E000FFF734FDFFF77EFDFFF798FD4FF6FF7719
:1019F0003B460A22BE49BF48FFF768FCDFF8F0A269
:101A0000DFF8F4B200249FEDBD8ADFEDBD8AAAF1B4
:101A10004E0505F10C0605F1180805F12409012011
:101A2000FEF7B4FC2046641C2128F8DD3B460A2260
:101A3000AF49B048FFF74AFC00245046015D012938
:101A400006D0022923D003293FD004295ED07DE0AF
:101A500002195378032B79D19378042B76D1D3785C
:101A6000002B73D129701179B2F8052052BA61F3B5
:101A70001F4200EE102A6A60CBF80420B8EE400A3C
:101A800020EE080A20EE280A85ED020A5EE002191F
:101A90005378032B5AD19378042B57D1D378A3BB17
:101AA0003170B2F80510137949BA63F31F4100EEA3
:101AB000101A7160CBF80410B8EE400A20EE080A44
:101AC00020EE280A86ED020A40E002195378032B23
:101AD0003CD19378042B39D1D378B3B988F800106E
:101AE000B2F8051092F804C049BA6CF31F4100EE39
:101AF000101AC8F80410CBF80410B8EE400A20EE13
:101B0000080A20EE280A88ED020A1FE0021953781D
:101B1000032B1BD19378042B18D1D378B3B989F850
:101B20000010B2F8051092F804C049BA6CF31F41D6
:101B300000EE101AC9F80410CBF80410B8EE400AF1
:101B400020EE080A20EE280A89ED020A641C0A2CFD
:101B5000FFF674AF6648FF231E3800210370417002
:101B6000EE218170AA21C170D5ED020A9FED650AB0
:101B7000642280EE801ABCEEC11A11EE101AC9B2AE
:101B8000017111FB02F101EE101AB8EE411A30EEAC
:101B9000C11ABCEEC11A11EE102AD2B201EE102AFF
:101BA0004271B8EE411A30EEC11A00EE901AF8EE0A
:101BB000600A71EE600A60EE800AFCEEE00A10EE48
:101BC000901A8171BB21C171D6ED020A642280EEA8
:101BD000801ABCEEC11A11EE101AC9B2017211FBC3
:101BE00002F101EE101AB8EE411A30EEC11ABCEE45
:101BF000C11A11EE102AD2B201EE102A4272B8EECA
:101C0000411A30EEC11A00EE901AF8EE600A71EE39
:101C1000600A60EE800AFCEEE00A10EE901A817213
:101C2000CC21C172D8ED020A642280EE801ABCEE8B
:101C3000C11A11EE101AC9B2017311FB02F101EEC3
:101C4000101AB8EE411A30EEC11ABCEEC11A11EEEC
:101C5000102AD2B201EE102A4273B8EE411A30EEC9
:101C6000C11A00EE901AF8EE600A71EE600A60EE9A
:101C7000800AFCEEE00A10EE901A8173DD21C17338
:101C8000D9ED020A642280EE801ABCEEC11A11EE70
:101C9000101AC9B2017411FB02F201EE102AB8EE5B
:101CA000411A30EEC11ABCEEC11A11EE101AC9B2B7
:101CB00001EE101A4174B8EE411A30EEC11A00EE6E
:101CC000902A1E22F8EE600A71EE600A20EE800A69
:101CD000BCEEC00A10EE101A8174AB21C1740375FA
:101CE000CD21417501463B460748FFF75DFB96E66F
:101CF00066000020B80000200000002000008036B0
:101D00000000B4430000C842700000200000000042
:101D1000000000000102030406070809000000009B
:101D200001020304441D0008000000201800000008
:101D3000B61900085C1D00081800002030050000DE
:101D4000C6190008000000000000000001000000AB
:0C1D500010000000000000000024F4005F
:04000005080001AD41
:00000001FF
