:020000040800F2
:1000000098050020C10100084F150008FF130008E3
:100010004D150008CD020008751900080000000009
:100020000000000000000000000000005315000860
:10003000CF02000800000000511500085515000807
:10004000DB010008DB010008DB010008DB01000820
:10005000DB010008DB010008DB010008DB01000810
:10006000DB010008DB010008DB010008DB01000800
:10007000DB010008DB010008DB010008DB010008F0
:10008000DB010008DB010008DB010008DB010008E0
:10009000DB010008DB010008DB010008DB010008D0
:1000A000DB010008DB010008DB010008DB010008C0
:1000B000DB010008DB010008DB010008DB010008B0
:1000C000DB010008DB010008DB010008DB010008A0
:1000D000DB010008DB010008DB0100085D190008F6
:1000E000DB010008DB010008DB010008DB01000880
:1000F000DB010008DB010008DB010008DB01000870
:10010000DB010008DB010008DB010008DB0100085F
:10011000DB010008DB010008FD150008DB01000819
:10012000DB010008DB010008DB010008DB0100083F
:10013000DB010008DB010008DB010008DB0100082F
:10014000DB010008DB010008DB010008DB0100081F
:10015000DB010008DB010008DB0100086919000869
:10016000DB010008DB010008DB010008DB010008FF
:10017000DB010008DB010008DB01000800000000D3
:10018000DB010008DB010008E1160008ED1600089D
:10019000DB010008DB010008DB010008DB010008CF
:1001A0000000000000000000DB010008DFF80CD0B8
:1001B00000F07AF800480047B519000898050020BB
:1001C0000648804706480047FEE7FEE7FEE7FEE7F1
:1001D000FEE7FEE7FEE7FEE7FEE7FEE7ED150008B7
:1001E000AD0100082DE9F05F0546002092469B46D0
:1001F00088460646814640241BE02846414647463D
:10020000224600F041F853465A46C01A914110D395
:1002100011461846224600F028F82D1A67EB01080F
:100220004F4622460120002100F01FF817EB00097D
:100230004E41201EA4F10104DFDC484631462A4627
:100240004346BDE8F09FD2B201E000F8012B491E01
:10025000FBD270470022F6E710B513460A46044663
:100260001946FFF7F0FF204610BD202A04DB203A94
:1002700000FA02F1002070479140C2F1200320FAF9
:1002800003F3194390407047202A04DB203A21FAF7
:1002900002F00021704721FA02F3D040C2F120029F
:1002A0009140084319467047064C074D06E0E06848
:1002B00040F0010394E8070098471034AC42F6D3AD
:1002C000FFF778FF141A0008341A0008FEE7704799
:1002D00072B6FEE72DE9F0410446876D00F070F933
:1002E000064694F835000025022806D08020606577
:1002F00084F834500120BDE8F0812068016821F0C5
:10030000160101602068416921F080014161206C83
:1003100008B9A06C20B12068016821F008010160D3
:100320002068016821F0010101600CE000F048F94B
:10033000801B052807D920206065032084F835003C
:1003400084F83450D7E720680068C007EED194F8ED
:100350005C103F208840B860012084F8350084F8A4
:1003600034500020C7E790F83510022903D08021CF
:10037000416501207047052180F83510006801684B
:1003800021F0010101600020704700002DE9F84FC5
:10039000DFF8F8A10022012403254FF00F090AF12C
:1003A000040BAAF1040E00BF0B6804FA02F63340F6
:1003B000B34270D10F7907F00307012F01D0022F4C
:1003C00016D187684FEA420805FA08FC27EA0C07AD
:1003D000D1F80CC00CFA08FC4CEA070CC0F808C0B5
:1003E0004768B7430E79C6F3001696403E43466011
:1003F0000E79F643B6070AD0C7684FEA420C05FAF1
:100400000CF6B7438E6806FA0CF63E43C6600E79CA
:1004100006F00306022E10D1D60800EB8608D8F8A5
:10042000206057074FEAD76C09FA0CF7BE430F69F3
:1004300007FA0CF73743C8F8207006684FEA420CF9
:1004400005FA0CF7BE430F7907F0030707FA0CF71C
:10045000374307604E6816F4403F1CD04C4E376857
:1004600047F480473760366822F0030706F4804679
:100470000096484E07EB060CDCF8086897073F0F1C
:1004800009FA07F826EA0806DFF80C81404503D18F
:100490004FF0000841E072E0DFF80081404502D1F2
:1004A0004FF0010839E0DFF8F880404502D14FF005
:1004B000020832E0DFF8EC80404502D14FF003083B
:1004C0002BE0DFF8E480404502D14FF0040824E03F
:1004D000DFF8D880404502D14FF005081DE0DFF875
:1004E000D080404502D14FF0060816E0DFF8C48006
:1004F000404502D14FF007080FE0DFF8BC804045CF
:1005000002D14FF0080808E0DFF8B080404502D182
:100510004FF0090801E04FF00A0808FA07F848EA26
:100520000608CCF80888DAF800605746D1F804C00D
:100530009E435FEACC2C00D51E433E60DBF8006092
:100540005F46D1F804C09E435FEA8C2C00D51E4361
:100550003E60DEF800607746D1F804C09E435FEA53
:100560008C3C00D51E433E60084F083F3E68D1F8E2
:1005700004C09E435FEACC3C00D51E433E60521C43
:10058000102AFFF411AFBDE8F88F0000083C0140CD
:1005900044380240003001400000024000040240A4
:1005A00000080240000C024000100240001402400B
:1005B00000180240001C02400020024000240240BB
:1005C00001488068704700000800002002488168E8
:1005D0000278114481607047080000200B4810B574
:1005E000016841F400710160016841F480610160BB
:1005F000016841F480710160032000F09BF80F2036
:1006000000F006F800F050F8002010BD003C024059
:1006100030B505461F4887B00024016841F010013D
:100620000160006806A900F01000009001A800F029
:100630002DF90498A8B100F049F940001649174A6D
:10064000B0FBF1F11648491E026040F2E732C0E902
:100650000324C0E90114846100F042FB040003D0CC
:1006600015E000F033F9E9E70D4800F067FB0400FE
:100670000DD1362000F030F8102D07D20022294687
:10068000362000F037F80748056000E0012407B085
:10069000204630BD4038024040420F00001000406C
:1006A000500100200C0000200A4808B5016841F400
:1006B00080410160006800F4804000900548001F00
:1006C000016841F080510160006800F080500090A6
:1006D00008BD000044380240002809DB00F01F027A
:1006E000012191404009800000F1E020C0F8001194
:1006F00070470000F0B40E4B1B680C46C3F3022396
:10070000C3F10705042D00D90425191D072901D2BD
:10071000002300E0DB1E012606FA05F1491E2140F8
:1007200099409E40761E16403143F0BC01F023B93B
:100730000CED00E0064900F0070208684FF6FF03E1
:10074000184040EA0220034A104308607047000046
:100750000CED00E00000FA052DE9F0470E4605001B
:1007600065D0DFF81481D8F80000F7B200F00F0070
:10077000B04207D288F80070D8F8000000F00F00EF
:10078000B04254D128683D4C810712D5400703D5AB
:10079000206840F4E05020602878000703D52068E6
:1007A00040F4604020602068A96820F0F000084311
:1007B00020602878C0072DD03049686808390128A2
:1007C00012D0022813D0032811D009688907002904
:1007D0002DDA216821F0030101432160FFF7F0FECB
:1007E000814641F2883A0EE009688903EFE709681B
:1007F0008901ECE7FFF7E4FEA0EB0901514502D9BE
:100800000320BDE8F0872068696800F00C00B0EBB9
:10081000810FEFD1D8F80010404601F00F01B1422E
:1008200007D90770006800F00F00B04201D0012026
:10083000E7E72878400705D52068E96820F4E0500C
:10084000084320602878000706D52068296920F42D
:10085000604040EAC100206000F058F82168084A72
:10086000C1F30311515CC84006490860064800689E
:10087000FFF7CEFE0020C4E7003C024008380240EB
:10088000FC190008140000200C0000200F22026058
:100890000C4A136803F003034360136803F0F0038A
:1008A0008360136803F4E053C36012684FF4E053AD
:1008B00003EAD20202610448006800F00F000860F9
:1008C0007047000008380240003C024004480549D7
:1008D00000680968044AC1F38221515CC84070472E
:1008E00014000020083802400C1A0008044805498A
:1008F00000680968044AC1F34231515CC84070473E
:1009000014000020083802400C1A0008154810B5E1
:10091000006810F00C02144813D01449042A0FD0B8
:10092000082A0ED10F4C241F2268236802F03F02D0
:100930005B0207D52068C0F38810A0FB010106E028
:10094000084610BD2168C1F38811A1FB00010023F6
:10095000FFF748FC2168C1F30141491C4900B0FB85
:10096000F1F010BD083802400024F400001BB7006D
:100970002DE9F84F04006ED02078DFF84C93C007C3
:10098000A9F104054AD009F104000168C1F381010D
:10099000012908D00068C0F3810002280AD1D9F8E3
:1009A0000000400206D52868800337D5606800281B
:1009B000E1D033E06068B0F5803F10D0B0F5A02FF3
:1009C000286810D020F480302860286820F4802027
:1009D00028606068A8B1FFF7F3FD06460DE02868BF
:1009E00040F48030F4E740F480202860F7E700BF4F
:1009F000FFF7E6FD801B642873D828688003F7D5CD
:100A00000CE0FFF7DDFD064605E000BFFFF7D8FD6F
:100A1000801B6428F0D828688003F7D42078DFF89A
:100A2000AC8280074FF0000A3ED5A748001D016840
:100A300011F00C0F08D00068C0F3810002280BD120
:100A4000D9F80000400207D42868800716D5E0686E
:100A5000012800D112E033E1E068B8B10120C8F804
:100A60000000FFF7ADFD064605E000BFFFF7A8FD5B
:100A7000801B0228C0D828688007F7D5286821691C
:100A800020F0F80040EAC10028600DE0C8F800A09E
:100A9000FFF796FD064604E0FFF792FD801B022853
:100AA0001FD828688007F7D42078000722D5864F02
:100AB00087486169703771B101210160FFF780FDDE
:100AC000064604E0FFF77CFD801B022809D8386841
:100AD0008007F7D50EE0C0F800A0FFF771FD0646CD
:100AE00005E082E0FFF76CFD801B02287DD83868A6
:100AF0008007F7D42078400768D5DFF8CCB100270D
:100B00000BF13C0BDBF80000C0000BD4DBF800104D
:100B100041F08051CBF80010DBF80000012700F015
:100B2000805000906B4E3068C00510D4306840F49F
:100B300080703060FFF744FD009005E0FFF740FD56
:100B40000099401A022850D83068C005F6D55E4E8C
:100B5000A0686C3601280FD00528306810D020F02E
:100B600001003060306820F004003060A068B8B147
:100B7000FFF726FD00900FE0306840F00100F4E739
:100B800040F004003060F7E7FFF71AFD0099411AC2
:100B900041F28830814266D830688007F4D50EE093
:100BA000FFF70EFD009007E0FFF70AFD0099411ADC
:100BB00041F28830814256D830688007F4D42FB192
:100BC000DBF8001021F08051CBF80010A069C8B309
:100BD0003D49091D0968C1F3810102294AD0022853
:100BE000504607D0C8F8600000E03CE0FFF7E8FCA2
:100BF00004463BE04746C8F86000FFF7E1FC0646C4
:100C000005E000BFFFF7DCFC801B02282BD828681A
:100C10008001F7D4D4E907010843A16A2E4A4908A4
:100C200002EB0141626A41EA8211084394F82C10F8
:100C300040EA0161C9F8001001203866FFF7C0FCE6
:100C4000044606E03EE000BFFFF7BAFC001B0228A6
:100C500009D828688001F7D534E000BFFFF7B0FC61
:100C6000001B022802D90320BDE8F88F2868800104
:100C7000F4D427E00128F7D0D9F80000E26900F4A5
:100C8000800191421CD1226A00F03F01914217D1AC
:100C900047F6C071626A0140B1EB821F10D1A26AAF
:100CA0004FF0FF3300F4403103EB5202B1EB024F3F
:100CB00006D194F82C1000F07060B0EB016F01D0F9
:100CC0000120D1E70020CFE704380240000047426E
:100CD000800E4742007000400000FFFF70477047E1
:100CE00010B5040003D094F83D0010B107E00120D6
:100CF00010BD002084F83C00204600F01EF80220C1
:100D000084F83D00211D206800F07EFC012084F85D
:100D1000460084F83E0084F83F0084F8400084F8E0
:100D2000410084F8420084F8430084F8440084F8C9
:100D3000450084F83D00002010BD704790F83D103C
:100D4000012901D001207047022180F83D1001687F
:100D5000CA6842F00102CA6000681149884214D092
:100D6000B0F1804F11D00F4988420ED00E49884211
:100D70000BD00E49884208D00D49884205D00D4954
:100D8000884202D00C49884204D1816801F00701F1
:100D9000062903D0016841F001010160002070477D
:100DA000000001400004004000080040000C00402A
:100DB00000040140004001400018004070472DE948
:100DC000F04104460068C66805694FF00007A907AE
:100DD00013D5B10711D5F91E0161012020772068D4
:100DE00080698007204602D0FFF7E8FF04E000F0AA
:100DF0007EF8204600F07CF82777680716D5700744
:100E000014D521686FF00400086102202077206863
:100E1000806910F4407F204602D0FFF7CFFF04E046
:100E200000F065F8204600F063F82777280715D50D
:100E3000300713D521686FF008000861042020777F
:100E40002068C0698007204602D0FFF7B7FF04E0A2
:100E500000F04DF8204600F04BF82777E80616D54D
:100E6000F00614D521686FF0100008610820207783
:100E70002068C06910F4407F204602D0FFF79EFF33
:100E800004E000F034F8204600F032F82777E80755
:100E900008D0F00706D021686FF0010008612046F5
:100EA00000F028F8280608D5300606D521686FF02E
:100EB000800008612046FFF711FF680608D570061C
:100EC00006D521686FF040000861204600F01CF84C
:100ED000A8060AD5B00608D521686FF02000086181
:100EE0002046BDE8F041FFF7FABEBDE8F08170474B
:100EF0007047000000680349884201D1FFF766BBD4
:100F000070470000001000407047704770470000B5
:100F1000F8B5016804460868CA684B6910F00F0FFD
:100F20004FF0000559D003F0010602F490773743E3
:100F300065D0C10705D0D10503D5616C41F0010131
:100F40006164410705D5D90703D0616C41F0020106
:100F50006164810705D5D90703D0616C41F00401B4
:100F60006164010707D502F02001314303D0616CB1
:100F700041F008016164616C00293AD0800604D513
:100F8000900602D5204600F0E6FB20684069616CBF
:100F9000C0F38010090700D460B3204600F0B4FB12
:100FA00020684069400621D52068143050E8001FB1
:100FB00021F0400140E80012002AF5D1E06BA8B111
:100FC0006E490165E06BFFF7CEF9002811D0E06BA8
:100FD000016D01B0BDE8F040084783060FD59306C8
:100FE0000DD52046BDE8F84000F0B5BB2046FFF720
:100FF0008DFFF8BD2046FFF789FF6564F8BD266BBD
:101000002023012E7DD1C6067BD5D60679D508686A
:101010004868009048694FF00206400641D5E16BF0
:10102000086840680004000CE8D0A28D8242E5D92F
:10103000E085C869B0F5807F2DD020680C3050E87D
:10104000001F21F4807140E80012002AF5D12068C9
:10105000143050E8001F21F0010140E80012002A7E
:10106000F5D12068143050E8001F21F0400140E81D
:101070000012002AF5D184F84230256320680C3034
:1010800050E8001F21F0100140E80012002AF5D1BD
:10109000E06BFFF71FF96663A08DE18D401A81B206
:1010A0002AE0A08DE18D401A81B2E08D0028A5D004
:1010B0000029A3D022680C3252E8000F20F490706F
:1010C00042E80007002FF5D12068143050E8002FC7
:1010D00022F0010240E80027002FF5D184F84230C9
:1010E000256320680C3050E8002F22F0100240E801
:1010F0000023002BF5D166632046FFF706FFF8BDFD
:10110000FFE705062BD5150629D594F841002128BF
:10111000F5D1A068B0F5805F01D12069B0B1206A37
:10112000411C2162216800784860E08C401E000468
:10113000000CE084E3D12068C16821F08001C16027
:101140002068C16841F04001C160D8E7206A00888A
:10115000C0F308004860206A801C2062E5E7400672
:10116000CDD55006CBD5CA68204622F04002CA60D1
:1011700084F8413000F042F9C1E70000F916000898
:1011800070B5040004D094F84100002510B106E0C9
:10119000012070BD84F84050204600F023F8242040
:1011A00084F841002068C16821F40051C1602046E4
:1011B00000F032FB2068016921F490410161206850
:1011C000416921F02A0141612068C16841F4005160
:1011D000C1606564202084F8410084F842006563A2
:1011E000002070BDF0B587B0044614216846FFF7B3
:1011F00031F85149DFF83CC1276800234E4A1039C5
:101200000225032408264D4867451FD1176847F07B
:1012100080471760126802F0804205920A6842F027
:1012200010020A60096802AF01F010010591E101A6
:10123000CDE9001587E858006946FFF7A7F80022B6
:1012400011465220FFF756FA522021E0DFF8F0C095
:10125000674521D1176847F000471760126802F010
:10126000004205920A6842F010020A600968CDE95E
:10127000004501F01001CDE90461CDE90234694671
:10128000FFF784F8002211465320FFF733FA53206A
:10129000FFF722FA07B0F0BD2A48874222D1106832
:1012A00040F480201060106800F4802005900868E9
:1012B00040F0080008600868029300F008000590FC
:1012C0004FF44070CDE900050720CDE903406946A1
:1012D0001D48FFF75BF8002211462720FFF70AFAA6
:1012E0002720D5E719488742D4D11348001D02684A
:1012F00042F020020260006800F0200005900868BB
:1013000040F040000860086802AA00F04000059024
:101310004FF48440CDE9000582E8580069460C4846
:10132000FFF734F8002211464720FFF7E3F9472082
:10133000AEE7000000780040403802400010024054
:10134000007C004000480040000C024000140140B6
:101350000018024090F84230202B01D00220704744
:1013600021B11AB10023036300F0DCBA01207047F9
:101370001D4930B4884234D1006843681C491B4879
:101380000A688354521C0A600A2A01D300220A60A8
:101390000278042A1ED14378032B1BD18378042BB7
:1013A00018D1124BDFED130A0C3B1A70B0F8052070
:1013B000047952BA64F31F4200EE102A5A604A6060
:1013C000B8EE400A20EE200ADFED0B0A20EE200ADC
:1013D00083ED020A096830BC01440A220248FFF783
:1013E000B9BF30BC70470000080100202400002075
:1013F00000000020000080360000B4437047FEE784
:10140000194808B5016841F010010160016801F058
:1014100010010091016841F040010160016801F094
:1014200040010091016841F001010160016801F093
:1014300001010091016841F004010160016801F0BF
:1014400004010091016841F080010160016801F030
:1014500080010091016841F008010160006800F01E
:101460000800009008BD0000303802400C4810B55C
:101470000A4901604FF4E13141600021816004229A
:10148000C160C0E904128161C161FFF779FE0028E3
:1014900003D0BDE81040FEF71BBF10BD0078004030
:1014A000300000200C4810B50A4901604FF4E131CA
:1014B0004160002181600422C160C0E904128161A1
:1014C000C161FFF75DFE002803D0BDE81040FEF7C4
:1014D000FFBE10BD007C0040780000200C4810B515
:1014E0000A4901604FF4E1314160002181600C2222
:1014F000C160C0E904128161C161FFF741FE0028AB
:1015000003D0BDE81040FEF7E3BE10BD0048004028
:10151000C00000200C4810B50A4901604FF4E131C9
:101520004160002181600422C160C0E90412816130
:10153000C161FFF725FE002803D0BDE81040FEF78B
:10154000C7BE10BD0014014008010020FEE7FEE701
:10155000704770477047000030B593B0302168463F
:10156000FEF778FE14210CA8FEF774FE1D48002536
:10157000016841F080510160006800F080501190D6
:101580001948016841F4404101600068022400F4F8
:101590004040119001200090000401908001CDE9AD
:1015A000064006200890A820CDE9090404200B90ED
:1015B0006846FFF7DDF908B172B6FEE70CA90F2007
:1015C00081E831004FF4A0500F904FF480501090FC
:1015D00005210CA8FFF7C0F8002801D072B6FEE77D
:1015E00013B030BD4038024000700040024801682E
:1015F00041F470010160704788ED00E00148FFF799
:10160000DEBB000050010020F0B50268294C2A4DD5
:101610002A4E2B4F2B4B4FF0804CA04209D06045F7
:1016200007D0A84205D0B04203D0B84201D09842BA
:1016300004D122F0700E4A6842EA0E02A0421BD08A
:10164000604519D0A84217D0B04215D0B84213D087
:10165000984211D01C4DA8420ED01C4DA8420BD070
:101660001B4DA84208D01B4DA84205D01A4DA842D8
:1016700002D01A4DA84203D122F44075CA682A4309
:101680004D6922F080022A4302608A68C2620A68B9
:101690008262A04201D0984201D10969016301210F
:1016A00041610169C90703D0016921F001010161AC
:1016B000F0BD0000000001400004004000080040B0
:1016C000000C004000040140004001400044014083
:1016D0000048014000180040001C0040002000406D
:1016E0000148FFF715BC0000300000200148FFF75B
:1016F0000FBC00007800002010B5806B0021C18570
:10170000C184FFF703FC10BD01680C3151E8002FC4
:1017100022F4907241E80023002BF5D101681431C6
:1017200051E8002F22F0010241E80023002BF5D1FF
:10173000016B012909D101680C3151E8002F22F019
:10174000100241E80023002BF5D1202180F842103F
:1017500000210163704708B590F84210222901D09A
:10176000022008BD82684FF480539A4201D101697A
:1017700021B1816A9A421BD04AB10AE00268816AAB
:101780005268C2F308020A80816A891C08E0026973
:1017900072B10268526802F07F020A70816A491CC5
:1017A0008162C18D491E0904090CC18503D01BE06B
:1017B00002685268F1E70168CA6822F02002CA6034
:1017C0000168CA6822F48072CA6001684A6922F01E
:1017D00001024A61202180F8421000214163026B1E
:1017E000012A03D0FFF7C4FD002008BD0163016892
:1017F0000C3151E8002F22F0100241E80023002BA9
:10180000F5D101680A68D20602D50A6849680091D4
:10181000818DFFF77AFBE7E770B504460068016940
:10182000E26821F44051114301612169A068E26935
:1018300008436169114308432168CA6849F20C638F
:101840009A430243CA6020684169A26921F4407149
:101850001143416131492068884202D030498842B1
:1018600002D1FFF743F801E0FFF730F8E269002307
:10187000192164253226B2F5004F626828D0A0FBFA
:101880000101930F9200FEF7ADFC0146B0FBF5F0AD
:101890006FF01802504301EB800006EB0010B0FB24
:1018A000F5F000F0F002B1FBF5F002EB0012B1FB35
:1018B000F5F06FF01803584301EB800006EB0010C1
:1018C000B0FBF5F000F00F0021681044886070BD97
:1018D000A0FB010192185B41FEF784FC0146B0FBBE
:1018E000F5F00201B1FBF5F06FF01803584301EB7E
:1018F000800006EBC000B0FBF5F000F0F80002EB52
:101900004002B1FBF5F0584301EB800006EBC0004C
:10191000B0FBF5F000F00700D6E700000010014032
:101920000014014081628285C28500214164222128
:1019300080F84210016921B10168CA6842F48072DE
:10194000CA6001684A6942F001024A610068C168E0
:1019500041F02001C1600020704700000148FFF7FE
:10196000D7BA0000C00000200148FFF7D1BA00003C
:1019700008010020FEE70907090E002804DB00F13A
:10198000E02080F80014704700F00F0000F1E02024
:1019900080F8141D704702E008C8121F08C1002A11
:1019A000FAD170477047002001E001C1121F002AE0
:1019B000FBD17047FEF712FEFFF7CEFDFFF720FDCB
:1019C000FFF754FDFFF76EFDFFF788FDFFF7A2FD5F
:1019D00007480068C16841F01001C1600649054828
:1019E0000A22096801440248FFF7B4FCFEE7000040
:1019F000080100202400002000000020000000005A
:101A000000000000010203040607080900000000AE
:101A100001020304341A000800000020180000002E
:101A2000961900084C1A00081800002080050000D4
:101A3000A6190008000000000000000001000000DE
:0C1A400010000000000000000024F40072
:04000005080001AD41
:00000001FF
